:060000000A128A11122809
:10000800FE00030EF7000408F8000A08F90083123E
:1000180003137F08FA000A128A11DE2B0A128A11CA
:10002800DE2D83120313C1002F30B7003708BA0042
:10003800B9294408253A0319222823282F284408D7
:10004800B700410884003708831380000130B700E7
:100058003708C107B929C201C301BB013B283B28A6
:100068003B150130B7003708AE073B2848282E0853
:1000780084000A128A1190250A128A11303A03194B
:100088003428482848283B282E0884000A128A1158
:1000980090250A128A110A128A110F260A128A1149
:1000A800031C57285828AA2883120313C201C30126
:1000B8005D280A3083120313A0000030A100430812
:1000C800A301A3074208A201A2070A128A11B225B6
:1000D8000A128A11831203132108C301C3072008D7
:1000E800C201C2072E0884000A128A1190250A123A
:1000F8008A11D03EB700FF3003180030B800370827
:10010800C2070318C30A3808C3070130B700370805
:10011800AE072E0884000A128A1190250A128A1145
:100128000A128A110F260A128A1103189C289D2880
:100138005D28AA28AA28AA28CF29B929C03083125D
:100148000313B7003708BB04BE28BE28013083124A
:100158000313AE07FF302E0784000A128A11902578
:100168000A128A11C400003A0319CF29753A0319F3
:10017800A228B9293A08840083130008BC00840A1D
:100188000008BD000230B7003708BA07C401C40A26
:100198004408053A031DD128D228D428FC28FC2875
:1001A8004408B7003707013E84000A128A119025D7
:1001B8000A128A11B8000A128A1190250A128A11A5
:1001C800B90039083D02031DEB2838083C02031822
:1001D800EE28EF28F128FC28FC280130B700370862
:1001E800C4074408053A031DFA28FB28D428FC282C
:1001F8004408B700B801B71BB8033808803AB900FB
:100208004308803A3902031D0B29420837020318B4
:100218000E290F291D29831203134408B700B801BA
:10022800B71BB8033708C2023808031CC303C3024C
:10023800222983120313C201C30122293B1D252948
:10024800262947294308420403192B292C29682900
:100258002D293030B7004108840037088313800007
:100268000130B7003708C107FF30C2070318C30AB7
:10027800FF30C30743084204031D432944292D299D
:100288006829682968294308420403194C294D291B
:1002980068294E292030B7004108840037088313A5
:1002A80080000130B7003708C107FF30C2070318C4
:1002B800C30AFF30C30743084204031D64296529A4
:1002C8004E296829682968294408B7003708C000FA
:1002D800AD290A30A8000030A9004008B700370748
:1002E800013E84000A128A1190250A128A11A00080
:1002F8000A128A1190250A128A11A1003D08A30149
:10030800A3073C08A201A2070A128A117E240A1236
:100318008A11831203132108AB01AB072008AA0135
:10032800AA070A128A1112250A128A1183120313C4
:100338002808303EB8003808C4004408B70041080F
:1003480084003708831380000130B7003708C107DD
:10035800AD29FF30B7003708C0074008FF3A031D32
:10036800B629B7296D29B929B92901308312031390
:10037800AE07FF302E0784000A128A1190250A1250
:100388008A11B7003708C400C408031DCC29CD2939
:100398001D28CF29CF298312031341088400831312
:1003A8008001D629080083160313861483160317C1
:1003B80009118316031395141730831203138E0043
:1003C800FC308F0090101012901210148316031333
:1003D8008801850183160317880183120313880196
:1003E80028300A128A11D0220A128A11831603139E
:1003F80096148B150C140B178B17981618121811C6
:100408001930990083120313981783160313B60142
:10041800A001B701BA01BB01112A831203135408C2
:10042800031D172AC02AE830A0000330A1004C0899
:10043800A301A3074B08A201A2070A128A117E246E
:100448000A128A11831603133B0883120313210629
:10045800031D342A831603133A0883120313200654
:100468000319372A382A612A1B30A0008030A100DE
:100478000A128A1157250A128A11E83083120313C7
:10048800A0000330A1004C08A301A3074B08A20158
:10049800A2070A128A117E240A128A1183120313F0
:1004A800210883160313BB01BB078312031320081B
:1004B80083160313BA01BA07612AE8308312A80029
:1004C8000330A9004C08AB01AB074B08AA01AA07E7
:1004D8000A128A1112250A128A1183120313290893
:1004E80083160313B901B907831203132808831667
:1004F8000313B801B8070B3083120313C900490866
:10050800AE00831603133B0883120313B001B00730
:10051800831603133A0883120313AF01AF07831638
:100528000313390883120313B201B20783160313A6
:10053800380883120313B101B1075008B401B40796
:100548004F08B301B3074E08B601B6074D08B50109
:10055800B507A0300A128A1115200A128A118312CF
:100568000313D401A030A0000030A1000A128A11A0
:1005780057250A128A11C02A0D3083120313CA00A4
:10058800FB30C900C90BC62ACA0BC62ACB2A112AB6
:10059800112A0A128A11122883120313A600F030B6
:1005A800A50025088805F030A50025088316031343
:1005B800880505118510851183120313051185100F
:1005C80085110A128A1125260A128A1130300A1258
:1005D8008A112F240A128A1105300A128A11F92564
:1005E8000A128A1130300A128A112F240A128A112B
:1005F80001300A128A11F9250A128A1132300A12B8
:100608008A112F240A128A110A2B0A2B0A128A111C
:10061800CD240A128A110038031D132B142B0A2B20
:10062800172B172B172B0A128A11CD240A128A119D
:100638000038031D202B212B172B222B8312031389
:1006480026080A128A112F240A128A112C2B2C2B05
:100658000A128A11CD240A128A110038031D352B7B
:10066800362B2C2B372B08300A128A112F240A120A
:100678008A113F2B3F2B0A128A11CD240A128A11A4
:100688000038031D482B492B3F2B4A2B0C300A12EC
:100698008A112F240A128A11522B522B0A128A11FC
:1006A800CD240A128A110038031D5B2B5C2B522BB8
:1006B8005D2B01300A128A112F240A128A11652B28
:1006C800652B0A128A11CD240A128A110038031DDB
:1006D8006E2B6F2B652B702B06300A128A112F2474
:1006E8000A128A11782B782B0A128A11CD240A1241
:1006F8008A110038031D812B822B782B832B8030A5
:100708000A128A118B230A128A118A2B0800831273
:100718000313A400F030A1002108831603138805F1
:10072800F03083120313A1002108880580302404C7
:10073800A1000030A2000430FF00220DA20CA10C81
:10074800FF0BA12B21080F39A300230888040511EA
:1007580085100A128A1139260A128A118312031384
:1007680085150A128A1139260A128A11831203136F
:100778008511F030A1002108880524080F39A1004F
:10078800210888040A128A1139260A128A1183124A
:10079800031385150A128A1139260A128A1183123F
:1007A800031385110F30A100210883160313880451
:1007B800DD2B08000C1CE12BE22BF52B17308E00EB
:1007C800FC308F000C100130D1070318D20A00301A
:1007D800D2070130CB070318CC0A0030CC07242CF1
:1007E800242C0B1CF82BF92B242C003086180130F4
:1007F800F6007608FB00FB08031D032C042C0F2CC5
:100808005208CE01CE075108CD01CD07D101D20142
:10081800D401D40A182C5208D001D0075108CF01AE
:10082800CF07D101D201182C86181B2C1F2C83123C
:1008380003138817222C8312031388130B10242CFC
:100848007A08FF0079088A0078088400770E830008
:10085800FE0E7E0E090083120313A300F030A100E0
:100868002108831603138805F03083120313A100AF
:10087800210888052308A10004300310A10CFF3EBD
:10088800031D412C21080F39A200220888040511F4
:1008980085100A128A1139260A128A118312031343
:1008A80085150A128A1139260A128A11831203132E
:1008B8008511F030A1002108880523080F39A1000F
:1008C800210888040A128A1139260A128A11831209
:1008D800031385150A128A1139260A128A118312FE
:1008E800031385110F30A100210883160313880410
:1008F8007D2C080083120313A601A70121082004F8
:100908000319872C882CC52CA501A50A972C013022
:100918000310A00DA10DFF3E031D8C2C0130A40077
:100928002408A507972CA11F9A2C9B2C8B2C9D2C57
:100938009D2C01300310A60DA70DFF3E031D9E2C14
:1009480021082302031DAA2C20082202031CAD2C17
:10095800AE2CB62C2008A2022108031CA303A30274
:100968002614B62C01300310A10CA00CFF3E031D69
:10097800B72C0130A502031DC22CC32C9D2CC52CFD
:10098800C52C2708A101A1072608A001A007CC2C87
:10099800080083120313051585100A128A113926D7
:1009A8000A128A118312031385150A128A1139262D
:1009B8000A128A1183120313881DE32CE42CFB2CE2
:1009C80085110A128A1139260A128A118312031311
:1009D80085150A128A1139260A128A1183120313FD
:1009E8008511051188170130112D112D112D851133
:1009F8000A128A1139260A128A11831203138515DD
:100A08000A128A1139260A128A11831203138511D0
:100A1800051188130030112D112D080083120313BE
:100A2800290828040319192D1A2D4F2DAD01AD0AD7
:100A3800292D01300310A80DA90DFF3E031D1E2D01
:100A48000130AC002C08AD07292DA91F2C2D2D2D08
:100A58001D2D2F2D2F2D29082B02031D352D28087C
:100A68002A02031C382D392D402D2808AA022908EE
:100A7800031CAB03AB02402D01300310A90CA80CDA
:100A8800FF3E031D412D0130AD02031D4C2D4D2DA0
:100A98002F2D4F2D4F2D2B08A901A9072A08A80192
:100AA800A807562D0800742D0C1A5B2D5C2D642D9B
:100AB800F930A2000000A20B5E2D622D0000742DFB
:100AC800831203132108FF00200884000A128A11E8
:100AD80086250A128A1199000130A0070318A10A75
:100AE800831203132108FF00200884000A128A11C8
:100AF80086250A128A110038031D832D842D582D4E
:100B0800852D0800FF1B902D83137F18831700087D
:100B1800840A0319FF0A080005308A000408840AB9
:100B280082070034013400340A3400346434003459
:100B3800E8340334103427342534353475342C34F0
:100B4800203425343034333475343A342034253461
:100B580075342034253475340A3400348312031371
:100B6800A401A501B72D201CBA2DBB2DC12D22082B
:100B7800A4070318A50A2308A50701300310A20D2E
:100B8800A30DFF3E031DC22D01300310A10CA00CC4
:100B9800FF3E031DC92D21082004031DD42DD52D8A
:100BA800B72DD62D2508A101A1072408A001A0076B
:100BB800DD2D0800F001F101F201F301F401F50166
:100BC80083134B30840056300A128A1131260A12D8
:100BD8008A11BC308400CC300A128A1131260A12DC
:100BE8008A1183010A128A11D72983120313A200DA
:100BF8000D30A100FB30A000A00B002EA10B002E91
:100C0800052E013083120313A202031D0C2E0D2E94
:100C1800FC2D0E2E080083120313A100A0013A3008
:100C280021020318182E192E222E30302102031CFF
:100C38001E2E1F2E222EA001A00A222E200C242EAA
:100C48000800143083120313A1007930A000A00B10
:100C58002B2EA10B2B2E302E080064008001840A55
:100C68000406031900340406322E053083120313D8
:0A0C7800A000A00B3D2E402E080046
:04400E00F4EFFFFFCD
:00000001FF
