:060000000A128A11122809
:10000800FE00030EF1000408F2000A08F300831250
:1000180003137F08F4000A128A11362C0A128A1177
:100028003B2D83120313B6002930AB002B08AF0019
:10003800B3293908253A0319222823282F283908F3
:10004800AB00360884002B08831380000130AB0016
:100058002B08B607B329B701B801B0013B283B28E4
:1000680030150130AB002B08A8073B284828280882
:1000780084000A128A1181240A128A11303A03195B
:100088003428482848283B28280884000A128A115E
:1000980081240A128A110A128A1119250A128A1150
:1000A800031C57285828A52883120313B701B80141
:1000B8005D280A3083120313A0000030A10038081D
:1000C800A301A3073708A201A2070A128A11D7249D
:1000D8000A128A11831203132108B801B8072008ED
:1000E800B701B707280884000A128A1181240A1266
:1000F8008A11D03EAB00FF3003180030AC002B084B
:10010800B7070318B80A2C08B8070130AB002B084A
:10011800A807280884000A128A1181240A128A1161
:100128000A128A1119250A128A1103189C289D2877
:100138005D28A528A528A528C929BC28BC28B32935
:10014800BC28013083120313A807FF302807840056
:100158000A128A1181240A128A11B900003A031975
:10016800C929583A0319BC28203A0319BC28B329CD
:10017800831203132F08840083130008B100840A34
:100188000008B2000230AB002B08AF07B901B90A6A
:100198003908043A031DD128D228D428FC28FC2881
:1001A8003908AB002B07013E84000A128A1181240A
:1001B8000A128A11AC000A128A1181240A128A11C1
:1001C800AD002D083202031DEB282C08310203185C
:1001D800EE28EF28F128FC28FC280130AB002B087A
:1001E800B9073908043A031DFA28FB28D428FC2843
:1001F8003908AB00AC01AB1BAC032C08803AAD004E
:100208003808803A2D02031D0B2937082B020318E2
:100218000E290F291D29831203133908AB00AC01DD
:10022800AB1BAC032B08B7022C08031CB803B8029D
:10023800222983120313B701B8012229301D252969
:10024800262947293808370403192B292C29682916
:100258002D293030AB00360884002B08831380002A
:100268000130AB002B08B607FF30B7070318B80AF0
:10027800FF30B80738083704031D432944292D29BE
:100288006829682968293808370403194C294D2931
:1002980068294E292030AB00360884002B088313C8
:1002A80080000130AB002B08B607FF30B7070318F2
:1002B800B80AFF30B80738083704031D64296529D0
:1002C8004E296829682968293908AB002B08B50028
:1002D800A7293508AB002B07013E84000A128A11B2
:1002E80081240A128A11A0000A128A1181240A1292
:1002F8008A11A1003208A301A3073108A201A207AD
:100308000A128A11A2230A128A11831203132008DF
:100318000F39AC002C08AE002E08093E84000A12E2
:100328008A1181240A128A11AB002B08B9003908F6
:10033800AB00360884002B08831380000130AB0023
:100348002B08B607A729FF30AB002B08B5073508DF
:10035800FF3A031DB029B1296D29B329B32901300A
:1003680083120313A807FF30280784000A128A1192
:1003780081240A128A11AB002B08B900B908031DA1
:10038800C629C7291D28C929C92983120313360874
:10039800840083138001D029080083120313A60068
:1003A800F030A50025088805F030A500250883163B
:1003B8000313880505118510851183120313051190
:1003C800851085110A128A112F250A128A113030D8
:1003D8000A128A1153230A128A1105300A128A1145
:1003E80003250A128A1130300A128A1153230A127D
:1003F8008A1101300A128A1103250A128A11323031
:100408000A128A1153230A128A110B2A0B2A0A127A
:100418008A11F1230A128A110038031D142A152A99
:100428000B2A182A182A182A0A128A11F1230A12E2
:100438008A110038031D212A222A182A232A831206
:10044800031326080A128A1153230A128A112D2A25
:100458002D2A0A128A11F1230A128A110038031D63
:10046800362A372A2D2A382A08300A128A115323A5
:100478000A128A11402A402A0A128A11F1230A1202
:100488008A110038031D492A4A2A402A4B2A0C306F
:100498000A128A1153230A128A11532A532A0A125A
:1004A8008A11F1230A128A110038031D5C2A5D2A79
:1004B800532A5E2A01300A128A1153230A128A111A
:1004C800662A662A0A128A11F1230A128A1100384A
:1004D800031D6F2A702A662A712A06300A128A11A9
:1004E80053230A128A11792A792A0A128A11F123C6
:1004F8000A128A110038031D822A832A792A842A3B
:1005080080300A128A1100230A128A118B2A0800E5
:10051800831603138614831603170911831603130E
:1005280095141730831203138E00FC308F0090103F
:100538001012901210148316031388018501831674
:100548000317880183120313880128300A128A11BD
:10055800D1210A128A118B15831603130C140B1759
:100568008B179816181218150C309900831203135C
:1005780098171030BE003E08D500C22A5808031D3F
:10058800C62AC22A1A30BE003E08A8005708AA0187
:10059800AA075608A901A9073F300A128A1115208F
:1005A8000A128A1183120313D8013F30A0000030C9
:1005B800A1000A128A11A8240A128A110130831292
:1005C8000313D502031DE92AEA2AC22A2030A00013
:1005D8008030A1000A128A11A8240A128A11103048
:1005E80083120313BE003E08D500C22AC22AC22ABB
:1005F800C22A0A128A11122883120313A400F030A7
:10060800A1002108831603138805F0308312031311
:10061800A1002108880580302404A1000030A20030
:100628000430FF00220DA20CA10CFF0B162B210891
:100638000F39A30023088804051185100A128A11AE
:1006480046250A128A118312031385150A128A1184
:1006580046250A128A11831203138511F030A1006E
:100668002108880524080F39A100210888040A12E6
:100678008A1146250A128A118312031385150A1254
:100688008A1146250A128A118312031385110F3025
:10069800A1002108831603138804522B0800831233
:1006A8000313A300F030A100210883160313880563
:1006B800F03083120313A100210888052308A10044
:1006C80004300310A10CFF3E031D652B21080F39D0
:1006D800A20022088804051185100A128A114625ED
:1006E8000A128A118312031385150A128A114625E4
:1006F8000A128A11831203138511F030A100210810
:10070800880523080F39A100210888040A128A11D4
:1007180046250A128A118312031385150A128A11B3
:1007280046250A128A118312031385110F30A1007E
:100738002108831603138804A12B080083120313CE
:10074800A601A701210820040319AB2BAC2BE92B28
:10075800A501A50ABB2B01300310A00DA10DFF3E7A
:10076800031DB02B0130A4002408A507BB2BA11F33
:10077800BE2BBF2BAF2BC12BC12B01300310A60DF5
:10078800A70DFF3E031DC22B21082302031DCE2BFC
:1007980020082202031CD12BD22BDA2B2008A2021C
:1007A8002108031CA303A3022614DA2B013003102B
:1007B800A10CA00CFF3E031DDB2B0130A502031D7D
:1007C800E62BE72BC12BE92BE92B2708A101A10771
:1007D8002608A001A007F02B0800831203130515B3
:1007E80085100A128A1146250A128A1183120313E8
:1007F80085150A128A1146250A128A1183120313D3
:10080800881D072C082C1F2C85110A128A114625D1
:100818000A128A118312031385150A128A114625B2
:100828000A128A11831203138511051188170130E2
:10083800352C352C352C85110A128A1146250A12B9
:100848008A118312031385150A128A1146250A1282
:100858008A11831203138511051188130030352C72
:10086800352C08000C1C392C3A2C6C2C17308E00B7
:10087800FC308F000C107708103A031D442C452CCF
:10088800592C5808031D492C502C803088060130FB
:10089800F0007008F807502C7608D701D7077508BC
:1008A800D601D607D801D80AF70101300310F50D93
:1008B800F60DFF3E031D5A2C861C632C642C662CF7
:1008C8007514662C0130F0007008F7076C2C6C2C3E
:1008D8007408FF0073088A0072088400710E830090
:1008E800FE0E7E0E0900FF1B812C83137F188317D1
:1008F8000008840A0319FF0A080004308A00040863
:10090800840A82070034013400341034003400347F
:100918000134003410343034313432343334343424
:100928003534363437343834393441344234433446
:10093800443445344634003425343034343458345F
:10094800203400340A340034C52C0C1AAC2CAD2CDD
:10095800B52CF930A2000000A20BAF2CB32C00007C
:10096800C52C831203132108FF00200884000A12F3
:100978008A1177240A128A1199000130A0070318F6
:10098800A10A831203132108FF00200884000A1219
:100998008A1177240A128A110038031DD42CD52C09
:1009A800A92CD62C080083120313A401A501DC2C62
:1009B800201CDF2CE02CE62C2208A4070318A50A2B
:1009C8002308A50701300310A20DA30DFF3E031D48
:1009D800E72C01300310A10CA00CFF3E031DEE2CE8
:1009E80021082004031DF92CFA2CDC2CFB2C2508EB
:1009F800A101A1072408A001A007022D0800831265
:100A08000313A2000D30A100FB30A000A00B0A2D9B
:100A1800A10B0A2D0F2D013083120313A202031D0F
:100A2800162D172D062D182D080083120313A1006B
:100A3800A0013A3021020318222D232D2C2D30300D
:100A48002102031C282D292D2C2DA001A00A2C2DB4
:100A5800200C2E2D0800143083120313A1007930C6
:100A6800A000A00B352DA10B352D3A2D0800F5015E
:100A7800F601F701F801D601D701D80183010A125E
:100A88008A118C2A053083120313A000A00B4A2D6B
:040A98004D2D0800D8
:04400E00D4EFFFFFED
:00000001FF
