:060000000A128A11382DDE
:100A700083010A128A11B52E0530F000F00B3E2DCD
:100A8000412D08001430F1007930F000F00B462DB4
:100A9000F10B462D4B2D0800F2000D30F100FB301C
:100AA000F000F00B512DF10B512D562D0130F202BB
:100AB000031D5B2D5C2D4D2D5D2D0800F5007B2D5C
:100AC000622D622D0A128A1185250A128A110038B8
:100AD000031D6B2D6C2D622D6D2D75088400831305
:100AE00000080A128A11CA250A128A110130F4007C
:100AF0007408F5077B2D7508840083138008031D97
:100B0000822D832D622D842D080083120313051579
:100B100085100A128A113C250A128A1183120313C6
:100B200085150A128A113C250A128A1183120313B1
:100B3000871D9B2D9C2DB32D85110A128A113C25F2
:100B40000A128A118312031385150A128A113C2591
:100B50000A128A11831203138511051188170130B7
:100B6000C92DC92DC92D85110A128A113C250A12D9
:100B70008A118312031385150A128A113C250A1261
:100B80008A11831203138511051188130030C92DB2
:100B9000C92D0800F300F030F1007108831603132B
:100BA0008705F030F100710883120313870573087D
:100BB000F10004300310F10CFF3E031DDA2D710823
:100BC0000F39F20072088704851405110A128A1180
:100BD0003C250A128A118312031385150A128A1101
:100BE0003C250A128A11831203138511F030F1009B
:100BF0007108870573080F39F100710887040A121C
:100C00008A113C250A128A118312031385150A12D0
:100C10008A113C250A128A118312031385110F30A1
:100C2000F1007108831603138704162E0800F300E1
:100C3000F030F1007108831603138705F030F100DE
:100C400071088312031387057308F1000430031041
:100C5000F10CFF3E031D272E71080F39F2007208B8
:100C60008704051185100A128A113C250A128A117F
:100C70008312031385150A128A113C250A128A1160
:100C8000831203138511F030F10071088705730892
:100C90000F39F100710887040A128A113C250A12E3
:100CA0008A118312031385150A128A113C250A1230
:100CB0008A118312031385110F30F1007108831616
:100CC00003138704632E0800F400F030F10071086C
:100CD000831603138705F030F100710883120313A4
:100CE000870580307404F1000030F2000430FF000A
:100CF000720DF20CF10CFF0B782E71080F39F30016
:100D000073088704051185100A128A113C250A12FE
:100D10008A118312031385150A128A113C250A12BF
:100D20008A11831203138511F030F10071088705D1
:100D300074080F39F100710887040A128A113C25E2
:100D40000A128A118312031385150A128A113C258F
:100D50000A128A118312031385110F30F1007108F2
:100D6000831603138704B42E080083160313861416
:100D70008316031709118316031395108801831234
:100D80000313880183160313870185018316031754
:100D9000880128300A128A1147270A128A11831201
:100DA0000313B501B601B401D52E83120313B501A7
:100DB000B6013608803AFF0080307F02031DE22E24
:100DC00014303502031CE52EE62EE82E292F292F9C
:100DD000831203138618ED2EF12E831203130814C9
:100DE000F42E831203130810861CF72EF82E012F01
:100DF0003130FB003508203E84007B0883138000DF
:100E00000A2F3030FB003508203E84007B08831316
:100E100080000A2F4130FC00EE30FB00FB0B0E2F50
:100E2000FC0B0E2F0000013083120313B5070318CB
:100E3000B60A0030B6073608803AFF0080307F02DD
:100E4000031D242F14303502031C272F282FE82ED2
:100E5000292F20300A128A115E250A128A110030C9
:100E60000A128A1164260A128A11372F372F0A12A2
:100E70008A1185250A128A110038031D402F412F3F
:100E8000372FD52ED52ED52E0A128A110028F6001E
:100E9000F030F5007508831203138705F030F50074
:100EA00075088316031387050511851085118312B4
:100EB00003130511851085110A128A1142250A12A1
:100EC0008A1130300A128A1117260A128A11053047
:100ED0000A128A114C250A128A1130300A128A111C
:100EE00017260A128A1101300A128A114C250A1299
:100EF0008A1132300A128A1117260A128A11812F9A
:100F0000812F0A128A1185250A128A110038031DC1
:100F10008A2F8B2F812F8E2F8E2F8E2F0A128A11C0
:100F200085250A128A110038031D972F982F8E2FBE
:100F3000992F76080A128A1117260A128A11A12FF0
:100F4000A12F0A128A1185250A128A110038031D61
:100F5000AA2FAB2FA12FAC2F08300A128A11172607
:100F60000A128A11B42FB42F0A128A1185250A1287
:100F70008A110038031DBD2FBE2FB42FBF2F0C3098
:100F80000A128A1117260A128A11C72FC72F0A12AE
:100F90008A1185250A128A110038031DD02FD12FFE
:100FA000C72FD22F01300A128A1117260A128A116E
:100FB000DA2FDA2F0A128A1185250A128A110038CF
:100FC000031DE32FE42FDA2FE52F06300A128A11D2
:100FD00017260A128A11ED2FED2F0A128A11852584
:100FE0000A128A110038031DF62FF72FED2FF82F64
:100FF00080300A128A1164260A128A11FF2F080013
:04400E00F4EFFFFFCD
:00000001FF
