:060000000A128A11122809
:10000800FE00030E83120313A4000408A5000A08C7
:10001800A6007F08A7000A128A11792B0A128A11F2
:100028003B2C013083120313CD070318CE0A00308E
:10003800CE07003086180130F9007908A20022089E
:100048005306031D282829282B28D2013B280130D4
:10005800F9007908D20723305202031C34283528C6
:100068003B282208F9007908D300D2013B28500820
:1000780053060319402841282029D308031D452881
:1000880046289C2807304E02093003194D02031CEC
:100098004E284F28852808304E02983003194D0203
:1000A8000318572858288528D108031D5C285D287F
:1000B8006028D101D10A81285108031D64287F28AE
:1000C8004F083B3A031D69286A287F280230F90047
:1000D8007908D1005C30F9007908F0000830F100A7
:1000E8000030F20054300A128A11DE230A128A11F3
:1000F800FD01FD0A8128D101812883120313CF0154
:100108001D2902304E02F83003194D02031C8D28B8
:100118008E28972803304E02AD3003194D02031C78
:10012800962897281D29D1011D291D291D291D291A
:1001380000304E023D3003194D02031CA428A528A7
:10014800B02800304E028C3003194D020318AD2838
:10015800AE28B028A001C82800304E02A1300319EB
:100168004D02031CB828B928C52800304E02F030CB
:1001780003194D020318C128C228C528A001A00AE6
:10018800C828D101C828C8285108031DCC281A2915
:100198003C304F020318D128D2281A290830F00021
:1001A8000030F1004F08F900FA017908F2007A08E6
:1001B800F3000A128A11E0210A128A117008FB0062
:1001C8007B0883120313A1002008031DEC280029D3
:1001D8000130F9004F080739013EF4280310F90DE2
:1001E800FF3E031DF2287908FA0021085C3E8400CE
:1001F8007A088313800415290130F9004F0807395C
:10020800013E08290310F90DFF3E031D0629790850
:10021800FF3AFA0021085C3E84007A0883138005BF
:1002280015290130F9007908CF071D29D1011D29A9
:100238001D29CD01CE0120295308F9007908D000E5
:10024800080083120313AE00F030AD002D088805B6
:10025800F030AD002D0883160313880505118510AD
:100268008511831203130511851085110A128A114D
:1002780049240A128A1130300A128A11A5220A1258
:100288008A1105300A128A1125240A128A1130307F
:100298000A128A11A5220A128A1101300A128A1139
:1002A80025240A128A1132300A128A11A5220A124A
:1002B8008A115F295F290A128A11F4220A128A1107
:1002C8000038031D682969295F296C296C296C2964
:1002D8000A128A11F4220A128A110038031D75299C
:1002E80076296C297729831203132E080A128A119A
:1002F800A5220A128A11812981290A128A11F42257
:100308000A128A110038031D8A298B2981298C2910
:1003180008300A128A11A5220A128A1194299429EE
:100328000A128A11F4220A128A110038031D9D2923
:100338009E2994299F290C300A128A11A5220A1293
:100348008A11A729A7290A128A11F4220A128A11E6
:100358000038031DB029B129A729B22901300A1292
:100368008A11A5220A128A11BA29BA290A128A11EF
:10037800F4220A128A110038031DC329C429BA2994
:10038800C52906300A128A11A5220A128A11CD2916
:10039800CD290A128A11F4220A128A110038031D83
:1003A800D629D729CD29D82980300A128A11522274
:1003B8000A128A11DF290800F601F11FE429E5294C
:1003C800ED29F009F109F00A0319F10AF601F60A14
:1003D800ED29F31FF029F129FB29F209F309F20AA3
:1003E8000319F30A0130F4007408F606FB29F70133
:1003F800F801710870040319022A032A402AF5013A
:10040800F50A122A01300310F00DF10DFF3E031D0D
:10041800072A0130F4007408F507122AF11F152A7B
:10042800162A062A182A182A01300310F70DF80D83
:10043800FF3E031D192A71087302031D252A70083F
:100448007202031C282A292A312A7008F20271082C
:10045800031CF303F3027714312A01300310F10C63
:10046800F00CFF3E031D322A0130F502031D3D2A20
:100478003E2A182A402A402A7608031D442A4A2A76
:10048800F709F809F70A0319F80A4A2A7808F1015E
:10049800F1077708F001F007512A080083120313C7
:1004A800AC00F030A9002908831603138805F03042
:1004B80083120313A9002908880580302C04A90099
:1004C8000030AA000430FF002A0DAA0CA90CFF0B6B
:1004D800682A29080F39AB002B08880405118510F4
:1004E8000A128A115D240A128A11831203138515D0
:1004F8000A128A115D240A128A11831203138511C4
:10050800F030A900290888052C080F39A900290806
:1005180088040A128A115D240A128A1183120313AD
:1005280085150A128A115D240A128A11831203138F
:1005380085110F30A9002908831603138804A42AFB
:10054800080083120313AB00F030A90029088316B2
:1005580003138805F03083120313A90029088805BE
:100568002B08A90004300310A90CFF3E031DB72A6D
:1005780029080F39AA002A088804051185100A12CB
:100588008A115D240A128A118312031385150A122F
:100598008A115D240A128A11831203138511F0301F
:1005A800A900290888052B080F39A90029088804FB
:1005B8000A128A115D240A128A11831203138515FF
:1005C8000A128A115D240A128A11831203138511F3
:1005D8000F30A9002908831603138804F32A08009A
:1005E80083120313051585100A128A115D240A1255
:1005F8008A118312031385150A128A115D240A12BF
:100608008A1183120313881D0A2B0B2B222B8511A9
:100618000A128A115D240A128A118312031385159E
:100628000A128A115D240A128A1183120313851192
:10063800051188170130382B382B382B85110A12F1
:100648008A115D240A128A118312031385150A126E
:100658008A115D240A128A11831203138511051168
:1006680088130030382B382B0800831603138614A0
:100678008316031709118316031395108801850142
:1006880083160317880183120313880128300A127E
:100698008A1125210A128A118316031396148B15C1
:1006A8000C140B178B17981618121811193099007B
:1006B800831203139817CB01B501CC01632B0130CA
:1006C8000A128A11AF230A128A1182308312031385
:1006D800B400DD30B300B30B6F2BB40B6F2B742B4E
:1006E800632B632B0A128A1112280C1C7C2B7D2B7E
:1006F800892B17308E00FC308F000C100A128A11DB
:1007080015200A128A11A22BA22B0B1C8C2B8D2BC5
:10071800A22B003086180130A3002308FC00962B7A
:10072800962B962B8618992B9D2B831203138817CB
:10073800A02B8312031388130B10A22B831203130D
:100748002708FF0026088A0025088400240E830055
:10075800FE0E7E0E090083120313A900CE2B0C1A7D
:10076800B62BB72BBF2BF930A8000000A80BB92B6C
:10077800BD2B0000CE2B83120313290884000A1214
:100788008A110C240A128A1199000130A80028083D
:10079800A907CE2B83120313290884000A128A1191
:1007A8000C240A128A110038031DDB2BDC2BB32B17
:1007B800DD2B0800F4007008F3007308F6007408D5
:1007C800F3007308F500FA2B7608840083130008F9
:1007D800F30075088400730880000130F300730883
:1007E800F6070130F3007308F507FA2B0130F10220
:1007F8000030031CF203F202FF307206031D062CC0
:10080800FF307106031D092C0A2CE82B0B2C08005D
:1008180004308A000408840A8207003448346534A6
:100828006C346C346F342C342034663472346F3446
:100838006D3420344D344334553421340A340D3466
:10084800003483120313AA000D30A900FB30A8005E
:10085800A80B2C2CA90B2C2C312C01308312031340
:10086800AA02031D382C392C282C3A2C0800FD012B
:1008780083134D30840064300A128A1155240A12F9
:100888008A1183010A128A11392B14308312031337
:10089800A9007930A800A80B4F2CA90B4F2C542C79
:1008A800080064008001840A040603190034040661
:1008B800562C053083120313A800A80B612C642C56
:0208C800080026
:04400E00F4EFFFFFCD
:00000001FF
