:060000000A128A11122809
:10000800FE00030EF1000408F2000A08F300831250
:1000180003137F08F4000A128A11F02B0A128A11BE
:100028009C2C83120313BB002D30B1003108B5009E
:10003800DA283C08253A0319222823282F283C08C7
:10004800B1003B0884003108831380000130B100FF
:100058003108BB07DA28B4013928EE28DA28C0307D
:10006800B1003108B4044B284B280130AC07FF30ED
:100078002C0784000A128A115B240A128A11BC0018
:10008800003A0319EE28753A03193328DA28350897
:10009800840083130008B600840A0008B700023001
:1000A800B1003108B507BC01BC0A3C08053A031D7C
:1000B8005E285F286128892889283C08B100310713
:1000C800013E84000A128A115B240A128A11B200C6
:1000D8000A128A115B240A128A11B3003308370204
:1000E800031D78283208360203187B287C287E28CE
:1000F800892889280130B1003108BC073C08053A35
:10010800031D87288828612889283C08B100310800
:10011800BA00CE280A30A7000030A8003A08B1007B
:100128003107013E84000A128A115B240A128A11DF
:10013800A0000A128A115B240A128A11A10037084A
:10014800A301A3073608A201A2070A128A111723DE
:100158000A128A11831203132108AA01AA07200888
:10016800A901A9070A128A11AB230A128A1183125C
:1001780003132708303EB2003208BC003C08B10027
:100188003B0884003108831380000130B100310836
:10019800BB07CE28FF30B1003108BA073A08FF3A4A
:1001A800031DD728D8288E28DA28DA280130AC078A
:1001B800FF302C0784000A128A115B240A128A1164
:1001C800B1003108BC00BC08031DEB28EC281D2831
:1001D800EE28EE283B08840083138001F3280800EA
:1001E80083120313A400F030A30023088805F0301D
:1001F800A3002308831603138805051185108511AC
:10020800831203130511851085110A128A1192248D
:100218000A128A1130300A128A1179220A128A11B6
:1002280005300A128A117C240A128A1130300A1207
:100238008A1179220A128A1101300A128A117C2441
:100248000A128A1132300A128A1179220A128A1184
:100258002E292E290A128A1166230A128A110038B9
:10026800031D372938292E293B293B293B290A1206
:100278008A1166230A128A110038031D4429452968
:100288003B2946298312031324080A128A1179226A
:100298000A128A11502950290A128A1166230A1251
:1002A8008A110038031D59295A2950295B29083019
:1002B8000A128A1179220A128A11632963290A12F9
:1002C8008A1166230A128A110038031D6C296D29C8
:1002D80063296E290C300A128A1179220A128A11AE
:1002E800762976290A128A1166230A128A11003899
:1002F800031D7F2980297629812901300A128A1154
:1003080079220A128A11892989290A128A116623EF
:100318000A128A110038031D9229932989299429E0
:1003280006300A128A1179220A128A119C299C29FC
:100338000A128A1166230A128A110038031DA52998
:10034800A6299C29A72980300A128A1126220A1276
:100358008A11AE290800831603138614831603171F
:1003680009118316031395101730831203138E0097
:10037800FC308F0090101012901210148316031383
:1003880088018501831603178801831203138801E6
:1003980028300A128A11F4200A128A1183160313CC
:1003A80096148B150C140B178B17DA290B30831244
:1003B800C1004108AC006F08AE01AE076E08AD0180
:1003C800AD076D08B001B0076C08AF01AF07443046
:1003D8000A128A1115200A128A1144300A128A1147
:1003E8002E240A128A1100300A128A1126220A12B1
:1003F8008A11FF29FF290A128A1166230A128A1113
:100408000038031D082A092AFF290A2A8312031320
:10041800EE01EF01EC01ED010630C3001330C2001C
:10042800B130C100C10B162AC20B162AC30B162AFB
:100438001D2A4030831203138806DA29DA290A12A2
:100448008A111228F700F03083120313A000200845
:10045800831603138805F03083120313A0002008C5
:10046800880580307704A0000030A1000430FF0028
:10047800210DA10CA00CFF0B3C2A20080F39A2006B
:1004880022088804051185100A128A11A4240A1268
:100498008A118312031385150A128A11A4240A12D9
:1004A8008A11831203138511F030A00020088805F3
:1004B80077080F39A000200888040A128A11A4249A
:1004C8000A128A118312031385150A128A11A424A9
:1004D8000A128A118312031385110F30A000200815
:1004E800831603138804782A0800F700F030831273
:1004F8000313A0002008831603138805F030831225
:100508000313A000200888057708A0000430031012
:10051800A00CFF3E031D8B2A20080F39A1002108DB
:100528008804051185100A128A11A4240A128A1156
:100538008312031385150A128A11A4240A128A1138
:10054800831203138511F030A0002008880577086E
:100558000F39A000200888040A128A11A4240A125C
:100568008A118312031385150A128A11A4240A1208
:100578008A118312031385110F30A00020088316F7
:1005880003138804C72A0800F700F0308312031306
:10059800A0002008831603138805F0308312031384
:1005A800A000200888057708A00004300310A00CDC
:1005B800FF3E031DDA2A20080F39A100210888040C
:1005C800851405110A128A11A4240A128A118312A9
:1005D800031385150A128A11A4240A128A11831298
:1005E80003138511F030A0002008880577080F391B
:1005F800A000200888040A128A11A4240A128A1169
:100608008312031385150A128A11A4240A128A1167
:100618008312031385110F30A000200883160313DB
:100628008804162B080083120313A401A5012108CE
:1006380020040319202B212B5E2BA601A60A302BA0
:1006480001300310A00DA10DFF3E031D252B013025
:10065800F6007608A607302BA11F332B342B242B4A
:10066800362B362B01300310A40DA50DFF3E031DBC
:10067800372B21082302031D432B20082202031CC9
:10068800462B472B4F2B2008A2022108031CA3034B
:10069800A30224144F2B01300310A10CA00CFF3E21
:1006A800031D502B0130A602031D5B2B5C2B362B40
:1006B8005E2B5E2B2508A101A1072408A001A00735
:1006C800652B080083120313051585100A128A1179
:1006D800A4240A128A118312031385150A128A1197
:1006E800A4240A128A1183120313881D7C2B7D2BE4
:1006F800942B85110A128A11A4240A128A118312D2
:10070800031385150A128A11A4240A128A11831266
:1007180003138511051188170130AA2BAA2BAA2BC0
:1007280085110A128A11A4240A128A11831203134A
:1007380085150A128A11A4240A128A118312031336
:100748008511051188130030AA2BAA2B08008312E3
:100758000313280827040319B22BB32BE82BAB018A
:10076800AB0AC22B01300310A70DA80DFF3E031DD5
:10077800B72B0130F7007708AB07C22BA81FC52B92
:10078800C62BB62BC82BC82B28082A02031DCE2B34
:1007980027082902031CD12BD22BD92B2708A90201
:1007A8002808031CAA03AA02D92B01300310A80C9D
:1007B800A70CFF3E031DDA2B0130AB02031DE52B0E
:1007C800E62BC82BE82BE82B2A08A801A80729083C
:1007D800A701A707EF2B08000C1CF32BF42B012C07
:1007E8000130EE070318EF0A0030EF0717308E00CC
:1007F800FC308F000C10232C232C0B1C042C052CF4
:10080800232C003086180130F0007008F500F50838
:10081800031D0F2C102C172C0130EC070318ED0AC0
:100828000030ED07172C86181A2C1E2C8312031380
:100838008817212C8312031388130B10232C740898
:10084800FF0073088A0072088400710E8300FE0E90
:100858007E0E090083120313A300512C342C342C70
:100868000A128A1166230A128A110038031D3D2CC8
:100878003E2C342C3F2C831203132308840083134B
:1008880000080A128A11C8220A128A11013083123A
:100898000313A2002208A307512C23088400831302
:1008A8008008031D582C592C342C5A2C080004306D
:1008B8008A000408840A82070034013400340A34A8
:1008C800003464340034E834033410342734743486
:1008D80020343D342034253475342C3420346334AA
:1008E80020343D3420342534753420342034003409
:1008F80083120313A0000D30F700FB30F600F60B4F
:10090800832CF70B832C882C013083120313A0024D
:10091800031D8F2C902C7F2C912C08001430F7008D
:100928007930F600F60B962CF70B962C9B2C0800CA
:10093800EC01ED01EE01EF0183010A128A11AF29E2
:0C0948000530F600F60BA62CA92C0800C8
:04400E00F4EFFFFFCD
:00000001FF
