:060000000A128A11122809
:10000800FE00030E83120313A3000408A4000A08C9
:10001800A5007F08A6000A128A151B2F0A128A1546
:10002800702E83120313C6003630C0004008C50086
:10003800272A4C08253A0319222823282F284C0858
:10004800C000460884004008831380000130C000C7
:100058004008C607272ACA01CB01C3013B283B2811
:1000680043150130C0004008B5073B28482835082B
:1000780084000A128A1126270A128A11303A0319B3
:100088003428482848283B28350884000A128A1151
:1000980026270A128A110A128A1544260A128A1178
:1000A800031C57285828152983120313CA01CB01AA
:1000B8005D280A3083120313A7000030A8004B08FC
:1000C800AA01AA074A08A901A9070A128A154427FA
:1000D8000A128A11831203132808CB01CB072708B9
:1000E800CA01CA07350884000A128A1126270A128B
:1000F8008A11D03EC000FF3003180030C10040080C
:10010800CA070318CB0A4108CB070130C0004008D2
:10011800B507350884000A128A1126270A128A119F
:100128000A128A1544260A128A1103189C289D2847
:100138005D281529152915293B2A831203134B0815
:100148004902031DA9284A0848020318AC28AD280B
:10015800B4284808CA024908031CCB03CB02C428A8
:10016800CA01CB01C428C4282030C0004608840036
:100178004008831380000130C0004008C607C42827
:10018800FF30CA070318CB0AFF30CB07FF304B06F6
:10019800031DD028FF304A06031DD328D428B828C9
:1001A800E828E8284708840083130008C0004608A8
:1001B8008400400880000130C0004008C7070130B3
:1001C800C0004008C607E8280130C8020030031CF8
:1001D800C903C902FF304906031DF428FF30480649
:1001E800031DF728F828D628272A272A4508840037
:1001F80083130008C0004008CC000230C00040084B
:10020800C50706294C30C0004008C7000130C800A7
:100218000030C900A128C030C0004008C3042C2900
:100228002C29013083120313B507FF3035078400EA
:100238000A128A1126270A128A11CC00003A0319D9
:100248003B2A633A0319FA28163A03190F29062993
:100258004508840083130008C700840A0008C80002
:100268000230C0004008C507CC01CC0A4C08053A4A
:10027800031D3F29402942296A296A294C08C000E0
:100288004007013E84000A128A1126270A128A11A1
:10029800C1000A128A1126270A128A11C2004208CE
:1002A8004802031D59294108470203185C295D29A2
:1002B8005F296A296A290130C0004008CC074C0828
:1002C800053A031D6829692942296A294C08C00092
:1002D800C101C01BC1034108803AC2004B08803AE3
:1002E8004202031D79294A08400203187C297D2906
:1002F8008B29831203134C08C000C101C01BC10322
:100308004008CA024108031CCB03CB029029831280
:100318000313CA01CB019029431D93299429B529B8
:100328004B084A04031999299A29D6299B29303060
:10033800C000460884004008831380000130C000D4
:100348004008C607FF30CA070318CB0AFF30CB079F
:100358004B084A04031DB129B2299B29D629D6295D
:10036800D6294B084A040319BA29BB29D629BC291E
:100378002030C00046088400400883138000013004
:10038800C0004008C607FF30CA070318CB0AFF3071
:10039800CB074B084A04031DD229D329BC29D629E7
:1003A800D629D6294C08C0004008C4001B2A0A30A8
:1003B800AF000030B0004408C0004007013E840090
:1003C8000A128A1126270A128A11A7000A128A110C
:1003D80026270A128A11A8004808AA01AA0747086E
:1003E800A901A9070A128A11CD260A128A118312B5
:1003F80003132808B201B2072708B101B1070A128E
:100408008A11AF270A128A11831203132F08303E6C
:10041800C1004108CC004C08C000460884004008D0
:10042800831380000130C0004008C6071B2AFF3034
:10043800C0004008C4074408FF3A031D242A252A9F
:10044800DB29272A272A0130B507FF303507840022
:100458000A128A1126270A128A11C0004008CC0005
:10046800CC08031D382A392A1D283B2A3B2A831227
:1004780003134608840083138001422A0800831668
:10048800031386148316031709118316031395148F
:100498001730831203138E00FC308F009010101257
:1004A800901210148316031388018501831603170D
:1004B800880183120313880128300A128A11FE2446
:1004C8000A128A118B15831603130C140B178B173A
:1004D80098161812181119309900831203139817D7
:1004E80083160313BF01A901C001C501C6017C2AF7
:1004F800831203135708031D822ACE2BE830A70066
:100508000330A8005408AA01AA075308A901A9079B
:100518000A128A11CD260A128A1183160313460875
:10052800831203132806031D9F2A83160313450805
:100538008312031327060319A22AA32ACC2A2330DD
:10054800A7008030A8000A128A159E270A128A116D
:10055800E83083120313A7000330A8005408AA0147
:10056800AA075308A901A9070A128A11CD260A1257
:100578008A1183120313280883160313C601C607BA
:1005880083120313270883160313C501C507CC2A52
:100598008312D808031DD12AD22AD92A30308316CB
:1005A8000313C3000030C400E02A3130831603135C
:1005B800C3000030C400E02AE83083120313AF0000
:1005C8000330B0005408B201B2075308B101B107B3
:1005D8000A128A11AF270A128A11831203133008EC
:1005E80083160313C201C207831203132F0883164D
:1005F8000313C101C1070B30A000200883120313A5
:10060800B50083160313460883120313B701B7070F
:1006180083160313450883120313B601B60783161E
:100628000313420883120313B901B907831603138E
:10063800410883120313B801B8078316031344084B
:1006480083120313BB01BB078316031343088312EA
:100658000313BA01BA075B0883160313A100A201AA
:10066800210883120313BC00831603132208831284
:100678000313BD00A9300A128A1115200A128A1123
:1006880083120313D701A930A7000030A8000A126B
:100698008A159E270A128A110A128A1531260A1209
:1006A8008A11003A0319592B5A2BCE2B2530831661
:1006B8000313A000200883120313B5000A128A1539
:1006C800AC260A128A1183160313A100A20121087D
:1006D80083120313B600831603132208831203132D
:1006E800B7000A128A1587260A128A11831603137D
:1006F800A300A401230883120313B800831603136D
:10070800240883120313B9000A128A15CD270A1286
:100718008A11831203132808BB01BB072708BA01F3
:10072800BA070A128A15D1260A128A1183160313E8
:10073800A500A601250883120313BC008316031322
:10074800260883120313BD000A128A15F6260A1218
:100758008A1183160313A700A8012708831203131D
:10076800BE0083160313280883120313BF00A930A1
:100778000A128A1115200A128A11A930831203134A
:10078800A7000030A8000A128A159E270A128A11AB
:10079800CE2BCE2B0D3083160313A100FB30A00007
:1007A800A00BD42BA10BD42BD92B7C2A7C2A0A1280
:1007B8008A111228013083120313D1070318D20AB1
:1007C8000030D207003086180130F9007908A200FD
:1007D80022085D06031DF12BF22BF42BDC01042CFF
:1007E8000130F9007908DC0723305C02031CFD2B7B
:1007F800FE2B042C2208F9007908DD00DC01042C0A
:100808005A085D060319092C0A2CF92CDD08031D6A
:100818000E2C0F2C652C0730520209300319510297
:10082800031C172C182C4E2C083052029830031930
:1008380051020318202C212C4E2CDB08031D252CDB
:10084800262C292CDB01DB0A4A2C5B08031D2D2CE6
:10085800482C59083B3A031D322C332C482C0230C3
:10086800F9007908DB00CB30F9007908F00008308E
:10087800F1000030F2005E300A128A1570270A1261
:100888008A11FC01FC0A4A2CDB014A2C831203134F
:10089800D901F62C02305202F83003195102031C18
:1008A800562C572C602C03305202AD3003195102DC
:1008B800031C5F2C602CF62CDB01F62CF62CF62C96
:1008C800F62C003052023D3003195102031C6D2CE6
:1008D8006E2C7F2C003052028C3003195102031801
:1008E800762C772C7F2CA00100300A128A153A2624
:1008F8000A128A119F2C0030831203135202A1306E
:1009080003195102031C892C8A2C9C2C003052029A
:10091800F030031951020318922C932C9C2CA0013F
:10092800A00A01300A128A153A260A128A119F2C47
:10093800DB019F2C9F2C831203135B08031DA52C3E
:10094800F32C3C3059020318AA2CAB2CF32C08309A
:10095800F0000030F1005908F900FA017908F200B6
:100968007A08F3000A128A11B9250A128A11700846
:10097800FB007B0883120313A1002008031DC52C6C
:10098800D92C0130F90059080739013ECD2C031044
:10099800F90DFF3E031DCB2C7908FA002108CB3E48
:1009A80084007A0883138004EE2C0130F90059087A
:1009B8000739013EE12C0310F90DFF3E031DDF2C22
:1009C8007908FF3AFA002108CB3E84007A0883139D
:1009D8008005EE2C0130F9007908D907F62CDB01E7
:1009E800F62CF62CD101D201F92C5D08F900790812
:1009F800DA00080083120313AD00F030AC002C08B5
:100A08008805F030AC002C088316031388050511FF
:100A180085108511831203130511851085110A129B
:100A28008A11F4270A128A1130300A128A117E2696
:100A38000A128A1105300A128A155A260A128A11D0
:100A480030300A128A117E260A128A1101300A12DF
:100A58008A155A260A128A1132300A128A117E26FB
:100A68000A128A11382D382D0A128A116A270A1299
:100A78008A110038031D412D422D382D452D452D55
:100A8800452D0A128A116A270A128A110038031D95
:100A98004E2D4F2D452D502D831203132D080A126C
:100AA8008A117E260A128A115A2D5A2D0A128A1183
:100AB8006A270A128A110038031D632D642D5A2DE6
:100AC800652D08300A128A117E260A128A116D2DA8
:100AD8006D2D0A128A116A270A128A110038031D1D
:100AE800762D772D6D2D782D0C300A128A117E26E1
:100AF8000A128A11802D802D0A128A116A270A1279
:100B08008A110038031D892D8A2D802D8B2D0130E7
:100B18000A128A117E260A128A11932D932D0A121F
:100B28008A116A270A128A110038031D9C2D9D2DEF
:100B3800932D9E2D06300A128A117E260A128A11DA
:100B4800A62DA62D0A128A116A270A128A110038C0
:100B5800031DAF2DB02DA62DB12D80300A128A119C
:100B68002B260A128A11B82D0800F601F11FBD2D97
:100B7800BE2DC62DF009F109F00A0319F10AF60194
:100B8800F60AC62DF31FC92DCA2DD42DF209F30973
:100B9800F20A0319F30A0130F4007408F606D42D9A
:100BA800F701F801710870040319DB2DDC2D192EEB
:100BB800F501F50AEB2D01300310F00DF10DFF3EA4
:100BC800031DE02D0130F4007408F507EB2DF11F2B
:100BD800EE2DEF2DDF2DF12DF12D01300310F70D46
:100BE800F80DFF3E031DF22D71087302031DFE2D43
:100BF80070087202031C012E022E0A2E7008F202DF
:100C08007108031CF303F30277140A2E0130031052
:100C1800F10CF00CFF3E031D0B2E0130F502031DF5
:100C2800162E172EF12D192E192E7608031D1D2E9E
:100C3800232EF709F809F70A0319F80A232E78086A
:100C4800F101F1077708F001F0072A2E0800831256
:100C58000313AB00F030A800280883160313880597
:100C6800F03083120313A8002808880580302B046D
:100C7800A8000030A9000430FF00290DA90CA80C19
:100C8800FF0B412E28080F39AA002A0888040511ED
:100C980085100A128A1521260A128A118312031353
:100CA80085150A128A1521260A128A11831203133E
:100CB8008511F030A800280888052B080F39A800EE
:100CC800280888040A128A1521260A128A11831212
:100CD800031385150A128A1521260A128A1183120E
:100CE800031385110F30A8002808831603138804FE
:100CF8007D2E080083120313AA00F030A8002808EC
:100D0800831603138805F03083120313A8002808FC
:100D180088052A08A80004300310A80CFF3E031D0C
:100D2800902E28080F39A900290888040511851074
:100D38000A128A1521260A128A11831203138515AD
:100D48000A128A1521260A128A11831203138511A1
:100D5800F030A800280888052A080F39A8002808B4
:100D680088040A128A1521260A128A11831203138B
:100D780085150A128A1521260A128A11831203136D
:100D880085110F30A8002808831603138804CC2E79
:100D9800080083120313AC01AD01280827040319C6
:100DA800D62ED72E142FAE01AE0AE62E0130031030
:100DB800A70DA80DFF3E031DDB2E0130AB002B084D
:100DC800AE07E62EA81FE92EEA2EDA2EEC2EEC2E20
:100DD80001300310AC0DAD0DFF3E031DED2E2808AC
:100DE8002A02031DF92E27082902031CFC2EFD2EBA
:100DF800052F2708A9022808031CAA03AA022C14F5
:100E0800052F01300310A80CA70CFF3E031D062F69
:100E18000130AE02031D112F122FEC2E142F142FA8
:100E28002D08A801A8072C08A701A7071B2F080051
:100E3800FF1B262F83137F1883170008840A0319C2
:100E4800FF0A080007308A000408840A8207003471
:100E5800013400340A34003464340034E834033490
:100E6800103427342534353475342C342034253463
:100E78003034333475343A342034253463342C34E4
:100E88002034733479346E34633420343D34203460
:100E9800253475340A34003425343034323475340A
:100EA8002D3425343034323475342D3425343034EF
:100EB80034347534203425343034323475343A348B
:100EC80025343034323475340A3400348312031331
:100ED800051585100A128A1521260A128A1183120D
:100EE800031385150A128A1521260A128A118312FC
:100EF8000313881D802F812F982F85110A128A15B8
:100F080021260A128A118312031385150A128A15DB
:100F180021260A128A1183120313851105118817D5
:100F28000130AE2FAE2FAE2F85110A128A15212659
:100F38000A128A118312031385150A128A152126AB
:100F48000A128A11831203138511051188130030C0
:100F5800AE2FAE2F08008312031330082F04031995
:100F6800B62FB72FEC2FB401B40AC62F01300310E7
:100F7800AF0DB00DFF3E031DBB2F0130B30033088A
:100F8800B407C62FB01FC92FCA2FBA2FCC2FCC2F0A
:100F980030083202031DD22F2F083102031CD52F2F
:100FA800D62FDD2F2F08B1023008031CB203B2027E
:100FB800DD2F01300310B00CAF0CFF3E031DDE2FF8
:100FC8000130B402031DE92FEA2FCC2FEC2FEC2FB0
:100FD8003208B001B0073108AF01AF07F32F08009E
:100FE800143083120313A8007930A700A70BFA2F37
:080FF800A80BFA2FFF2F0800DF
:101C4200053083120313A700A70B252E282E0800A8
:101C520064008001840A04060319003404062A2E53
:101C6200831203135B08023A003003190130392E44
:101C72000800F1007108F000700883120313D80005
:101C8200D701D70A080083120313A800A7013A302C
:101C9200280203184D2E4E2E572E30302802031CD8
:101CA200532E542E572EA701A70A572E270C592E12
:101CB200080083120313A9000D30A800FB30A7000F
:101CC200A70B612EA80B612E662E0130831203131F
:101CD200A902031D6D2E6E2E5D2E6F2E0800FC01D3
:101CE200FD0183135130840066300A128A152926B9
:101CF2000A128A15C7308400D3300A128A1529269F
:101D02000A128A1583010A128A11432A83120313C3
:101D12006308A70005300310A70CFF3E031D8C2E9D
:101D220027080739A8002808AA0064080339A70071
:101D320002300310A70DFF3E031D9A2E0310270D3C
:101D4200A8002808A9002A082904A7002708AA0031
:101D52002A08AB2E0800831203136208A70004307E
:101D62000310A70CFF3E031DB12E27080F39A80050
:101D72002808AA0063080339A70003300310A70D3F
:101D8200FF3E031DBF2E0310270DA8002808A9003F
:101D92002A082904A7002708AA002A08D02E08002A
:101DA200831203136108A70005300310A70CFF3E3E
:101DB200031DD62E27080739A8002808AA006208A2
:101DC2000739A70002300310A70DFF3E031DE42EC2
:101DD2000310270DA8002808A9002A082904A70033
:101DE2002708AA002A08F52E0800831203136008A8
:101DF200A70005300310A70CFF3E031DFB2E27088A
:101E02000739A8002808AA0061080F39A700023084
:101E12000310A70DFF3E031D092F0310270DA80075
:101E22002808A9002A082904A7002708AA002A08C6
:101E32001A2F08000C1C1E2F1F2F372F17308E0051
:101E4200FC308F000C100130D5070318D60A003081
:101E5200D6070130D3070318D40A0030D4070A1278
:101E62008A11DE230A128A15372F372F83120313A2
:101E72002608FF0025088A0024088400230E830018
:101E8200FE0E7E0E090083120313AB01AC01492F33
:101E9200271C4C2F4D2F532F2908AB070318AC0AD0
:101EA2002A08AC0701300310A90DAA0DFF3E031D3D
:101EB200542F01300310A80CA70CFF3E031D5B2F0B
:101EC20028082704031D662F672F492F682F2C0827
:101ED200A801A8072B08A701A7076F2F0800F40085
:101EE2007008F3007308F6007408F3007308F50035
:101EF2008C2F7608840083130008F3007508840091
:101F0200730880000130F3007308F6070130F30014
:101F12007308F5078C2F0130F1020030031CF20325
:101F2200F202FF307206031D982FFF307106031D67
:101F32009B2F9C2F7A2F9D2F0800BB2F0C1AA22FAC
:101F4200A32FAB2FF930A9000000A90BA52FA92FB1
:101F52000000BB2F831203132808FF002708840008
:101F62000A128A111C270A128A1599000130A70742
:101F72000318A80A831203132808FF002708840005
:101F82000A128A111C270A128A150038031DCA2F49
:101F9200CB2F9F2FCC2F0800831203136408A900B4
:101FA20002300310A90CFF3E031DD22F29083F392E
:101FB200AA002A08AB0065080339A90005300310FE
:101FC200A90DFF3E031DE02F0310290DAA002A08C8
:101FD200AC002B082C04A900AA012908AD002A088C
:101FE200AE0000302D04AD0020302E04AE002E08CD
:0E1FF200A801A8072D08A701A707FF2F0800C8
:04400E00D4EFFFFFED
:00000001FF
