:060000000A128A11122809
:10000800FE00030E83120313A4000408A5000A08C7
:10001800A6007F08A7000A128A15CA2F0A128A1595
:100028001F2E83120313C7003730BB003B08BE00E6
:10003800FD294808253A0319222823282F2848088B
:10004800BB00470884003B08831380000130BB00D5
:100058003B08C707FD29C501C601C4013B283B2849
:1000680044150130BB003B08B6073B284828360832
:1000780084000A128A1500200A128A11303A0319DC
:100088003428482848283B28360884000A128A154C
:1000980000200A128A110A128A154C260A128A119D
:1000A800031C57285828A52883120313C501C60125
:1000B8005D280A3083120313A8000030A9004608FF
:1000C800AB01AB074508AA01AA070A128A1510272F
:1000D8000A128A11831203132908C601C6072808C1
:1000E800C501C507360884000A128A1500200A12BD
:1000F8008A11D03EBB00FF3003180030BC003B081B
:10010800C5070318C60A3C08C6070130BB003B08F0
:10011800B607360884000A128A1500200A128A11C6
:100128000A128A154C260A128A1103189C289D283F
:100138005D28A528A528A528132ABC28BC28FD29A0
:10014800BC28013083120313B607FF30360784003A
:100158000A128A1500200A128A11C800003A0319E7
:10016800132A643A0319BC280D3A0319BC28FD293F
:10017800831203133E08840083130008C000840A16
:100188000008C1000230BB003B08BE07C11FCD28D4
:10019800CE28D8280330BB003B08C404C009C109D5
:1001A800C00A0319C10AD828C801C80A4808053A6C
:1001B800031DDF28E028E2280A290A294808BB008D
:1001C8003B07013E84000A128A1500200A128A1190
:1001D800BC000A128A1500200A128A11BD003D08C7
:1001E8004102031DF9283C0840020318FC28FD2899
:1001F800FF280A290A290130BB003B08C80748081C
:10020800053A031D08290929E2280A294608450450
:1002180003190F2910291C29440803390319152922
:1002280016291C29FF30C5070318C60AFF30C60760
:100238004808BB00BC01BB1BBC033C08803ABD009E
:100248004608803A3D02031D2B2945083B02031846
:100258002E292F293D29831203134808BB00BC010E
:10026800BB1BBC033B08C5023C08031CC603C602F3
:10027800422983120313C501C6014229441D452999
:10028800462979294408033903194B294C29582947
:100298002D30BB00470884003B08831380000130E1
:1002A800BB003B08C70758294608450403195D29C0
:1002B8005E29AC295F293030BB00470884003B0821
:1002C800831380000130BB003B08C707FF30C50718
:1002D8000318C60AFF30C60746084504031D7529DA
:1002E80076295F29AC29AC29AC29460845040319AD
:1002F8007E297F29992980292030BB00470884005E
:100308003B08831380000130BB003B08C707FF3060
:10031800C5070318C60AFF30C60746084504031D6B
:100328009629972980299929992944080339031975
:100338009E299F29AC292D30BB00470884003B0823
:10034800831380000130BB003B08C707AC29AC29E8
:100358004808BB003B08BF00F1290A30B000003054
:10036800B1003F08BB003B07013E84000A128A1512
:1003780000200A128A11A8000A128A1500200A12FF
:100388008A11A9004108AB01AB074008AA01AA07D6
:100398000A128A1101270A128A11831203132908E3
:1003A800B301B3072808B201B2070A128A119527C8
:1003B8000A128A11831203133008303EBC003C082D
:1003C800C8004808BB00470884003B088313800026
:1003D8000130BB003B08C707F129FF30BB003B08D1
:1003E800BF073F08FF3A031DFA29FB29B129FD2958
:1003F800FD29013083120313B607FF303607840046
:100408000A128A1500200A128A11BB003B08C8008C
:10041800C808031D102A112A1D28132A132A83121B
:10042800031347088400831380011A2A0800013047
:1004380083120313CD070318CE0A0030CE0700300D
:1004480086180130F9007908A20022085406031D15
:100458002E2A2F2A312AD301412A0130F90079089E
:10046800D30723305302031C3A2A3B2A412A220885
:10047800F9007908D400D301412A51085406031918
:10048800462A472A262BD408031D4B2A4C2AA22A7F
:1004980007304E02093003194D02031C542A552A0D
:1004A8008B2A08304E02983003194D0203185D2A32
:1004B8005E2A8B2AD208031D622A632A662AD20181
:1004C800D20A892A5208031D6A2A872A4F083B3A0A
:1004D800031D6F2A702A872A0230F9007908D20092
:1004E8005D30F9007908F0000830F1000030F200C2
:1004F80055300A128A1569270A128A1183120313C2
:10050800D001D00A892AD201892ACF01232B0230AF
:100518004E02F83003194D02031C932A942A9D2A8F
:1005280003304E02AD3003194D02031C9C2A9D2A4C
:10053800232BD201232B232B232B232B00304E02DA
:100548003D3003194D02031CAA2AAB2AB62A0030F3
:100558004E028C3003194D020318B32AB42AB62A66
:10056800A001CE2A00304E02A13003194D02031C0F
:10057800BE2ABF2ACB2A00304E02F03003194D02A2
:100588000318C72AC82ACB2AA001A00ACE2AD2015A
:10059800CE2ACE2A5208031DD22A202B3C304F02E5
:1005A8000318D72AD82A202B0830F0000030F10091
:1005B8004F08F900FA017908F2007A08F3000A12E4
:1005C8008A119E250A128A117008FB007B08831283
:1005D8000313A1002008031DF22A062B0130F9009D
:1005E8004F080739013EFA2A0310F90DFF3E031D93
:1005F800F82A7908FA0021085D3E84007A088313F6
:1006080080041B2B0130F9004F080739013E0E2BDF
:100618000310F90DFF3E031D0C2B7908FF3AFA0071
:1006280021085D3E84007A08831380051B2B013066
:10063800F9007908CF07232BD201232B232BCD01D7
:10064800CE01262B5408F9007908D100080083123E
:1006580003135208023A031D322B332BFE2B551875
:10066800362B372BFE2B571E3A2B3B2BFE2B0A1211
:100678008A11DA270A128A1183120313B00030088C
:10068800B400A80134080A128A15E7260A128A114A
:1006980083120313B0003008B50058081039B000B1
:1006A8003008A80035080A128A152C260A128A1161
:1006B80083120313B1003108B3000A128A15C22647
:1006C8000A128A1183120313B0003008B400A8017B
:1006D80034080A128A15E7260A128A1183120313AC
:1006E800B0003008B50059080839B0003008A80033
:1006F80035080A128A152C260A128A118312031346
:10070800B1003108B300B5010A128A159D260A12F4
:100718008A1183120313B0003008B4003508B00002
:100728003008A80034080A128A15E7260A128A1126
:1007380083120313B1003108B5000A128A153A264C
:100748000A128A1183120313B0003008B400350866
:10075800B0003008A80034080A128A15E7260A12E1
:100768008A1183120313B1003108B5000A128A15E1
:1007780078260A128A1183120313B0003008B400D5
:100788003508B0003008A80034080A128A15E72690
:100798000A128A1183120313B1003108B5000A1234
:1007A8008A1597270A128A11831203132808B000A2
:1007B8003008B4003508B0003008A80034080A1220
:1007C8008A15E7260A128A1183120313B100310829
:1007D800B5005C080439B0003008A80035080A12D2
:1007E8008A152C260A128A1183120313B1003108C4
:1007F800B300FF2BB301B2013308031D042C0B2CEB
:100808005008031D082C0B2CB201B20A0B2C32081D
:10081800B0003008B300D0013308122C080083164A
:1008280003138614831603170911831603139510EF
:100838001730831203138E00FC308F0090101012B3
:100848009012101483160313880185018316031769
:10085800880183120313880128300A128A11E324BD
:100868000A128A118316031396148B150C140B178E
:100878008B17BB01A501402C0A128A112B230A12DF
:100888008A11003A0319492C4A2C9C2C0B308316E8
:100898000313A000200883120313B6000A128A1556
:1008A800C2260A128A1183160313A100A201210885
:1008B80083120313B700831603132208831203134A
:1008C800B8000A128A11DA270A128A11831603134A
:1008D800A300A401230883120313B900831603138A
:1008E800240883120313BA00A5300A128A111520AE
:1008F8000A128A11A5300A128A153C270A128A118F
:1009080000300A128A1110260A128A118C2C8C2C9B
:100918000A128A1150270A128A110038031D952CD1
:10092800962C8C2C972C4030831203138806D32CDA
:10093800163083160313A000200883120313B60091
:10094800520883160313A100A2012108831203137E
:10095800B70083160313220883120313B800A530C7
:100968000A128A1115200A128A11A5300A128A154C
:100978003C270A128A1100300A128A1110260A121C
:100988008A11C72CC72C0A128A1150270A128A11F9
:100998000038031DD02CD12CC72CD32CD32C82305B
:1009A80083160313A100DD30A000A00BD92CA10BE6
:1009B800D92CDE2C402C402C0A128A1112288312C2
:1009C8000313AE00F030AD002D088805F030AD00FF
:1009D8002D088316031388050511851085118312C8
:1009E80003130511851085110A128A1513260A1298
:1009F8008A1130300A128A1163260A128A110530C8
:100A08000A128A1562260A128A1130300A128A11CD
:100A180063260A128A1101300A128A1562260A12FE
:100A28008A1132300A128A1163260A128A111D2D80
:100A38001D2D0A128A1150270A128A110038031D27
:100A4800262D272D1D2D2A2D2A2D2A2D0A128A11F1
:100A580050270A128A110038031D332D342D2A2DF0
:100A6800352D831203132E080A128A1163260A12DF
:100A78008A113F2D3F2D0A128A1150270A128A1116
:100A88000038031D482D492D3F2D4A2D08300A12E4
:100A98008A1163260A128A11522D522D0A128A11BE
:100AA80050270A128A110038031D5B2D5C2D522D28
:100AB8005D2D0C300A128A1163260A128A11652DDF
:100AC800652D0A128A1150270A128A110038031D4F
:100AD8006E2D6F2D652D702D01300A128A11632637
:100AE8000A128A11782D782D0A128A1150270A12B3
:100AF8008A110038031D812D822D782D832D063013
:100B08000A128A1163260A128A118B2D8B2D0A125A
:100B18008A1150270A128A110038031D942D952D29
:100B28008B2D962D80300A128A1110260A128A11EE
:100B38009D2D0800F601F11FA22DA32DAB2DF00964
:100B4800F109F00A0319F10AF601F60AAB2DF31FB1
:100B5800AE2DAF2DB92DF209F309F20A0319F30AE4
:100B68000130F4007408F606B92DF701F801710890
:100B780070040319C02DC12DFE2DF501F50AD02DE5
:100B880001300310F00DF10DFF3E031DC52D01309E
:100B9800F4007408F507D02DF11FD32DD42DC42DE2
:100BA800D62DD62D01300310F70DF80DFF3E031D8D
:100BB800D72D71087302031DE32D70087202031C00
:100BC800E62DE72DEF2D7008F2027108031CF303E0
:100BD800F3027714EF2D01300310F10CF00CFF3EF7
:100BE800031DF02D0130F502031DFB2DFC2DD62D24
:100BF800FE2DFE2D7608031D022E082EF709F80992
:100C0800F70A0319F80A082E7808F101F10777089E
:100C1800F001F0070F2E080083120313AC00F03028
:100C2800A9002908831603138805F03083120313DB
:100C3800A9002908880580302C04A9000030AA00E2
:100C48000430FF002A0DAA0CA90CFF0B262E290838
:100C58000F39AB002B088804051185100A128A1574
:100C680003260A128A118312031385150A128A159C
:100C780003260A128A11831203138511F030A90082
:100C8800290888052C080F39A900290888040A12A0
:100C98008A1503260A128A118312031385150A126C
:100CA8008A1503260A128A118312031385110F303D
:100CB800A9002908831603138804622E08008312EA
:100CC8000313AB00F030A900290883160313880525
:100CD800F03083120313A900290888052B08A900FE
:100CE80004300310A90CFF3E031D752E29080F3987
:100CF800AA002A088804051185100A128A150326F5
:100D08000A128A118312031385150A128A150326FB
:100D18000A128A11831203138511F030A9002908D9
:100D280088052B080F39A900290888040A128A1592
:100D380003260A128A118312031385150A128A15CB
:100D480003260A128A118312031385110F30A90092
:100D58002908831603138804B12E0800831203138D
:100D6800AB00F030A9002908831603138805F0307A
:100D780083120313A900290888052B08A900043049
:100D88000310A90CFF3E031DC42E29080F39AA0021
:100D98002A088804851405110A128A1503260A12DE
:100DA8008A118312031385150A128A1503260A125B
:100DB8008A11831203138511F030A90029088805C8
:100DC8002B080F39A900290888040A128A15032656
:100DD8000A128A118312031385150A128A1503262B
:100DE8000A128A118312031385110F30A9002908EA
:100DF800831603138804002F080083120313AD0120
:100E0800AE012908280403190A2F0B2F482FAF0118
:100E1800AF0A1A2F01300310A80DA90DFF3E031DBC
:100E28000F2F0130AC002C08AF071A2FA91F1D2F58
:100E38001E2F0E2F202F202F01300310AD0DAE0DC9
:100E4800FF3E031D212F29082B02031D2D2F2808E3
:100E58002A02031C302F312F392F2808AA0229080B
:100E6800031CAB03AB022D14392F01300310A90C5E
:100E7800A80CFF3E031D3A2F0130AF02031D452F7A
:100E8800462F202F482F482F2E08A901A9072D08E3
:100E9800A801A8074F2F0800831203130515851012
:100EA8000A128A1503260A128A118312031385155A
:100EB8000A128A1503260A128A1183120313881D3F
:100EC800662F672F7E2F85110A128A1503260A12AC
:100ED8008A118312031385150A128A1503260A122A
:100EE8008A11831203138511051188170130942F75
:100EF800942F942F85110A128A1503260A128A1133
:100F08008312031385150A128A1503260A128A11F9
:100F1800831203138511051188130030942F942F21
:100F28000800831203133108300403199C2F9D2FE6
:100F3800D22FB501B50AAC2F01300310B00DB10D99
:100F4800FF3E031DA12F0130B4003408B507AC2FB4
:100F5800B11FAF2FB02FA02FB22FB22F31083302FD
:100F6800031DB82F30083202031CBB2FBC2FC32F20
:100F78003008B2023108031CB303B302C32F013097
:100F88000310B10CB00CFF3E031DC42F0130B50295
:100F9800031DCF2FD02FB22FD22FD22F3308B1015C
:100FA800B1073208B001B007D92F08008312031324
:100FB8005708A80005300310A80CFF3E031DDF2FBB
:100FC80028080739A9002908AB0058080F39A800D4
:100FD80002300310A80DFF3E031DED2F0310280D4E
:100FE800A9002908AA002B082A04A8002808AB0091
:060FF8002B08FE2F08008B
:1010000008308A000408840A82070034013400345E
:101010000A34003464340034E834033410342734A0
:101020002B3425343034323464343A34253430347B
:0E1030003234643400342D34253464340034FA
:101C0600053083120313A800A80B072E0A2E08001E
:101C160064008001840A04060319003404060C2EAD
:101C2600143083120313A9007930A800A80B192ECB
:101C3600A90B192E1E2E080083134D308400653023
:101C46000A128A150B260A128A1583010A128A11AC
:101C5600132C83120313AA002A082806A9002908B0
:101C6600A800A808003003190130392E0800831295
:101C760003135A08A80002300310A80CFF3E031DE8
:101C86003F2E28080739A9002908AA002A084B2E42
:101C9600080083120313A900A8013A302902031889
:101CA600552E562E5F2E30302902031C5B2E5C2EDD
:101CB6005F2EA801A80A5F2E280C612E0800831249
:101CC6000313AA000D30A900FB30A800A80B692E4B
:101CD600A90B692E6E2E013083120313AA02031D6F
:101CE600752E762E652E772E0800831203135A085A
:101CF600A80005300310A80CFF3E031D7D2E280802
:101D06000739A9002908AB005B080339A80002308F
:101D16000310A80DFF3E031D8B2E0310280DA900EE
:101D26002908AA002B082A04A8002808AB002B08BB
:101D36009C2E0800831203135908A80004300310D0
:101D4600A80CFF3E031DA22E28080F39A90029085A
:101D5600AB005A080339A80003300310A80DFF3E54
:101D6600031DB02E0310280DA9002908AA002B0870
:101D76002A04A8002808AB002B08C12E08008312ED
:101D860003135808A80005300310A80CFF3E031DD6
:101D9600C72E28080739A9002908AB0059080739B2
:101DA600A80002300310A80DFF3E031DD52E031018
:101DB600280DA9002908AA002B082A04A80028082B
:101DC600AB002B08E62E080083120313AB00AC0110
:101DD60008302C02031CF02EF12EF32E0D2F0D2FA2
:101DE6000130A9002C0AF92E0310A90DFF3E031D90
:101DF600F72E29082B052806AA002A08A800013074
:101E0600A9002908AC0708302C02031C0B2F0C2F45
:101E1600F32E0D2F28080F2F080083120313AC0191
:101E2600AD01152F281C182F192F1F2F2A08AC07B4
:101E36000318AD0A2B08AD0701300310AA0DAB0D30
:101E4600FF3E031D202F01300310A90CA80CFF3EF6
:101E5600031D272F29082804031D322F332F152F82
:101E6600342F2D08A901A9072C08A801A8073B2F84
:101E7600080083120313AD005F2F422F422F0A1270
:101E86008A1150270A128A150038031D4B2F4C2F32
:101E9600422F4D2F831203132D088400831300084D
:101EA6000A128A11B2260A128A1501308312031306
:101EB600AC002C08AD075F2F2D0884008313800823
:101EC600031D662F672F422F682F0800F400700845
:101ED600F3007308F6007408F3007308F500852F05
:101EE6007608840083130008F300750884007308DD
:101EF60080000130F3007308F6070130F300730821
:101F0600F507852F0130F1020030031CF203F202BF
:101F1600FF307206031D912FFF307106031D942FAB
:101F2600952F732F962F0800831203135B08AA00C0
:101F360002300310AA0CFF3E031D9C2F2A083F39CE
:101F4600AB002B08AC005C080339AA00053003106F
:101F5600AA0DFF3E031DAA2F03102A0DAB002B0866
:101F6600AD002C082D04AA00AB012A08AE002B08F0
:101F7600AF0000302E04AE0020302F04AF002F0833
:101F8600A901A9072E08A801A807C92F08000C1C3B
:101F9600CD2FCE2FDA2F17308E00FC308F000C108D
:101FA6000A128A111B220A128A15F32FF32F0B1C11
:101FB600DD2FDE2FF32F003086180130A300230813
:101FC600FC00E72FE72FE72F8618EA2FEE2F831264
:101FD60003138817F12F8312031388130B10F32FA3
:101FE600831203132708FF0026088A0025088400A9
:0A1FF600240E8300FE0E7E0E09008B
:04400E00F4EFFFFFCD
:00000001FF
