:020000040000FA
:06000000C5EF2EF0120016
:06000800B4EF2CF0120021
:1000100004011851600BE842E842E842E842E84235
:10002000000901E055D01951070A51E00B0A4FE0D1
:10003000070A40E0010A2CE00B0A28E0020A26E049
:10004000030A22E0080A12E0010A0EE00F0A0AE0A1
:10005000030A01E03CD00001010EE06F0001040E34
:10006000E76F36D036D834D090D832D00001010EA8
:10007000E06F0001E90EE16F000EE26F0001E8930E
:100080000001010EE56F24D0A8D822D0F4D820D0EA
:100090000001010EE06F04011C510001E16FE26BF1
:1000A000EA0EE127000EE2230001E8930001010EB1
:1000B000E56F0ED00001010EE06F04011C51EA6AE9
:1000C000EA0FE96E000EEA221AC4EFFF01D000D059
:1000D0001200800E0401185D57E11B51030A34E041
:1000E000010A10E0030A01E04DD00001010EE06FAB
:1000F0000001280EE16F070EE26F120E0001E56F9E
:10010000E66B40D00001010EE06F04011A51F66E5B
:10011000F76AD890F636F736D60EF626070EF7228F
:100120000900F5CFE1F00A00F5CFE2F0020E000180
:10013000F76AE125F66EE251F7220900F5CFE5F006
:100140000A00F5CFE6F01ED00001010EE06F0401B9
:100150001A51F66EF76AD890F636F736DA0EF626AA
:10016000070EF7220900F5CFE1F00A00F5CFE2F023
:10017000E1C0F6FFE2C0F7FF0800F5500001E56FAF
:10018000E66B00D00001E88312000001010EE06F71
:100190000F0EE66E710EE66E0F0EE66E7FEC03F04C
:1001A000E552E552E552010EE66EEA0EE66E000EED
:1001B000E66E7FEC03F0E552E552E5521AC4E9F031
:1001C00004011A5104E10001050EE76F05D000019A
:1001D000060EE76FE4EC2DF012000401206B216B9A
:1001E000040118511F0B020A14E0030A0EE0010A71
:1001F00001E033D00001010EE06F04012081000115
:10020000E8A102D00401208328D00001010EE06F94
:1002100024D00001010EE06F04011C510F0B080DEA
:10022000F350016A000F006E040E01221C51800B76
:1002300001E0010E040DF35000010024E36F000EF5
:100240000120E46FE3C0E9FFE4C0EAFFEF50040BD4
:1002500003E00401010E206F00D00001E0050AE177
:100260000001200EE16F040EE26F0001E89300012F
:10027000020EE56F120004011A0510E118511F0B60
:1002800000090CE10001010EE06F030E0401195D8D
:1002900003E10001E88102D00001E89104011A5154
:1002A0003AE118511F0B020836E11C510F0B0009EF
:1002B00032E00001010EE06F04011C510F0B080D2C
:1002C000F350016A000F006E040E01221C51800BD6
:1002D00001E0010E040DF35000010024E36F000E55
:1002E0000120E46F030E0401195D07E1840EE3C0F1
:1002F000E9FFE4C0EAFFEF6E0ED01CAF06D0E3C00A
:10030000E9FFE4C0EAFFEF6A06D0880EE3C0E9FF28
:08031000E4C0EAFFEF6E1200E9
:080318006C5002E0000E01D060
:10032000010E00090BE0040100513C0BE842E842D9
:100330000D0802E10CD801D01CD808D06C5002E0A6
:10034000000E01D0010E040901E023D81200D9CF1C
:10035000E6FFE1CFD9FFE6520001DF6BE06BE56B12
:10036000E66B08EC00F0D5D8E552E552E7CFD9FFAF
:100370001200020E0001DF5D0AE192D8040100BD07
:1003800003D0C80E006F02D0880E006F01D007D9CD
:100390001200040E0001E75D0AE11AC46EFF6E5000
:1003A000000803E2050EE76F02D0030EE76F0001BD
:1003B000DF050AE10BD8040104BD03D0C80E046FA9
:1003C00002D0880E046F01D0EAD81200D9CFE6FF20
:1003D000E1CFD9FF020EE1260001080EE55D000E17
:1003E000E65905E2E5C0DEFFE6C0DDFF03D0080EFA
:1003F000DE6EDD6A040104930491010EDB500413E8
:10040000DFCF05F4000EDB500001E55F010EDB508D
:10041000E65B200EE36F040EE46F0001E8A31ED03C
:10042000D9CFE9FFDACFEAFFEE50ED1016E0E1C0D8
:10043000F6FFE2C0F7FF0800F550E3C0E9FFE4C0B3
:10044000EAFFEF6E0001E32B000EE423E12BE22331
:10045000DF06010E01E2DB06E3D71CD0D9CFE9FFAE
:10046000DACFEAFFEE50ED1015E0E1C0E9FFE2C09F
:10047000EAFFEF50E3C0E9FFE4C0EAFFEF6E0001DE
:10048000E32B000EE423E12BE223DF06010E01E261
:10049000DB06E4D7D9CFE1FFE552E7CFD9FF120061
:1004A000D9CFE6FFE1CFD9FF020EE126030E04010A
:1004B0000015E76E010EE7CFDBFF01C4DFFFDE5062
:1004C0000001E527DD50E623200EE16F040EE26F08
:1004D000D9CFE9FFDACFEAFFEE50ED1014E0E1C02A
:1004E000E9FFE2C0EAFFEF50E3C0E9FFE4C0EAFF42
:1004F000EF6EE32B000EE423E12BE223DF06010E77
:1005000001E2DB06E5D7D9CFE1FFE552E7CFD9FF1E
:1005100012000001E0510CE10401080E016F180EF9
:10052000026F040E036F840E006F0401046F35D058
:10053000040118AF22D00001E55104011E5D000145
:10054000E65104011F5904E21EC4E5F01FC4E6F0A1
:100550003DDF0001010EDF6F0401080E016F180E70
:10056000026F040E036F800E006F0401200E066FF1
:10057000040E076FC80E046F10D00001020EDF6F6B
:100580000401056BC80E046F0401080E016F200EF4
:10059000026F040E036FC80E006F6D981200000109
:1005A000DF6B0401080E016F180E026F040E036F5B
:0A05B000880E006F0401046B1200B6
:0605BA006DA60CD8000143
:1005C000E70508E16DBA06D0686A696A69806988DA
:1005D000020EE76F12006D6A696A6D860001010EF6
:1005E000E76F12006D6A696A0001E76B1200F2EFB3
:1005F00002F00001E75101E13AD06850040B04E039
:100600006950040B01E038D86DB231D06850010B4D
:1006100004E06950010B01E050D86850100B04E071
:100620006950100B01E024D86850400B04E0695079
:10063000400B01E037D86850200B04E06950200BD4
:1006400001E032D86850020B04E06950020B01E06F
:1006500032D8030E0001E75D01E209D06850080BB3
:1006600006E06950080B03E08CEC01F0689612007C
:10067000698468986D8212006D9269946894120082
:100680000001E8A10ED0F8DF6D840001080EEB6FC9
:10069000070EEC6FEB07000EEC5BEB51EC11FAE18F
:1006A0006D941200689C120070A003D0CFEC02F091
:1006B0007090689A1200689212006A6A686A9F0EC7
:1006C0006B6E7B0E696E6E6A0F0EE66E710EE66ED5
:1006D0000F0EE66E14D8E552E552E552160E706E16
:1006E00068A602D06896FCD76D98CFEC02F00001A6
:1006F000E8910001E96B0001030EE76F1200D9CF0A
:10070000E6FFE1CFD9FFFD0EDBCFE9FFFE0EDBCF29
:10071000EAFFFC0EDB5004E0EE6AFC0EDB06F9D7C4
:08072000E552E7CFD9FF1200FA
:080728001201000200000008AC
:10073000D80400520000010200010902200001015A
:1007400000803209040000020000000007050103D8
:10075000FF002007058103FF002004030904340380
:1007600053006900730070006900630020002000DE
:100770002000200054006500630068006E006F00D8
:100780006C006F0067007900200049006E00630074
:100790002E00440347005200410042004100440043
:1007A0004F005200200054004F0044004F00500002
:1007B000490043002D005500530042002000730003
:1007C00075006D006D006500720020003200300081
:1007D0003000350020003A073A075A075E079207B3
:1007E000FF0EE350226E480E01D04C0EE76EE72E4E
:1007F000FED7E76AE72EFED7222EF7D700001200B9
:04080000332E353529
:020808001200DC
:02080A000000EC
:020818001200CC
:06081A00D9CFE6FFE1CF9B
:10082000D9FFE652FE0EDBCFE6FF95EC2BF0E5524A
:10083000FE0EDB407F0BE76EFE0EE7CFDBFFFE0E0A
:10084000DBCFE6FF95EC2BF0E552FE0EDB407F0B95
:10085000E76EFE0EE7CFDBFFFE0EDBCFE6FF95EC8B
:100860002BF0E552FE0EDB407F0BE76EFE0EE7CF6E
:10087000DBFFFE0EDBCFE6FF95EC2BF0E552FE0E24
:10088000DB407F0BE76EFE0EE7CFDBFFFE0EDBCF1C
:10089000E6FF95EC2BF0E552FE0EDB407F0BE76E9A
:1008A000FE0EE7CFDBFFFE0EDBCFE6FF95EC2BF075
:1008B000E552E552E552E7CFD9FF1200D9CFE6FF66
:1008C000E1CFD9FF020EE126FD0EDBCFDEFFDBCF4D
:1008D000DDFFE66A95EC2BF0E552DFCFE6FF95EC05
:1008E0002BF0E552DF407F0BDF6EDFCFE6FF95ECAC
:1008F0002BF0E552DF407F0BDF6EDFCFE6FF95EC9C
:100900002BF0E552DF407F0BDF6EDFCFE6FF95EC8B
:100910002BF0E552DF407F0BDF6EDFCFE6FF95EC7B
:100920002BF0E552DF407F0BDF6EDFCFE6FF95EC6B
:100930002BF0E552DF407F0BDF6EDFCFE6FF95EC5B
:100940002BF0E552DF407F0BDF6EDFCFE6FF95EC4B
:100950002BF0E552DF407F0BDF6E010EDBCFE6FFB1
:1009600095EC2BF0E552010EDB407F0BE76E010E9C
:10097000E7CFDBFFDBCFE6FF95EC2BF0E552010E76
:10098000DB407F0BE76E010EE7CFDBFFDBCFE6FF3F
:1009900095EC2BF0E552010EDB407F0BE76E010E6C
:1009A000E7CFDBFFDBCFE6FF95EC2BF0E552010E46
:1009B000DB407F0BE76E010EE7CFDBFFDBCFE6FF0F
:1009C00095EC2BF0E552010EDB407F0BE76E010E3C
:1009D000E7CFDBFFDBCFE6FF95EC2BF0E552E66AD5
:1009E00095EC2BF0E552D9CFE1FFE552E7CFD9FFE7
:1009F00012000001606B616BB3EC2BF0B3EC2BF0D9
:100A000000016011606FB3EC2BF0E824000160116D
:100A1000606FB3EC2BF0040DF35000016011606FB8
:100A2000B3EC2BF0080DF35000016011606FB3ECD4
:100A30002BF0100DF35000016011606FB3EC2BF040
:100A4000200DF35000016011606FB3EC2BF0400DEE
:100A5000F35000016011606FB3EC2BF0800DF35088
:100A600000016011606FB3EC2BF000016111616F48
:100A7000B3EC2BF0E82400016111616FB3EC2BF0B3
:100A8000040DF35000016111616FB3EC2BF0080D00
:100A9000F35000016111616FB3EC2BF0100DF350B6
:100AA00000016111616FB3EC2BF0200DF3500001D8
:100AB0006111616FB3EF2BF005C76BF0CAEC2BF03F
:100AC000E66AABDEE552E6683F0EE66EF7DEE5521B
:100AD000E5520001060E6D6F6D51000807E2060E2B
:100AE000E66E9BDEE55200016D07F6D7040EE66E5A
:100AF00094DEE5527EDFE3EC2BF060C010F761C0BE
:100B000011F7070110511119126F030EE66E3DEC3B
:100B10002CF0E5521200D9CFE6FFE1CFD9FF0C0E41
:100B2000E1260B0E03C7DBFF04C7DFFF020E06C77B
:100B3000DBFF050E00016C5D01E069D10701055185
:100B40000001D36FD46BD3C0D4F0D36BFF0ED32787
:100B5000000ED423030EDB6A040EDB6A030EDBCF28
:100B600000F0040EDBCF01F000010050D35D015016
:100B7000D4590AE3060EE66E50DEE552030EDB2A78
:100B8000040E01E3DB2AEAD7040EE66E46DEE552E8
:100B900030DF050E60C0DBFF060E61C0DBFF050E17
:100BA000DBCF10F7DBCF00F0060EDBCF01F001C08A
:100BB00000F0016A00C011F7070100511119126F0E
:100BC000030EE66E3DEC2CF0E552030EDB6A040EDC
:100BD000DB6AD950030FE96EDACFEAFF040ED88042
:100BE000EE54000EED540AE3060EE66E16DEE552F4
:100BF000030EDB2A040E01E3DB2AEBD7040EE66EBC
:100C00000CDEE552F6DE090E60C0DBFF0A0E61C0A5
:100C1000DBFF090EDBCF10F7DBCF00F00A0EDBCFD6
:100C200001F001C000F0016A00C011F70701005196
:100C30001119126F030EE66E3DEC2CF0E552E3EC59
:100C40002BF0CAEC2BF0030EDB6A040EDB6A030EFA
:100C5000DBCF00F0040EDBCF01F0010E0001036AD0
:100C6000D325026ED45103220050025C0150035878
:100C70000AE3060EE66ED1DDE552030EDB2A040E12
:100C800001E3DB2AE4D7090EE66EC7DDE552780EF4
:100C9000E66EF0EC03F0E552020EDB50030858E17B
:100CA000E3EC2BF0CAEC2BF0030EDB6A040EDB6ADC
:100CB000030EDBCF00F0040EDBCF01F0000100508B
:100CC000D35D0150D4590AE3060EE66EA6DDE55267
:100CD000030EDB2A040E01E3DB2AEAD7020EE66EDE
:100CE0009CDDE552050EDBCFE6FF060EDBCFE6FF0F
:100CF000E5DDE552E552080EE66E8FDDE552180E91
:100D0000E66EF0EC03F0E5520E0EE66E86DDE5527F
:100D1000040EE66E82DDE5526CDE60C000F061C05C
:100D200001F0050EDB50001803E1060EDB50011840
:100D300008E00701106B010EE66E3DEC2CF0E55269
:100D4000DBD20701010E106FE66E3DEC2CF0E55290
:100D5000E3EC2BF0CAEC2BF0030EDB6A040EDB6A2B
:100D6000030EDBCF00F0040EDBCF01F0050E000117
:100D7000036AD325026ED45103220050025C015055
:100D800003580AE3060EE66E48DDE552030EDB2A41
:100D9000040E01E3DB2AE4D7020EE66E3EDDE552E7
:100DA000090EDBCFE6FF0A0EDBCFE6FF87DDE5525B
:100DB000E552080EE66E31DDE552180EE66EF0ECF7
:100DC00003F0E5520E0EE66E28DDE552040EE66EE7
:100DD00024DDE5520EDE60C000F061C001F0090EB6
:100DE000DB50001803E10A0EDB50011808E0070190
:100DF000106B010EE66E3DEC2CF0E5527DD2070142
:100E0000010E106FE66E3DEC2CF0E55275D26C05CC
:100E100001E068D1020EE66E00DDE552040EE66EDA
:100E2000E66A4CDDE552E552030EDB6A040EDB6A2E
:100E3000030EDBCF00F0040EDBCF01F0FF0E005CF1
:100E4000030E01580AE2060EE66EE7DCE552030ED9
:100E5000DB2A040E01E3DB2AEBD7040EE66EDDDCB1
:100E6000E552C7DD050E60C0DBFF060E61C0DBFF8B
:100E7000050EDBCF10F7DBCF00F0060EDBCF01F065
:100E800001C000F0016A00C011F7070100511119FB
:100E9000126F030EE66E3DEC2CF0E552E3EC2BF006
:100EA000CAEC2BF0E66AB9DCE552040EE66EE66A9F
:100EB00005DDE552E552030EDB6A040EDB6A030E24
:100EC000DBCF00F0040EDBCF01F0070E005C200E3C
:100ED00001580AE2060EE66EA0DCE552030EDB2A9C
:100EE000040E01E3DB2AEBD7040EE66E96DCE55236
:100EF00080DD070E60C0DBFF080E61C0DBFF070E60
:100F0000DBCF00F0080EDBCF01F0000E0016300E34
:100F10000116070E00C0DBFF080E01C0DBFF070E45
:100F2000DBCF10F7DBCF00F0080EDBCF01F001C004
:100F300000F0016A00C011F7070100511119126F8A
:100F4000030EE66E3DEC2CF0E552DCD9020EDB50D0
:100F5000030801E0C6D0E3EC2BF0CAEC2BF0030E43
:100F6000DB6A040EDB6A030EDBCF00F0040EDBCF7E
:100F700001F0FF0E005C030E01580AE2060EE66E59
:100F80004CDCE552030EDB2A040E01E3DB2AEBD72F
:100F9000020EE66E42DCE552050EDBCFE6FF060EE2
:100FA000DBCFE6FF8BDCE552E552080EE66E35DC62
:100FB000E552780EE66EF0EC03F0E552040EE66EB4
:100FC0002CDCE55216DD60C000F061C001F0050EBA
:100FD000DB50001803E1060EDB50011808E00701A2
:100FE000106B010EE66E3DEC2CF0E55285D1070149
:100FF000010E106FE66E3DEC2CF0E552E3EC2BF0A9
:10100000CAEC2BF0E66A09DCE552E6683F0EE66EB4
:1010100055DCE552E552030EDB6A040EDB6A030E73
:10102000DBCF00F0040EDBCF01F0070E005C200EDA
:1010300001580BE2060EE66E0DEC04F0E552030ECD
:10104000DB2A040E01E3DB2AEAD7020EE66E0DEC82
:1010500004F0E552070EDBCF00F0080EDBCF01F005
:10106000FF0E00120F0E0112030E00C0DBFF040E74
:1010700001C0DBFF030EDBCFE6FF040EDBCFE6FF94
:101080001DDCE552E552080EE66E0DEC04F0E5526B
:10109000600EE66EF0EC03F0E552040EE66E0DEC29
:1010A00004F0E552A6DC000E00016015006E300E63
:1010B0006115016E070EDB50001803E1080EDB50CE
:1010C000011808E00701106B010EE66E3DEC2CF0F4
:1010D000E55212D10701010E106FE66E3DEC2CF0C7
:1010E000E5520AD1020E6C5D30E10CD90B0EDB0427
:1010F0002BE1CAEC2BF0E66A0DEC04F0E552E66851
:101100003F0EE66E5EEC04F0E552E552010EDB6A3E
:10111000DF50F36E010EDBCFF4FFF350F45C08E216
:10112000060EE66E0DEC04F0E552010EDB2AF0D758
:10113000090EE66E0DEC04F0E552780EE66EF0EC6A
:1011400003F0E552E3EC2BF0D7D0030E6C5D1BE10E
:10115000E66A0DEC04F0E552E6683F0EE66E5EECE2
:1011600004F0E552E5521F0EE66E0DEC04F0E55278
:10117000F00EE66EF0EC03F0E552170EE66E0DECA5
:1011800004F0E552B9D0040E6C5D1BE1E66A0DEC8B
:1011900004F0E552E66A200EE66E5EEC04F0E552DD
:1011A000E552090EE66E0DEC04F0E552F00EE66E27
:1011B000F0EC03F0E552780EE66EF0EC03F0E55249
:1011C0009BD06C5101E098D0E66A0DEC04F0E5523A
:1011D000E6683F0EE66E5EEC04F0E552E552DF6A2B
:1011E000070EDF5C07E2060EE66E0DEC04F0E5523A
:1011F000DF2AF6D7020EE66E0DEC04F0E552000E83
:10120000E66EE66A5EEC04F0E552E552080EE66E24
:101210000DEC04F0E552F00EE66EF0EC03F0E55252
:10122000CAEC2BF0E66A0DEC04F0E552E6683F0EDE
:10123000E66E5EEC04F0E552E552DF6A070EDF5C15
:1012400007E2060EE66E0DEC04F0E552DF2AF6D753
:10125000010EE66E0DEC04F0E552070EE66E0DECA5
:1012600004F0E552080EE66E0DEC04F0E552780E3F
:10127000E66EF0EC03F0E552010EE66E0DEC04F0C4
:10128000E552070EE66E0DEC04F0E552CAEC2BF0C9
:10129000E66A0DEC04F0E552E6683F0EE66E5EECA1
:1012A00004F0E552E552DF6A070EDF5C07E2060E46
:1012B000E66E0DEC04F0E552DF2AF6D7010EE66E7D
:1012C0000DEC04F0E552070EE66E0DEC04F0E5526D
:1012D000080EE66E0DEC04F0E552F00EE66EF0EC52
:1012E00003F0E552010EE66E0DEC04F0E552070E38
:1012F000E66E0DEC04F0E552D9CFE1FFE552E7CF01
:10130000D9FF1200020EE66E0DEC04F0E552E66A1B
:10131000200EE66E5EEC04F0E552E552090EE66E34
:101320000DEC04F0E552780EE66EF0EC03F0E552B9
:10133000CAEC2BF0030EE66E0DEC04F0E552E66805
:101340003F0EE66E5EEC04F0E552E5520B0EE66EE3
:101350000DEC04F0E552780EE66EF0EC03F0E55289
:10136000CAEC2BF0E66A0DEC04F0E552E6683F0E9D
:10137000E66E5EEC04F0E552E552090EE66E0DEC09
:1013800004F0E552780EE66EF0EC03F0E552120040
:1013900005C76BF002C773F003C774F0CAEC2BF0FB
:1013A000070107051AE1E66A0DEC04F0E552E6686C
:1013B0003F0EE66E5EEC04F0E552E55204C76DF0B8
:1013C00000016D510AE0060EE66E0DEC04F0E552E8
:1013D00000016D0500016D6FF3D70001716B726B39
:1013E000000171510001735D0001725100017459D7
:1013F00056E300016E6B00016D6B7C0E00016D5DAC
:1014000035E006C7E6FF0DEC04F0E552F9EC04F018
:1014100000016E51EA6A000FE96E060EEA2260C012
:10142000EFFF00016E2B00016E51EA6A000FE96EBA
:10143000060EEA2261C0EFFF060EE66E0DEC04F028
:10144000E5520001712B000E722300017151000161
:10145000735D000172510001745903E200016D2BAC
:1014600005D000016E2B00016D2BC7D7050100517F
:10147000006E016AFF0E001801E1015001E10FD07A
:101480006DC0FEF65EEC2CF005010051006E016AA5
:10149000FF0E001801E1015001E101D0A1D7E3ECFA
:1014A0002BF01200D9CFE6FFE1CFD9FF090EE126DC
:1014B00002C773F003C774F004C76DF0030E05C7CD
:1014C000DBFF010E06C7DBFF07C775F0D950030F1E
:1014D000E96EDACFEAFFEF50010B00016B6FD950D4
:1014E000030FE96EDACFEAFFEF50020B01E0010EC5
:1014F000E76E060EE7CFDBFFD950030FE96EDACFB8
:10150000EAFFEF50040B01E0010EE76E070EE7CF94
:10151000DBFFD950030FE96EDACFEAFFEF50080B7B
:1015200001E0010EE76E050EE7CFDBFFD950030F98
:10153000E96EDACFEAFFEF50100B01E0010EE76E23
:10154000040EE7CFDBFFD950030FE96EDACFEAFFD5
:10155000EF50200B01E0010EE76E080EE7CFDBFF36
:1015600020EC2CF000C776F001C777F0CAEC2BF026
:10157000050EDB0419E100010A0E756FE66A0DEC39
:1015800004F0E552E6683F0EE66E5EEC04F0E552CC
:10159000E55200016D5108E0060EE66E0DEC04F018
:1015A000E55200016D07F5D7010EDB50040803E199
:1015B000020EDF6E02D0030EDF6E060EDB500FE070
:1015C000040EDB0406E1080EF36E020EF3CFDBFF20
:1015D00005D0180EF36E020EF3CFDBFF0ED0080E0F
:1015E000DB0406E1180EF36E020EF3CFDBFF05D02D
:1015F000080EF36E020EF3CFDBFF0001716B726B0E
:1016000072EC2CF00001850501E1D9D071C000F029
:1016100072C001F0026A036A00016651005C0001B9
:10162000675101580001685102580001695103587F
:1016300019E200016D6B7C0E00016D5D08E2060E83
:10164000E66E0DEC04F0E55200016D2BF4D77C0E34
:10165000000171250001716F000E0001722100016F
:10166000726FD4D700016E6B00016F6B0001645183
:1016700000016F5D01E38ED000016E51EA6A000F38
:10168000E96E050EEA22EFCF78F000016E2B000123
:101690006E51EA6A000FE96E050EEA22EFCF79F08B
:1016A00000016E2B000176510001781904E1000160
:1016B00077510001791966E0DFCFE6FF0DEC04F009
:1016C000E55278C0E6FF79C0E6FF5EEC04F0E55233
:1016D000E552020EDBCFE6FF0DEC04F0E5520C0EF6
:1016E00000017503F350E66EF0EC03F0E552060ED0
:1016F000DB0406E1170EE66E0DEC04F0E55208D0AF
:10170000070EDB0405E10E0EE66E0DEC04F0E5526B
:10171000010EDBCFE6FF0DEC04F0E552F9EC04F02E
:101720000001785100017615006E00016051000142
:101730007615005C0BE10001795100017715016E0F
:101740000001615100017715015C1CE00701010EE9
:10175000106F71C011F772C000F0016A00C012F77B
:101760006FC013F778C014F779C015F760C016F78B
:1017700061C017F7E3EC2BF0100EE66E3DEC2CF099
:10178000E55226D0060EE66E0DEC04F0E55200019F
:101790006F2B6CD704010969400E0401081704017E
:1017A000087D880E040108137C0E000171250001DC
:1017B000716F000E000172210001726F21D7E3ECFE
:1017C0002BF00701106B100EE66E3DEC2CF0E5528D
:1017D000D9CFE1FFE552E7CFD9FF1200D9CFE6FF1D
:1017E000E1CFD9FFFE0EDBCFE6FF95EC2BF0E55203
:1017F000FE0EDB407F0BE76EFE0EE7CFDBFFFE0E3B
:10180000DBCFE6FF95EC2BF0E552FE0EDB407F0BC5
:10181000E76EFE0EE7CFDBFFFE0EDBCFE6FF95ECBB
:101820002BF0E552FE0EDB407F0BE76EFE0EE7CF9E
:10183000DBFFFE0EDBCFE6FF95EC2BF0E552E55229
:10184000E7CFD9FF1200D9CFE6FFE1CFD9FF020ED3
:10185000E126FD0EDBCFDEFFDBCFDDFFDFCFE6FFD6
:1018600095EC2BF0E552DF407F0BDF6EDFCFE6FF1C
:1018700095EC2BF0E552DF407F0BDF6EDFCFE6FF0C
:1018800095EC2BF0E552DF407F0BDF6EDFCFE6FFFC
:1018900095EC2BF0E552DF407F0BDF6EDFCFE6FFEC
:1018A00095EC2BF0E552DF407F0BDF6EDFCFE6FFDC
:1018B00095EC2BF0E552DF407F0BDF6EDFCFE6FFCC
:1018C00095EC2BF0E552DF407F0BDF6EDFCFE6FFBC
:1018D00095EC2BF0E552DF407F0BDF6E010EDBCF86
:1018E000E6FF95EC2BF0E552010EDB407F0BE76E37
:1018F000010EE7CFDBFFDBCFE6FF95EC2BF0E552E7
:10190000010EDB407F0BE76E010EE7CFDBFFDBCF85
:10191000E6FF95EC2BF0E552010EDB407F0BE76E06
:10192000010EE7CFDBFFDBCFE6FF95EC2BF0E552B6
:10193000010EDB407F0BE76E010EE7CFDBFFDBCF55
:10194000E6FF95EC2BF0E552010EDB407F0BE76ED6
:10195000010EE7CFDBFFDBCFE6FF95EC2BF0E55286
:10196000010EDB407F0BE76E010EE7CFDBFFDBCF25
:10197000E6FF95EC2BF0E552010EDB407F0BE76EA6
:10198000010EE7CFDBFFDBCFE6FF95EC2BF0E55256
:10199000D9CFE1FFE552E7CFD9FF12000001606B1C
:1019A000616BB3EC2BF000016011606FB3EC2BF0B6
:1019B000E82400016011606FB3EC2BF0040DF350CC
:1019C00000016011606FB3EC2BF0080DF3500001C3
:1019D0006011606FB3EC2BF0100DF350000160113B
:1019E000606FB3EC2BF0200DF35000016011606FBD
:1019F000B3EC2BF0400DF35000016011606FB3ECBD
:101A00002BF0800DF35000016011606FB3EC2BF0F0
:101A100000016111616FB3EC2BF0E824000161114A
:101A2000616FB3EC2BF0040DF35000016111616F95
:101A3000B3EC2BF0080DF35000016111616FB3ECB2
:101A40002BF0100DF35000016111616FB3EC2BF01E
:101A5000200DF35000016111616FB3EC2BF0400DCC
:101A6000F35000016111616FB3EC2BF0800DF35066
:101A700000016111616F1200D9CFE6FFE1CFD9FFFC
:101A8000020EE126090EE66EA9DEE55287DF61C08F
:101A900062F0090EE66EA2DEE55280DF61C063F0FF
:101AA000D9CFE1FFE552E7CFD9FF1200D9CFE6FF4A
:101AB000E1CFD9FFE66A92DEE552FE0EDB50006E02
:101AC000016A00500E0E011200C0E6FF01C0E6FFE1
:101AD000BADEE552E552E66A81DEE552F80EE66EC0
:101AE0006E0EE66EB0DEE552E552E66A77DEE5524E
:101AF000FD0EDB50006E016A00500E0E011200C098
:101B0000E6FF01C0E6FF9FDEE552E552E66A66DECB
:101B1000E552F70EE66E6E0EE66E95DEE552E55284
:101B2000E66A5CDEE552FC0EDB50006E016A005096
:101B30000E0E011200C0E6FF01C0E6FF84DEE55292
:101B4000E552E66A4BDEE552F60EE66E6E0EE66E86
:101B50007ADEE552E552E552E7CFD9FF1200D9CF40
:101B6000E6FFE1CFD9FF0F0EE66E38DEE552FD0E3F
:101B7000DBCFE6FFFE0EDBCFE6FF65DEE552E5528A
:101B8000819081820000000000008192000000002E
:101B9000000081820000000000008192000000002F
:101BA000000081820000000000008192000000001F
:101BB000000081820000000000000C0E000175038F
:101BC000F350E66EF0EC03F0E55281920000000065
:101BD00000008182000000000000000EE66EE66A50
:101BE00032DEE552E5528192E552E7CFD9FF12008D
:101BF000D9CFE6FFE1CFD9FFE652DF6A030EDF5C03
:101C000037E278C0E6FF79C0E6FFA9DFE552E5528A
:101C1000E66AE4DDE552F60EE66E2A0EE66E13DEA7
:101C2000E552E55278C0E6FF79C0E6FF98DFE5525D
:101C3000E5520001650507E178C0E6FF79C0E6FFDF
:101C40008EDFE552E552E66AC9DDE552F60EE66E34
:101C5000060EE66EF8DDE552E5520EDF0001625138
:101C6000781902E16351791901E102D0DF2AC6D760
:101C700000016251781902E16351791903E0000E05
:101C800003D002D0010E00D0E552E552E7CFD9FFD4
:101C9000120005C76BF0CAEC2BF0FE0EE66EE6688C
:101CA0003F0EE66E03DFE552E552E552E5DE62C027
:101CB00010F763C011F7070110511119126F030ECD
:101CC000E66E3DEC2CF0E552E3EF2BF07F0E0001C9
:101CD0006C5D5DE1E66A82DDE5523C0EE66E0E0E5D
:101CE000E66EB1DDE552E552E66A78DDE552F80EC2
:101CF000E66E6E0EE66EA7DDE552E552E66A6EDD33
:101D0000E552E66A0E0EE66E9EDDE552E552E66AA3
:101D100065DDE552F70EE66E6E0EE66E94DDE55279
:101D2000E552E66A5BDDE552040EE66E0E0EE66EE7
:101D30008ADDE552E552E66A51DDE552F60EE66EC1
:101D40006E0EE66E80DDE552E5520C0EE66E46DD67
:101D5000E552800EE66EE66A76DDE552E552E66A09
:101D60003DDDE552000EE66EE66A6DDDE552E552B8
:101D7000E66A34DDE552000EE66EE66A64DDE552A1
:101D8000E552F00EE66EF0EC03F0E552A5D07E0EC3
:101D90006C5D01E0A1D0E66A21DDE5523C0EE66E05
:101DA0000E0EE66E50DDE552E552E66A17DDE552AD
:101DB000F80EE66E6E0EE66E46DDE552E552E66A18
:101DC0000DDDE552E66A0E0EE66E3DDDE552E552AA
:101DD000E66A04DDE552F70EE66E6E0EE66E33DD62
:101DE000E552E552E66AFADCE552050EE66E0E0EA5
:101DF000E66E29DDE552E552E66AF0DCE552F60EC4
:101E0000E66E6E0EE66E1FDDE552E5520C0EE66ED6
:101E1000E5DCE5520F0EE66EE66E15DDE552E552A5
:101E2000E66ADCDCE5523C0EE66E0E0EE66E0BDD7D
:101E3000E552E552E66AD2DCE552F80EE66E6E0E29
:101E4000E66E01DDE552E552E66AC8DCE552E66A77
:101E50000E0EE66EF8DCE552E552E66ABFDCE552AE
:101E6000F70EE66E6E0EE66EEEDCE552E552E66AC1
:101E7000B5DCE552040EE66E0E0EE66EE4DCE552CD
:101E8000E552E66AABDCE552F60EE66E6E0EE66EE5
:101E9000DADCE552E5520C0EE66EA0DCE552870E68
:101EA000E66EE66ED0DCE552E552E66A97DCE55276
:101EB000000EE66EE66AC7DCE552E552E66A8EDCA5
:101EC000E552000EE66EE66ABEDCE552E552F00E23
:101ED000E66EF0EC03F0E552120007C76BF002C7A4
:101EE00073F003C774F0CAEC2BF006C7E6FF05C712
:101EF000E6FF04C7E6FFDADDE552E552E5520001F0
:101F0000716B726B000173510001715D00017451BE
:101F1000000172594CE200016E6B00016D6B7C0E8A
:101F200000016D5D2BE0A8DD00016E51EA6A000F33
:101F3000E96E060EEA2262C0EFFF00016E2B00017F
:101F40006E51EA6A000FE96E060EEA2263C0EFFFE7
:101F5000000173510001711904E100017451000185
:101F6000721903E100016D2B09D00001712B000EE5
:101F7000722300016E2B00016D2BD1D7050100519A
:101F8000006E016AFF0E001801E1015001E10FD05F
:101F90006DC0FEF65EEC2CF005010051006E016A8A
:101FA000FF0E001801E1015001E101D0ABD7E3ECD5
:101FB0002BF0120007C76BF004C765F0CAEC2BF0DA
:101FC00002C773F003C774F0E66A08DCE552A60E98
:101FD000E66E9E0EE66E37DCE552E552E66AEEEC02
:101FE0000BF0E552A60EE66E9C0EE66E2CDCE5527A
:101FF000E5520001716B726B000173510001715D5C
:10200000000174510001725901E3C1D000016E6BEF
:1020100000016D6B7C0E00016D5D01E19FD0E66AF1
:10202000EEEC0BF0E55200017151006E016A0050B8
:102030000E0E011200C0E6FF01C0E6FF23EC0CF01B
:10204000E552E552E66AEEEC0BF0E552A90EE66EBB
:102050006E0EE66E23EC0CF0E552E552E66AEEEC0D
:102060000BF0E55272C000F0016A00500E0E011232
:1020700000C0E6FF01C0E6FF23EC0CF0E552E5529C
:10208000E66AEEEC0BF0E552AA0EE66E6E0EE66E18
:1020900023EC0CF0E552E552E66AEEEC0BF0E5526B
:1020A000A60EE66E800EE66E23EC0CF0E552E552CD
:1020B000E66AEEEC0BF0E552A80EE66E500EE66E08
:1020C00023EC0CF0E552E552E66AEEEC0BF0E5523B
:1020D000F50EE66E6E0EE66E23EC0CF0E552E55260
:1020E000000165510BE0E66AEEEC0BF0E552000EE4
:1020F000E66EE66A23EC0CF0E552E552020EE66E5F
:10210000EEEC0BF0E5524ADC00016E51EA6A000F7A
:10211000E96E060EEA2261C0EFFF00016E2B00019E
:102120006E51EA6A000FE96E060EEA2260C0EFFF08
:10213000000173510001711904E1000174510001A3
:10214000721903E100016D2B09D00001712B000E03
:10215000722300016E2B00016D2B5CD7050100512D
:10216000006E016AFF0E001801E1015001E10FD07D
:102170006DC0FEF65EEC2CF005010051006E016AA8
:10218000FF0E001801E1015001E101D035D7E3EC69
:102190002BF01200D9CFE6FFE1CFD9FF040EE126E4
:1021A00002C773F003C774F0010E04C7DBFF05C755
:1021B000DFFF020E06C7DBFF07C775F0D950020F1D
:1021C000E96EDACFEAFFEF50010B00016B6FD950D7
:1021D000020FE96EDACFEAFFEF50020B01E0010EC9
:1021E0000001656FCAEC2BF0020EDF5C01E3E3D166
:1021F000E66AEEEC0BF0E552A60EE66E8E0EE66E8B
:1022000023EC0CF0E552E552E66AEEEC0BF0E552F9
:10221000A60EE66E8C0EE66E23EC0CF0E552E5524F
:10222000E66AEEEC0BF0E552A60EE66E860EE66E62
:1022300023EC0CF0E552E552060EE66EE66A3C0E23
:10224000E66E34DCE552E552E5520C0EE66EEEEC3D
:102250000BF0E552000EE66EE66A23EC0CF0E55258
:10226000E552E66AEEEC0BF0E552A60EE66E8E0E37
:10227000E66E23EC0CF0E552E552E66AEEEC0BF06C
:10228000E552A60EE66E9C0EE66E23EC0CF0E552CF
:10229000E5520001666B676B686B696B0001716BDF
:1022A000726B72EC2CF00001850502E1B7EF15F0BE
:1022B00071C000F072C001F0026A036A0001665149
:1022C000005C00016751015800016851025800018B
:1022D0006951035805E20001712B000E7223E8D703
:1022E00066C066F067C067F068C068F069C069F0F2
:1022F0000001D8906637673768376937DF0403E134
:10230000010EDBCF68F000016E6B00016F6B000106
:10231000645100016F5D01E318D100016E51EA6A5A
:10232000000FE96E050EEA22EFCF7AF000016E2B66
:1023300000016E51EA6A000FE96E050EEA22EFCF46
:102340007BF000016E2B00016E51EA6A000FE96E0E
:10235000050EEA22EFCF7CF000016E2B00016E51DA
:10236000EA6A000FE96E050EEA22EFCF7DF0000168
:102370006E2B00016E51EA6A000FE96E050EEA222B
:10238000EFCF7EF000016E2B00016E51EA6A000F64
:10239000E96E050EEA22EFCF7FF000016E2B0001FF
:1023A0006E51EA6A000FE96E050EEA22EFCF80F067
:1023B00000016E2B00016E51EA6A000FE96E050EF6
:1023C000EA22EFCF81F000016E2B00017A1D01E1BE
:1023D0007B1D10E100017C1D01E17D1D0BE1000171
:1023E0007E1D01E17F1D06E10001801D01E1811DCF
:1023F00001E191D066C0E6FF67C0E6FF68C0E6FF76
:1024000056EC0DF0E552E552E5520D0EE66EEEEC9F
:102410000BF0E5527AC0E6FF7BC0E6FF23EC0CF040
:10242000E552E5520D0EE66EEEEC0BF0E5527CC087
:10243000E6FF7DC0E6FF23EC0CF0E552E5520D0E01
:10244000E66EEEEC0BF0E5527EC0E6FF7FC0E6FFE5
:1024500023EC0CF0E552E55280C0E6FF81C0E6FFB8
:10246000AFEC0DF0E552E55266C0E6FF67C0E6FF4F
:1024700068C0E6FF56EC0DF0E552E552E552030E5A
:10248000DB6A3CEC0DF00001625100017A1904E1B5
:102490000001635100017B1905E07AC078F07BC030
:1024A00079F068D0030EDB2A3CEC0DF0000162519C
:1024B00000017C1904E10001635100017D1905E070
:1024C0007CC078F07DC079F055D0030EDB2A3CEC5F
:1024D0000DF00001625100017E1904E10001635119
:1024E00000017F1905E07EC078F07FC079F042D00E
:1024F000030EDB2A3CEC0DF0000162510001801953
:1025000004E1000163510001811905E080C078F009
:1025100081C079F02FD066C066F067C067F068C0F0
:1025200068F069C069F0080E00016627000E00011E
:102530006723000E00016823000E00016923040ECA
:1025400000016F2500016F6FE2D604010969400E9A
:10255000040108170401087D880E040108137C0E8D
:10256000000171250001716F000E00017221000150
:10257000726F97D60701010E106F71C011F772C00C
:1025800000F0016A00C012F7030EDB5000016F2556
:102590000701136F78C014F779C015F762C016F7FA
:1025A00063C017F7100EE66E3DEC2CF0E552E3EC3D
:1025B0002BF0E6D2DCD2020EDF5C01E019D2030E72
:1025C000000175250001756FE66AEEEC0BF0E5522F
:1025D000A60EE66E9E0EE66E23EC0CF0E552E5527A
:1025E000E66AEEEC0BF0E552A60EE66E9C0EE66E89
:1025F00023EC0CF0E552E5520001716B726B72EC4A
:102600002CF00001850501E1E6D171C000F072C037
:1026100001F0026A036A00016651005C0001675123
:10262000015800016851025800016951035805E240
:102630000001712B000E7223E8D700016E6B0001C0
:102640006F6B0001645100016F5D01E3AFD10001C8
:102650006E51EA6A000FE96E050EEA22EFCF78F0BC
:10266000020E00016E2500016E6FFF0E0001785D05
:1026700001E186D1E66AEEEC0BF0E552000166510D
:10268000006E016A00500E0E011200C0E6FF01C08C
:10269000E6FF23EC0CF0E552E552E66AEEEC0BF0B7
:1026A000E552A90EE66E6E0EE66E23EC0CF0E552D6
:1026B000E552E66AEEEC0BF0E55200016751006E60
:1026C000016A00500E0E011200C0E6FF01C0E6FFD5
:1026D00023EC0CF0E552E552E66AEEEC0BF0E55225
:1026E000AA0EE66E6E0EE66E23EC0CF0E552E55295
:1026F000E66AEEEC0BF0E55200017851006E016ADB
:1027000000500E0E011200C0E6FF01C0E6FF23ECF0
:102710000CF0E552E552E66AEEEC0BF0E552A80E3D
:10272000E66E6E0EE66E23EC0CF0E552E552E66ABC
:10273000EEEC0BF0E552A60EE66E840EE66E23EC90
:102740000CF0E552E5520001655130E1E66AEEEC2D
:102750000BF0E552550EE66E0E0EE66E23EC0CF015
:10276000E552E552E66AEEEC0BF0E552A70EE66E96
:102770006E0EE66E23EC0CF0E552E552E66AEEECE6
:102780000BF0E552AA0EE66E0E0EE66E23EC0CF090
:10279000E552E552E66AEEEC0BF0E552A70EE66E66
:1027A0006E0EE66E23EC0CF0E552E552E66AEEECB6
:1027B0000BF0E552A60EE66E820EE66E23EC0CF0F0
:1027C000E552E552E66AEEEC0BF0E552A60EE66E37
:1027D000500EE66E23EC0CF0E552E552E66AEEECA4
:1027E0000BF0E552F50EE66E6E0EE66E23EC0CF085
:1027F000E552E552000165050BE1E66AEEEC0BF0EF
:10280000E552000EE66EE66A23EC0CF0E552E55266
:102810000C0E00017503F350E66EF0EC03F0E55288
:10282000E66AEEEC0BF0E552A60EE66E9E0EE66E44
:1028300023EC0CF0E552E552E66AEEEC0BF0E552C3
:10284000A60EE66E9C0EE66E23EC0CF0E552E55209
:10285000E66AEEEC0BF0E55200016651006E016A8B
:1028600000500E0E011200C0E6FF01C0E6FF23EC8F
:102870000CF0E552E552E66AEEEC0BF0E552A90EDB
:10288000E66E6E0EE66E23EC0CF0E552E552E66A5B
:10289000EEEC0BF0E55200016751006E016A00504A
:1028A0000E0E011200C0E6FF01C0E6FF23EC0CF0A3
:1028B000E552E552E66AEEEC0BF0E552AA0EE66E42
:1028C0006E0EE66E23EC0CF0E552E552E66AEEEC95
:1028D0000BF0E552A60EE66E800EE66E23EC0CF0D1
:1028E000E552E552E66AEEEC0BF0E552A80EE66E14
:1028F000500EE66E23EC0CF0E552E552E66AEEEC83
:102900000BF0E552F50EE66E6E0EE66E23EC0CF063
:10291000E552E552000165050BE1E66AEEEC0BF0CD
:10292000E552000EE66EE66A23EC0CF0E552E55245
:10293000020EE66EEEEC0BF0E552CEEC0CF0000170
:1029400061510001785D1CE00701010E106F71C03C
:1029500011F772C000F0016A00C012F76FC013F7E0
:1029600078C014F70701156B60C016F70701176BE5
:10297000100EE66E3DEC2CF0E552E3EC2BF000D1AE
:1029800066C066F067C067F068C068F069C069F04B
:102990000001662B000E00016723000E0001682372
:1029A000000E0001692300016F2B4BD60401096959
:1029B000400E040108170401087D880E0401081365
:1029C0007C0E000171250001716F000E0001722163
:1029D0000001726F14D6E66AEEEC0BF0E552A60E1B
:1029E000E66E940EE66E23EC0CF0E552E552BFD095
:1029F000030EDF5C01E0BBD0E66AEEEC0BF0E552C3
:102A0000A60EE66E8E0EE66E23EC0CF0E552E55255
:102A1000E66AEEEC0BF0E552A60EE66E8C0EE66E64
:102A200023EC0CF0E552E5520001655116E1E66A2F
:102A3000EEEC0BF0E552E66AEF0EE66E23EC0CF0DE
:102A4000E552E552E66AEEEC0BF0E552E66AF80E66
:102A5000E66E23EC0CF0E552E5520001716B726BEF
:102A600000016F6BE66AE66A010EDBCFE6FF56EC0B
:102A70000DF0E552E552E55272EC2CF000018505AF
:102A800001E175D000C578F001C579F0030EDB6A6D
:102A9000F8EC0DF0000901E16DD502C578F003C531
:102AA00079F0010EF36E030EF3CFDBFFF8EC0DF0BF
:102AB000000901E15FD504C578F005C579F0020E83
:102AC000F36E030EF3CFDBFFF8EC0DF0000901E12C
:102AD00051D506C578F007C579F0030EF36E030EE5
:102AE000F3CFDBFFF8EC0DF0000901E143D508C599
:102AF00078F009C579F0040EF36E030EF3CFDBFF17
:102B0000F8EC0DF0000901E135D50C0EE66EE66A31
:102B1000010EDBCFE6FF56EC0DF0E552E552E55233
:102B20000CC578F00DC579F0060EF36E030EF3CFE9
:102B3000DBFFF8EC0DF0000901E11CD50A0EE66E92
:102B4000E66A010EDBCFE6FF56EC0DF0E552E552EA
:102B5000E5520AC578F00BC579F0050EF36E030E49
:102B6000F3CFDBFFF8EC0DF0000901E103D5E3EC56
:102B70002BF00701106B100EE66E3DEC2CF0E552C9
:102B8000D9CFE1FFE552E7CFD9FF1200D9CFE6FF59
:102B9000E1CFD9FF020EE126FC0EDBCFDEFFDBCF5B
:102BA000DDFFDFCFE6FF95EC2BF0E552DF407F0B3A
:102BB000DF6EDFCFE6FF95EC2BF0E552DF407F0BB9
:102BC000DF6EDFCFE6FF95EC2BF0E552DF407F0BA9
:102BD000DF6EDFCFE6FF95EC2BF0E552DF407F0B99
:102BE000DF6EDFCFE6FF95EC2BF0E552DF407F0B89
:102BF000DF6EDFCFE6FF95EC2BF0E552DF407F0B79
:102C0000DF6EDFCFE6FF95EC2BF0E552DF407F0B68
:102C1000DF6EDFCFE6FF95EC2BF0E552010EDBCF48
:102C2000E6FF95EC2BF0E552010EDB407F0BE76EE3
:102C3000010EE7CFDBFFDBCFE6FF95EC2BF0E55293
:102C4000010EDB407F0BE76E010EE7CFDBFFDBCF32
:102C5000E6FF95EC2BF0E552010EDB407F0BE76EB3
:102C6000010EE7CFDBFFDBCFE6FF95EC2BF0E55263
:102C7000010EDB407F0BE76E010EE7CFDBFFDBCF02
:102C8000E6FF95EC2BF0E552010EDB407F0BE76E83
:102C9000010EE7CFDBFFDBCFE6FF95EC2BF0E55233
:102CA000010EDB407F0BE76E010EE7CFDBFFDBCFD2
:102CB000E6FF95EC2BF0E552010EDB407F0BE76E53
:102CC000010EE7CFDBFFDBCFE6FF95EC2BF0E55203
:102CD000FE0EDBCFE6FF95EC2BF0E552FE0EDB405F
:102CE0007F0BE76EFE0EE7CFDBFFFE0EDBCFE6FFCE
:102CF00095EC2BF0E552FE0EDB407F0BE76EFE0EEF
:102D0000E7CFDBFFFE0EDBCFE6FF95EC2BF0E552C5
:102D1000FE0EDB407F0BE76EFE0EE7CFDBFFFE0E05
:102D2000DBCFE6FF95EC2BF0E552FE0EDB407F0B90
:102D3000E76EFE0EE7CFDBFFFE0EDBCFE6FF95EC86
:102D40002BF0E552FE0EDB407F0BE76EFE0EE7CF69
:102D5000DBFFFE0EDBCFE6FF95EC2BF0E552FE0E1F
:102D6000DB407F0BE76EFE0EE7CFDBFFFE0EDBCF17
:102D7000E6FF95EC2BF0E552FE0EDB407F0BE76E95
:102D8000FE0EE7CFDBFFFE0EDBCFE6FF95EC2BF070
:102D9000E552D9CFE1FFE552E7CFD9FF1200D9CFF5
:102DA000E6FFE1CFD9FFE66AEEEC0BF0E552FC0E50
:102DB000DBCFE6FFFD0EDBCFE6FFFE0EDBCFE6FF4F
:102DC000E5DEE552E552E552E552E7CFD9FF1200C4
:102DD000000EE66EE66AE66AE2DFE552E552E5528B
:102DE0001200010EE66EEEEC0BF0E552E66AEEEC38
:102DF0000BF0E552E66AEEEC0BF0E552CEEF0CF08C
:102E0000E7DFE6DFE66A010EE66E040EE66EC7DF78
:102E1000E552E552E552E8EF16F0E66A010EE66E7D
:102E2000040EE66EBCDFE552E552E552E8EF16F01F
:102E3000800EE66E030EE66EEB0EE66EB0DFE55238
:102E4000E552E552960EE66E1B0EE66EBA0EE66E83
:102E5000A6DFE552E552E552BBDFBADFB60EE66EFD
:102E6000DB0EE66EBA0EE66E9ADFE552E552E552EB
:102E7000AFDFAEDFD60EE66EDB0EE66EBA0EE66EA6
:102E80008EDFE552E552E552A3DFA2DFB60EE66E15
:102E90001B0EE66EBA0EE66E82DFE552E552E55293
:102EA00097DF96DF960EE66E1B0EE66EBA0EE66EA6
:102EB00076DFE552E552E5528BDF8ADFB60EE66E2D
:102EC000DB0EE66EBA0EE66E6ADFE552E552E552BB
:102ED0007FDF7EDFD60EE66EDB0EE66EBA0EE66EA6
:102EE0005EDFE552E552E55273DF72DFB60EE66E45
:102EF0000B0EE66EBA0EE66E52DFE552E552E55273
:102F000067DFE8EF16F0800EE66E030EE66EEB0E5E
:102F1000E66E45DFE552E552E552B60EE66E1B0E53
:102F2000E66EBA0EE66E3BDFE552E552E55250DF43
:102F30004FDFB60EE66E1B0EE66EBA0EE66E2FDFA4
:102F4000E552E552E55244DF43DFB60EE66E1B0E56
:102F5000E66EBA0EE66E23DFE552E552E55238DF43
:102F600037DFB60EE66E1B0EE66EBA0EE66E17DFA4
:102F7000E552E552E5522CDFE8EF16F0E66A030E63
:102F8000E66EEB0EE66E0BDFE552E552E55220DF12
:102F9000B60EE66E0B0EE66EBB0EE66E00DFE55279
:102FA000E552E55215DF14DFB60EE66EDB0EE66E77
:102FB000BB0EE66EF4DEE552E552E55209DF08DFAE
:102FC000B60EE66EEB0EE66EBB0EE66EE8DEE55282
:102FD000E552E552FDDEFCDEB60EE66E1B0EE66E39
:102FE000BB0EE66EDCDEE552E552E552F1DEF0DEC8
:102FF000B60EE66E0B0EE66EBB0EE66ED0DEE5524A
:10300000E552E552E5DEE4DEB60EE66EDB0EE66E78
:10301000BB0EE66EC4DEE552E552E552D9DED8DEDF
:10302000B60EE66EEB0EE66EBB0EE66EB8DEE55251
:10303000E552E552CDDECCDEB60EE66E1B0EE66E38
:10304000BB0EE66EACDEE552E552E552C1DEE8EFBE
:1030500016F0E66A030EE66EEB0EE66EA0DEE552B3
:10306000E552E552B5DEB60EE66E1B0EE66EBB0E01
:10307000E66E95DEE552E552E552AADEA9DEB60E11
:10308000E66E1B0EE66EBB0EE66E89DEE552E5527D
:10309000E5529EDE9DDEB60EE66E1B0EE66EBB0EA4
:1030A000E66E7DDEE552E552E55292DE91DEB60E29
:1030B000E66E1B0EE66EBB0EE66E71DEE552E55265
:1030C000E55286DEE8EF16F0610EE66EE70EE66E7C
:1030D000A80EE66E64DEE552E552E55279DE78DE52
:1030E00077DE76DE180EE66EF0EC03F0E552610E48
:1030F000E66EE70EE66EA90EE66E51DEE552E5528B
:10310000E55266DE65DE64DEE8EF16F0610EE66E1F
:10311000E70EE66EA80EE66E42DEE552E552E55297
:1031200057DE56DE180EE66EF0EC03F0E552610E47
:10313000E66EE70EE66EA90EE66E31DEE552E5526A
:10314000E55246DEE8EF16F0580EE66E050EE66E26
:10315000200EE66E24DEE552E552E552380EE66EAC
:103160003B0EE66E880EE66E1ADEE552E552E5523B
:10317000A90EE66E0A0EE66E200EE66E10DEE55231
:10318000E552E552390EE66E3B0EE66E880EE66EAF
:1031900006DEE552E552E5521200D9CFE6FFE1CF57
:1031A000D9FFFD0EDB50006E016A040ED890003688
:1031B0000136E804FBE1F00E00160F0E011600C008
:1031C000E6FF01C0E6FF200EE66EE9DDE552E552BE
:1031D000E552900EE66E010EE66E880EE66EDFDDBD
:1031E000E552E552E552FB0EDBCF02F0FC0EDBCFE1
:1031F00003F0040ED89002360336E804FBE1F00E2B
:103200000216FF0E0316FE0EDB5000010210006EC8
:1032100003C001F000C0E6FF01C0E6FFFB0EDBCFFC
:1032200004F0FC0EDBCF05F00538056A0F0B046EC9
:103230000F0E0416000E0516200E0410E66EAFDD0C
:10324000E552E552E552E552E7CFD9FF1200D9CF5A
:10325000E6FFE1CFD9FFE652D3DD070EE66EE66A60
:10326000200EE66E9CDDE552E552E552DF6A070E60
:10327000DF5C01E3ADD08A0EE66EE66A240EE66EF0
:103280008EDDE552E552E5520A0EE66E3B0EE66E25
:10329000880EE66E84DDE552E552E552FE0EDB5007
:1032A00003080AE1E66A080EE66E200EE66E77DD98
:1032B000E552E552E5520AD0800EE66E0F0EE66E3C
:1032C000200EE66E6CDDE552E552E552900EE66E9C
:1032D000010EE66E880EE66E62DDE552E552E552BD
:1032E000EA6ADF34FE0BEA36E96E200EE926070EA5
:1032F000EA22EECF00F0EFCF01F0040ED8900036B6
:103300000136E804FBE1F00E0016FF0E011600C0C6
:10331000E6FF01C0E6FFEA6ADF34FE0BEA36E96E3B
:10332000200EE926070EEA22EECF02F0EFCF03F0DF
:103330000338036A0F0B026E0F0E0216000E0316FF
:10334000200E0210E66E2BDDE552E552E552E66AEC
:10335000030EE66EEB0EE66E22DDE552E552E55217
:10336000960EE66E1B0EE66EBB0EE66E18DDE5529F
:10337000E552E5522DDD2CDD580EE66E050EE66EAB
:10338000200EE66E0CDDE552E552E552380EE66E93
:103390003B0EE66E880EE66E02DDE552E552E55222
:1033A000A90EE66E0A0EE66E200EE66EF8DCE55219
:1033B000E552E552390EE66E3B0EE66E880EE66E7D
:1033C000EEDCE552E552E5527FDE27DDDF2A4FD7FE
:1033D000E552E552E7CFD9FF1200D9CFE6FFE1CFA2
:1033E000D9FFE6520DDD000EE66EE66AF80EE66ED7
:1033F000060EE66ED2DEE552E552E552E552DF6A90
:10340000070EDF5C3BE2800EE66E030EE66EEB0E0F
:10341000E66EC5DCE552E552E552B60EE66E0B0EE1
:10342000E66EBA0EE66EBBDCE552E552E552D0DC44
:10343000CFDCCEDC200EE66E3C0EE66E880EE66E2D
:10344000AEDCE552E552E552C3DCCBDCEA6ADF34A0
:10345000FE0BEA36E96E200EE926070EEA2260C06E
:10346000EEFF61C0EDFF000EE66EE66AE66A97DCED
:10347000E552E552E552D1DCDF2AC2D7E552E552EA
:10348000E7CFD9FF120005C76BF0E3EC2BF0CAECD5
:103490002BF0B6DC000EE66EE66AE668060EE66E17
:1034A0007CDEE552E552E552E552000EE66EE66A34
:1034B000E668060EE66E71DEE552E552E552E5522B
:1034C00087DCB6DC200EE66E3C0EE66E880EE66EFD
:1034D00066DCE552E552E5527BDC83DC60C010F728
:1034E00061C011F7070110511119126F030EE66E3A
:1034F0003DEC2CF0E552E3EF2BF005C76BF0E3EC6D
:103500002BF0CAEC2BF07CDCBE0EE66E050EE66EF0
:10351000800EE66EE66A41DEE552E552E552E5527E
:10352000410EE66E780EE66E200EE66E38DCE55251
:10353000E552E552900EE66E080EE66EBA0EE66EA5
:103540002EDCE552E552E55243DC42DC4ADCE3EC9A
:103550002BF060C010F761C011F70701105111196D
:10356000126F030EE66E3DEC2CF0E552120007C719
:103570006BF002C773F003C774F00001732B000EE9
:103580007423CAEC2BF03CDC05C702F002C003F048
:10359000026A0701065100010210006E03C001F02B
:1035A00000C0E6FF01C0E6FF04C7E6FF060EE66EB8
:1035B000F4DDE552E552E552E5520001716B726BA4
:1035C000000173510001715D0001745100017259D5
:1035D00001E36FD100016E6B00016D6B780E00018D
:1035E0006D5D01E34DD10001715102E1200E7219B0
:1035F0000CE1000EE66EE66A010EE66E060EE66E61
:10360000CCDDE552E552E552E55212DC200EE66EC5
:103610003C0EE66E880EE66ECFEC16F0E552E552F3
:10362000E552E8EC16F0F1EC16F000016E51EA6A92
:10363000000FE96E060EEA2260C0EFFF00016E2B5C
:1036400000016E51EA6A000FE96E060EEA2261C0BF
:10365000EFFF00016E2BE8EC16F0210EE66E3C0E3B
:10366000E66E880EE66ECFEC16F0E552E552E552B6
:10367000E8EC16F0F1EC16F060C0CBF061C0CCF0D5
:1036800000016E51EA6A000FE96E060EEA22CBC015
:10369000EFFF00016E2B00016E51EA6A000FE96E28
:1036A000060EEA22EF6A00016E2BE8EC16F0220EFD
:1036B000E66E3C0EE66E880EE66ECFEC16F0E55236
:1036C000E552E552E8EC16F0F1EC16F000016E510F
:1036D000EA6A000FE96E060EEA2260C0EFFF000101
:1036E0006E2B00016E51EA6A000FE96E060EEA22A7
:1036F00061C0EFFF00016E2B00016E51EA6A000FFE
:10370000E96E060EEA22CCC0EFFF00016E2B00012D
:103710006E51EA6A000FE96E060EEA22EF6A0001B6
:103720006E2BE8EC16F0230EE66E3C0EE66E880E6D
:10373000E66ECFEC16F0E552E552E552E8EC16F0F5
:10374000F1EC16F000016E51EA6A000FE96E060E08
:10375000EA2260C0EFFF00016E2B00016E51EA6AA1
:10376000000FE96E060EEA2261C0EFFF00016E2B2A
:10377000E8EC16F0240EE66E3C0EE66E880EE66E61
:10378000CFEC16F0E552E552E552E8EC16F0F1EC1C
:1037900016F060C0CBF061C0CCF000016E51EA6A57
:1037A000000FE96E060EEA22CBC0EFFF00016E2B80
:1037B00000016E51EA6A000FE96E060EEA22EF6A16
:1037C00000016E2BE8EC16F0250EE66E3C0EE66E60
:1037D000880EE66ECFEC16F0E552E552E552E8ECC5
:1037E00016F0F1EC16F000016E51EA6A000FE96E76
:1037F000060EEA2260C0EFFF00016E2B00016E5141
:10380000EA6A000FE96E060EEA2261C0EFFF0001CE
:103810006E2B00016E51EA6A000FE96E060EEA2275
:10382000CCC0EFFF00016E2B00016E51EA6A000F61
:10383000E96E060EEA22EF6AE8EC16F00DEC17F0DE
:103840000001712B000E72230001735100017119E8
:1038500004E100017451000172190AE1080E00012F
:103860006D2500016D6F0001712B000E722308D0D1
:1038700000016E2B080E00016D2500016D6FAED6A4
:1038800005010051006E016AFF0E001801E10150B0
:1038900001E10FD06DC0FEF65EEC2CF00501005189
:1038A000006E016AFF0E001801E1015001E101D034
:1038B00087D6E3EC2BF0120007C76BF002C773F05A
:1038C00003C774F00001732B000E7423CAEC2BF0B5
:1038D00000EC17F005C702F002C003F0026A07010E
:1038E000065100010210006E03C001F000C0E6FFA7
:1038F00001C0E6FF04C7E6FF060EE66E4EDCE552A9
:10390000E552E552E5520001716B726B0001735193
:103910000001715D000174510001725901E330D161
:1039200000016E6B00016D6B780E00016D5D01E3AF
:103930000ED183EC17F0200EE66E3C0EE66E880E7C
:10394000E66ECFEC16F0E552E552E552E8EC16F0E3
:10395000F1EC16F000016E51EA6A000FE96E060EF6
:10396000EA2260C0EFFF00016E2B00016E51EA6A8F
:10397000000FE96E060EEA2261C0EFFF00016E2B18
:1039800000016E51EA6A000FE96E060EEA22EF6A44
:1039900000016E2B00016E51EA6A000FE96E060EFF
:1039A000EA22EF6A00016E2BE8EC16F0210EE66EBB
:1039B0003C0EE66E880EE66ECFEC16F0E552E55250
:1039C000E552E8EC16F0F1EC16F000016E51EA6AEF
:1039D000000FE96E060EEA2260C0EFFF00016E2BB9
:1039E00000016E51EA6A000FE96E060EEA2261C01C
:1039F000EFFF00016E2B00016E51EA6A000FE96EC5
:103A0000060EEA22EF6A00016E2B00016E51EA6A8F
:103A1000000FE96E060EEA22EF6A00016E2BE8EC59
:103A200016F0220EE66E3C0EE66E880EE66ECFECC9
:103A300016F0E552E552E552E8EC16F0F1EC16F01E
:103A400000016E51EA6A000FE96E060EEA2260C0BC
:103A5000EFFF00016E2B00016E51EA6A000FE96E64
:103A6000060EEA2261C0EFFF00016E2B00016E51CD
:103A7000EA6A000FE96E060EEA22EF6A00016E2B79
:103A800000016E51EA6A000FE96E060EEA22EF6A43
:103A900000016E2BE8EC16F0230EE66E3C0EE66E8F
:103AA000880EE66ECFEC16F0E552E552E552E8ECF2
:103AB00016F0F1EC16F000016E51EA6A000FE96EA3
:103AC000060EEA2260C0EFFF00016E2B00016E516E
:103AD000EA6A000FE96E060EEA2261C0EFFF0001FC
:103AE0006E2B00016E51EA6A000FE96E060EEA22A3
:103AF000EF6A00016E2B00016E51EA6A000FE96E59
:103B0000060EEA22EF6AE8EC16F00DEC17F0000161
:103B1000712B000E7223000173510001711904E131
:103B200000017451000172190AE1080E00016D25AF
:103B300000016D6F0001712B000E722308D000018F
:103B40006E2B080E00016D2500016D6FEDD605018D
:103B50000051006E016AFF0E001801E1015001E101
:103B60000FD06DC0FEF65EEC2CF005010051006E2A
:103B7000016AFF0E001801E1015001E101D0C6D633
:103B8000E3EC2BF0120007C76BF0CAEC2BF025DC3E
:103B900000016E6B716B726B070E715D000E7259D6
:103BA00059E271C0E9FF72C0EAFF010ED890E93610
:103BB000EA36E806FBE1200EE926070EEA22EECF00
:103BC00078F0EDCF79F000016E51EA6A000FE96EEE
:103BD000060EEA2278C0EFFF6E2B6E51EA6A000FE4
:103BE000E96E060EEA2279C0EFFF6E2B6E51EA6A8B
:103BF000000FE96E060EEA22EF6A6E2B6E51EA6A3A
:103C0000000FE96E060EEA22EF6A6E2B6E51EA6A29
:103C1000000FE96E060EEA22EF686E2B6E51EA6A1B
:103C2000000FE96E060EEA22EF686E2B6E51EA6A0B
:103C3000000FE96E060EEA22EF686E2B6E51EA6AFB
:103C4000000FE96E060EEA22EF686E2B712B000E54
:103C50007223A2D705010051006E016AFF0E001801
:103C600001E1015005E006011C0EFE6F5EEC2CF038
:103C7000E3EF2BF0D9CFE6FFE1CFD9FF020EE1262B
:103C800007C76BF002C7DFFF010E03C7DBFF0001B0
:103C90006A6B716B726B070E715D000E725915E2E3
:103CA00071C0E9FF72C0EAFF010ED890E936EA362A
:103CB000E806FBE1200EE926070EEA22EE68ED6831
:103CC0000001712B000E7223E6D7DF0409E1E3EC5B
:103CD0002BF0CAEC2BF0030EE66E27EC19F0E55240
:103CE000E3EC2BF0CAEC2BF000EC17F0FA0EE66ECA
:103CF000070EE66E240EE66ECFEC16F0E552E552A6
:103D0000E5520A0EE66E3B0EE66E880EE66ECFECCE
:103D100016F0E552E552E552580EE66E050EE66ED7
:103D2000200EE66ECFEC16F0E552E552E552380E65
:103D3000E66E3B0EE66E880EE66ECFEC16F0E552B0
:103D4000E552E552A90EE66E0A0EE66E200EE66E0C
:103D5000CFEC16F0E552E552E552390EE66E3B0E19
:103D6000E66E880EE66ECFEC16F0E552E552E552AF
:103D700086EC18F0DF500BE1E3EC2BF0CAEC2BF0F3
:103D8000040EE66E27EC19F0E552EDEC19F0000197
:103D90006E6B716B726B070E715D000E72592FE2C4
:103DA00071C0E9FF72C0EAFF010ED890E936EA3629
:103DB000E806FBE1200EE926070EEA22EECF78F0B6
:103DC000EDCF79F000016E51EA6A100FE96E070E2F
:103DD000EA2278C0EFFF6A5178196A6F6E2B6E5134
:103DE000EA6A100FE96E070EEA2279C0EFFF6A5106
:103DF00079196A6F6E2B712B000E7223CCD76E511E
:103E0000EA6A100FE96E070EEA226AC0EFFF0F0E92
:103E1000E66E3DEC2CF0E552E3EC2BF0D9CFE1FF60
:103E2000E552E7CFD9FF1200D9CFE6FFE1CFD9FFA6
:103E3000E66AEEEC0BF0E552FE0EDB50046E056A0E
:103E40000438046AF00B056EFD0EDB50066E076A3F
:103E5000040ED89006360736E804FBE1045006103D
:103E6000026E05500710036EFC0EDB5000010210BD
:103E7000006E03C001F000C0E6FF01C0E6FFFE0EC9
:103E8000DB380F0B2009E66EC6EC15F0E552E55263
:103E9000E552E552E7CFD9FF1200D9CFE6FFE1CFD7
:103EA000D9FFE652030E00016E03F350DF6E0701E7
:103EB000010E106F66C011F767C012F768C013F7E4
:103EC00000016E51E8240701146FDF50EA6A000F09
:103ED000E96E050EEA22EFCF15F7DF2ADF50EA6A16
:103EE000000FE96E050EEA22EFCF16F7DF2ADF504A
:103EF000EA6A000FE96E050EEA22EFCF17F7CFC08E
:103F000018F7D0C019F7D1C01AF7E3EC2BF0100E58
:103F1000E66E3DEC2CF0E552E552E552E7CFD9FFD5
:103F20001200E3EC2BF00701106B100EE66E3DEC77
:103F30002CF0E5528EEC2CF000D0120007C76BF08D
:103F4000CAEC2BF000EC17F072EC2CF000018505A8
:103F500002E1E7DF0AD21A0EE66EE66A240EE66E8A
:103F6000CFEC16F0E552E552E5520A0EE66E3B0E36
:103F7000E66E880EE66ECFEC16F0E552E552E5529D
:103F800000016E6BCE6B080ECE5D01E3B3D0080E60
:103F9000CE03F350016A6625006E6751012200C00E
:103FA000E6FF01C0E6FF68C0E6FF070EE66ECDEC57
:103FB00018F0E552E552E552E552E66A00016E510D
:103FC000EA6A000FE96E050EEA22EF50E66E6E29EE
:103FD000EA6A000FE96E050EEA22EF50E66E24DF72
:103FE000E552E552E55200016E2B6E2B010EE66E96
:103FF0006E51EA6A000FE96E050EEA22EF50E66E96
:10400000030E6E25EA6A000FE96E050EEA22EF50F4
:10401000E66E0ADFE552E552E55200016E2B020E14
:10402000E66E6E51EA6A000FE96E050EEA22EF5065
:10403000E66E6E29EA6A000FE96E050EEA22EF507D
:10404000E66EF2DEE552E552E55200016E2B6E2B74
:104050006E2B030EE66E6E51EA6A000FE96E050ED6
:10406000EA22EF50E66E6E29EA6A000FE96E050E4D
:10407000EA22EF50E66ED8DEE552E552E552000145
:104080006E2B6E2B040EE66E6E51EA6A000FE96E1F
:10409000050EEA22EF50E66E030E6E25EA6A000F67
:1040A000E96E050EEA22EF50E66EBEDEE552E552FD
:1040B000E55200016E2B050EE66E6E51EA6A000FA6
:1040C000E96E050EEA22EF50E66E6E29EA6A000FED
:1040D000E96E050EEA22EF50E66EA6DEE552E552E5
:1040E000E55200016E2B6E2B6E2BBEEC17F000011B
:1040F000CE2B49D7A4EC18F064EC18F00DEC17F0B7
:1041000066C0E6FF67C0E6FF68C0E6FF060EE66E23
:10411000CDEC18F0E552E552E552E55200016D6B29
:104120006E6B706B080E705D01E30FD118EC17F029
:10413000200EE66E3C0EE66E880EE66ECFEC16F0B4
:10414000E552E552E552E8EC16F0F1EC16F060C0ED
:10415000CFF061C0D0F0E8EC16F0210EE66E3C0E18
:10416000E66E880EE66ECFEC16F0E552E552E552AB
:10417000E8EC16F0F1EC16F060C0D1F000016D51E2
:10418000EA6A000FE96E050EEA22EF50CF5D01E00A
:10419000EBD06D2B6D51EA6A000FE96E050EEA2235
:1041A000EF50D05D01E0E0D06D2B6D51EA6A000F59
:1041B000E96E050EEA22EF50D15D01E0D5D06D2BFE
:1041C0006E2B61C0D1F0E8EC16F0220EE66E3C0ECC
:1041D000E66E880EE66ECFEC16F0E552E552E5523B
:1041E000E8EC16F0F1EC16F060C0CFF061C0D0F052
:1041F00000016D51EA6A000FE96E050EEA22EF50E8
:10420000CF5D01E0B1D06D2B6D51EA6A000FE96E10
:10421000050EEA22EF50D05D01E0A6D06D2B6D5166
:10422000EA6A000FE96E050EEA22EF50D15D01E067
:104230009BD06D2B6E2BE8EC16F0230EE66E3C0E39
:10424000E66E880EE66ECFEC16F0E552E552E552CA
:10425000E8EC16F0F1EC16F060C0CFF061C0D0F0E1
:10426000E8EC16F0240EE66E3C0EE66E880EE66E66
:10427000CFEC16F0E552E552E552E8EC16F0F1EC21
:1042800016F060C0D1F000016D51EA6A000FE96ECE
:10429000050EEA22EF50CF5D01E066D06D2B6D5127
:1042A000EA6A000FE96E050EEA22EF50D05D01E0E8
:1042B0005BD06D2B6D51EA6A000FE96E050EEA22A4
:1042C000EF50D15D01E050D06D2B6E2B61C0D1F06D
:1042D000E8EC16F0250EE66E3C0EE66E880EE66EF5
:1042E000CFEC16F0E552E552E552E8EC16F0F1ECB1
:1042F00016F060C0CFF061C0D0F000016D51EA6AE5
:10430000000FE96E050EEA22EF50CF5D01E02CD0E0
:104310006D2B6D51EA6A000FE96E050EEA22EF502F
:10432000D05D01E021D06D2B6D51EA6A000FE96E7E
:10433000050EEA22EF50D15D01E016D06D2BE8ECBE
:1043400016F000016E2B702BEDD6E66A010EE66EBC
:10435000040EE66ECFEC16F0E552E552E552E8ECBD
:1043600016F08EEC2CF0F0D598DD120007C76BF03C
:10437000CAEC2BF00001D16B00EC17F072EC2CF0C2
:104380000001850502E1CDDD85D15A0EE66EE66AB3
:10439000240EE66ECFEC16F0E552E552E5520A0E19
:1043A000E66E3B0EE66E880EE66ECFEC16F0E5523A
:1043B000E552E55200016E6BCE6B040ECE5D01E35B
:1043C00083D0080ECE03F350016A6625006E675154
:1043D000012200C0E6FF01C0E6FF68C0E6FF070E4D
:1043E000E66ECDEC18F0E552E552E552E552E66A8C
:1043F00000016E51EA6A000FE96E050EEA22EF50E5
:10440000E66E6E29EA6A000FE96E050EEA22EF50A9
:10441000E66E0ADDE552E552E55200016E2B6E2B89
:104420006E2B010EE66E6E51EA6A000FE96E050E04
:10443000EA22EF50E66E6E29EA6A000FE96E050E79
:10444000EA22EF50E66EF0DCE552E552E55200015B
:104450006E2B6E2B6E2B020EE66E6E51EA6A000F0B
:10446000E96E050EEA22EF50E66E6E29EA6A000F49
:10447000E96E050EEA22EF50E66ED6DCE552E55213
:10448000E55200016E2B6E2B6E2B030EE66E6E5105
:10449000EA6A000FE96E050EEA22EF50E66E6E2919
:1044A000EA6A000FE96E050EEA22EF50E66EBCDC08
:1044B000E552E552E55200016E2B6E2B6E2B29EC76
:1044C00018F00001CE2B79D7A4EC18F064EC18F0AA
:1044D0000DEC17F000EC17F066C0E6FF67C0E6FFD2
:1044E00068C0E6FF060EE66ECDEC18F0E552E55228
:1044F000E552E55200016E6B6D6B706B040E705DE2
:1045000001E3C3D083EC17F0200EE66E3C0EE66E9E
:10451000880EE66ECFEC16F0E552E552E552E8EC77
:1045200016F0F1EC16F060C0CFF061C0D0F00001E1
:104530006D51EA6A000FE96E050EEA22EF50CF5D79
:1045400001E0A6D06D2B6D51EA6A000FE96E050EF1
:10455000EA22EF50D05D01E09BD06D2B6D2BE8EC93
:1045600016F0210EE66E3C0EE66E880EE66ECFEC7F
:1045700016F0E552E552E552E8EC16F000016E2B1C
:10458000F1EC16F060C0CFF061C0D0F000016D51C9
:10459000EA6A000FE96E050EEA22EF50CF5D01E0F6
:1045A00077D06D2B6D51EA6A000FE96E050EEA2295
:1045B000EF50D05D01E06CD06D2B6D2BE8EC16F068
:1045C000220EE66E3C0EE66E880EE66ECFEC16F01E
:1045D000E552E552E552E8EC16F000016E2BF1ECE5
:1045E00016F060C0CFF061C0D0F000016D51EA6AF2
:1045F000000FE96E050EEA22EF50CF5D01E048D0D2
:104600006D2B6D51EA6A000FE96E050EEA22EF503C
:10461000D05D01E03DD06D2B6D2BE8EC16F0230E44
:10462000E66E3C0EE66E880EE66ECFEC16F0E552B6
:10463000E552E552E8EC16F000016E2BF1EC16F0B5
:1046400060C0CFF061C0D0F000016D51EA6A000F88
:10465000E96E050EEA22EF50CF5D01E019D06D2B17
:104660006D51EA6A000FE96E050EEA22EF50D05D47
:1046700001E00ED06D2B6D2BE8EC16F000016E2BD7
:104680000DEC17F00001702B39D78EEC2CF076D69C
:104690004DEC1FF0120007C76BF0CAEC2BF00001C5
:1046A0006E6B6D6B00EC17F0070EE66EE66A200E7F
:1046B000E66ECFEC16F0E552E552E55272EC2CF0C6
:1046C0000001850502E12DDC87D0716B726B070E4E
:1046D000715D000E725933E26E29EA6A000FE96ECD
:1046E000050EEA22EF50026E036A02C003F0026A6E
:1046F0006E51EA6A000FE96E050EEA22EF500001E2
:104700000224006E000E0320016E71C0E9FF72C02A
:10471000EAFF010ED890E936EA36E806FBE1200E02
:10472000E926070EEA2200C0EEFF01C0EDFF0001FE
:104730006E2B6E2B6E2B712B000E7223C8D7040EBE
:10474000E66E27EC19F0E552EDEC19F000016E6B06
:10475000D16B6D6B706B070E705D39E27051E96E55
:10476000EA6AD890E936EA36200EE926070EEA22F0
:10477000EFCFCFF07051E96EEA6AD890E936EA36A9
:10478000200EE926070EEA22EECF00F0EFCF01F06F
:1047900001C000F0016A00C0D0F06D51EA6A000F5C
:1047A000E96E050EEA22EF50CF5D01E013D06D2BCC
:1047B0006D51EA6A000FE96E050EEA22EF50D05DF6
:1047C00001E008D06D2B6D2B6E2B702BC4D78EECB7
:1047D0002CF074D74DEC1FF01200819000001200F5
:1047E000818000001200819200001200818200008E
:1047F0001200D9CFE6FFE1CFD9FFE652010E936E4A
:104800008150010BDF6E936A0000DF5000D0E5524B
:10481000E552E7CFD9FF1200E6DFE2DFE7DFDDDFB9
:10482000F3EF23F0E0DFD9DFE1DFF0EF23F0DBDFB0
:10483000D7DFDCDFF3EF23F0D6DFCFDFD7DFF3EF17
:1048400023F0D9CFE6FFE1CFD9FFE652CCDFC8DFB6
:10485000CDDFCFDFDF6EC7DFC0DFDF5000D0E55236
:10486000E552E7CFD9FF1200D9CFE6FFE1CFD9FF5C
:10487000030EE126800EF36E020EF3CFDBFF010E76
:10488000DB6A080EDF6EDF50000817E2DADF00098E
:104890000BE0020EDBCFE6FF010EDB50E552E71026
:1048A000E76E010EE7CFDBFF020EDB407F0BE76E0A
:1048B000020EE7CFDBFFDF06E6D7BEDF010EDB50DF
:1048C00000D0D9CFE1FFE552E7CFD9FF1200D9CF11
:1048D000E6FFE1CFD9FF030EE126800EF36E020E54
:1048E000F3CFDBFF010EDB6A080EDF6EDF5000083E
:1048F00017E2A7DF00090BE0020EDBCFE6FF010E97
:10490000DB50E552E710E76E010EE7CFDBFF020E4A
:10491000DB407F0BE76E020EE7CFDBFFDF06E6D75B
:1049200086DF010EDB5000D0D9CFE1FFE552E7CFA3
:10493000D9FF1200D9CFE6FFE1CFD9FF020EE12661
:10494000DE52800EDD6EDF6A080EDF5C18E2FE0EBE
:10495000DBCFE6FF010EDB50E552E714006E010EDF
:10496000DB50005C02E163DF01D066DF010EDB405B
:104970007F0BE76E010EE7CFDBFFDF2AE5D730DFE5
:1049800035DF37DF0001826F821D826F010E8215D5
:10499000826F29DF22DFD9CFE1FFE552E7CFD9FFD0
:1049A0001200D9CFE6FFE1CFD9FF040EE126F29E37
:1049B000070102510001736F746B07010351006E10
:1049C000016A00C001F0006A000173510024736F96
:1049D00074510120746F04C783F007C76BF0010E98
:1049E000886FCAEC2BF018DFA00EE66EA3DFE5524D
:1049F00082C010F7010EE66E3DEC2CF0E55200018E
:104A0000825101E19CD020EC2CF00001835103E0A5
:104A1000E66A90DFE552E66A8DDFE552FDDEA10E23
:104A2000E66E88DFE552DE6ADE6ADE6ADD6ADD5246
:104A3000DD5273C000F074C001F0026A036AD9CF7E
:104A4000E9FFDACFEAFFEE50005CEE500158EE507D
:104A50000258EE50035873E300016E6B6D6B7C0ED1
:104A60006D5D54E001DFE66E00016E51EA6A000FF1
:104A7000E96E060EEA22E552E750EF6E6E2B6E519C
:104A8000EA6A000FE96E060EEA22EF6AD9CFE9FF63
:104A9000DACFEAFFEE2A000EEE22EE22EE2273C0FB
:104AA00000F074C001F0026A036AD9CFE9FFDACFDF
:104AB000EAFF0050EE5C0150EE580250EE580350F1
:104AC000EE5821E36D2B6D2BD9CFE9FFDACFEAFF4A
:104AD000EE2A000EEE22EE22EE226E2BF8DEE66EBD
:104AE00000016E51EA6A000FE96E060EEA22E552F5
:104AF000E750EF6E6E2B6E51EA6A000FE96E060EFC
:104B0000EA22EF6A03D06E2B6D2BA9D70501005165
:104B1000006E016AFF0E001801E1015001E10FD0A3
:104B20006DC0FEF65EEC2CF005010051006E016ACE
:104B3000FF0E001801E1015001E101D07AD772DEC9
:104B40000001886BE3EC2BF0F28ED9CFE1FFE55248
:104B5000E7CFD9FF1200D9CFE6FFE1CFD9FF020E90
:104B6000E126DF6A00018751DF5C3DE272EC2CF048
:104B7000010EDB6A00016F6B64516F5D18E2010E7C
:104B8000DB50EA6A000FE96E050EEA22EF50E66E8E
:104B9000DF50EA6A8B0FE96E000EEA22E552E75019
:104BA000EF6EDF2A010EDB2ADB2A6F2BE5D7DF5001
:104BB000EA6A8B0FE96E000EEA2202C7EFFFDF2AD6
:104BC000DF50EA6A8B0FE96E000EEA2204C7EFFF9E
:104BD000DF2ADF50EA6A8B0FE96E000EEA2206C771
:104BE000EFFFDF2ABFD7D9CFE1FFE552E7CFD9FFEB
:104BF0001200D9CFE6FFE1CFD9FF060EE1260CDE89
:104C0000A00EE66E97DEE5520001825102E1000E31
:104C100033D1FC0EDBCFE6FF8DDEE5520001825181
:104C200002E1000E29D1FB0EDBCFE6FF83DEE55269
:104C30000001825102E1000E1FD1040EDB6AD9CFC0
:104C4000E9FFDACFEAFFFB0EDBCFEEFFFC0EDBCF96
:104C5000EEFFFD0EDBCFEEFFFE0EDBCFEEFF87C0DB
:104C600000F0016A026A036AD950FB0FE96EFF0E79
:104C7000DA20EA6EEE500026EE500122EE500222BB
:104C8000EE500322D9CFE9FFDACFEAFF0050EE5C05
:104C90000150EE580250EE580350EE581DE2040E3B
:104CA000DB50EA6A8B0FE96E000EEA22EF50E66EE7
:104CB00041DEE5520001825103E1040EDB50DCD0FD
:104CC000040EDB2AD9CFE9FFDACFEAFFEE2A000E85
:104CD000EE22EE22EE22C3D7A5DD0C0E00017503F5
:104CE000F350E66EF0EC03F0E55296DDA00EE66EB2
:104CF00021DEE5520001825102E1000EBDD0FC0E22
:104D0000DBCFE6FF17DEE5520001825102E1000E23
:104D1000B3D0FB0EDBCFE6FF0DDEE5520001825182
:104D200002E1000EA9D078DDA10EE66E03DEE552A9
:104D30000001825102E1000E9FD0040EDB6AD9CF40
:104D4000E9FFDACFEAFFFB0EDBCFEEFFFC0EDBCF95
:104D5000EEFFFD0EDBCFEEFFFE0EDBCFEEFF020E11
:104D60000001875D006E016A026A036AD950FB0F79
:104D7000E96EFF0EDA20EA6EEE500026EE500122B8
:104D8000EE500222EE500322D9CFE9FFDACFEAFF3C
:104D90000050EE5C0150EE580250EE580350EE58B1
:104DA00055E262DDE76E050EE7CFDBFF040EDB5058
:104DB000EA6A8B0FE96E000EEA22EF50F36E050EE1
:104DC000DB50F35C37E00701010E106F000EDFCF00
:104DD00011F7D9CFE9FFDACFEAFFEECF00F0EECF3F
:104DE00001F0EECF02F0EFCF03F0080ED8900332BF
:104DF000023201320032E806F9E100C012F7070181
:104E0000136B040EDB50EA6A8B0FE96E000EEA2288
:104E1000EFCF14F7156B050EDBCF16F7176B100EDF
:104E2000E66E3DEC2CF0E5520001010E846F040E9D
:104E3000DB5022D0040EDB2AD9CFE9FFDACFEAFF1C
:104E4000EE2A000EEE22EE22EE2289D740DDE76E3A
:104E5000050EE7CFDBFF040EDB50EA6A8B0FE96E2D
:104E6000000EEA22EF50F36E050EDB50F35C01E01A
:104E7000AAD7D8DCFF0E00D0D9CFE1FFE552E7CFAB
:104E8000D9FF1200D9CFE6FFE1CFD9FF060EE12608
:104E9000040EDB6AFE0EDB50020D040EF3CFDBFFC7
:104EA000DB50A00FE76E040EE7CFDBFFB5DC040E8E
:104EB000DBCFE6FF3FDDE5520001825102E1000E4B
:104EC000F9D0FD0EDBCFE6FF35DDE5520001825162
:104ED00002E1000EEFD0050EDB6AFD0EDBCFDEFF38
:104EE000DBCFDDFFDECF00F0DDCF01F08751E76ED5
:104EF000FD0EDBCF02F0FE0EDBCF03F0E750022603
:104F0000000E03220250005C0350015818E2050E07
:104F1000DB50EA6A8B0FE96E000EEA22EF50E66E74
:104F200009DDE5520001825103E1050EDB50C2D0DC
:104F3000050EDB2ADF2A010E01E3DB2AD3D772DC60
:104F40000C0E00017503F350E66EF0EC03F0E55231
:104F500063DC040EDBCFE6FFEDDCE552000182519D
:104F600002E1000EA7D0FD0EDBCFE6FFE3DCE55249
:104F70000001825102E1000E9DD04EDCA10EE66ED2
:104F8000D9DCE5520001825102E1000E93D0050EFA
:104F9000DB6AFD0EDBCFDEFFDBCFDDFFDECF00F017
:104FA000DDCF01F000018705E76EFD0EDBCF02F0DB
:104FB000FE0EDBCF03F0E7500226000E0322025064
:104FC000005C0350015850E24FDCE66ED950020FEE
:104FD000E96EDACFEAFFE552E750EE6EED6A020EB7
:104FE000DBCF00F0030EDBCF01F0050EDB50EA6AE9
:104FF0008B0FE96E000EEA22EF50026E036A025038
:10500000001802E10350011828E00701010E106F9B
:10501000DFCF11F7DECF00F0DDCF01F001C000F0EF
:10502000016A00C012F7136B050EDB50EA6A8B0FA2
:10503000E96E000EEA22EFCF14F7156B020EDBCFFC
:1050400016F7176B100EE66E3DEC2CF0E5520001E2
:10505000010E846F050EDB502DD0050EDB2ADF2AF2
:10506000010E01E3DB2A9AD732DCE66ED950020F3B
:10507000E96EDACFEAFFE552E750EE6EED6A020E16
:10508000DBCF00F0030EDBCF01F0050EDB50EA6A48
:105090008B0FE96E000EEA22EF50026E036A025097
:1050A000001802E10350011801E0AFD712EC24F020
:1050B000FF0E00D0D9CFE1FFE552E7CFD9FF1200B4
:1050C000D9CFE6FFE1CFD9FF060EE126F29E02C757
:1050D00073F003C774F004C787F005C775F006C7FF
:1050E000DFFF07C76BF0020EDB6A030EDB6A040EFC
:1050F000DB6A050EDB6A0001846B0001010E886F1C
:1051000049DB010EDB6AEEDB0001850501E1A8D079
:1051100000016E6B00016F6B0001645100016F5D57
:1051200001E393D000016E51EA6A000FE96E050EAB
:10513000EA22EF50E66E010EDBCFE9FFEA6AE9BE34
:10514000EA688B0EE926000EEA22E552E750EF6E80
:10515000010EDB2A00016E2B00016E2B010EDB50CD
:105160000001875D6FE1DF040EE1020EDBCFE6FF99
:10517000030EDBCFE6FF86DEE552E552E76E010E59
:10518000E7CFDBFF16D0D950020FE96EDACFEAFF86
:10519000EECFE6FFEECFE6FFEECFE6FFEFCFE6FF86
:1051A00028DDE552E552E552E552E76E010EE7CF04
:1051B000DBFF0001840501E159D0010EDB50FF083F
:1051C00021E00701C80E106F020EDBCF11F7030EAE
:1051D000DBCF12F7010EDBCF13F7010EDBCFE9FFB8
:1051E000EA6AE9BEEA688B0EE926000EEA22EFCFF2
:1051F00014F7100EE66E41DBE55212EC24F012ECCF
:1052000024F034D0010EDB6A87C000F0016A026A24
:10521000036AD950020FE96EDACFEAFFEE5000269A
:10522000EE500122EE500222EE500322020E00C088
:10523000DBFF030E01C0DBFF040E02C0DBFF050E27
:1052400003C0DBFF00016F2B67D704010969400E23
:10525000040108170401087D880E0401081353D7C0
:105260000701106B100EE66E08DBE552B1D9ABDA20
:10527000F28ED9CFE1FFE552E7CFD9FF120005C783
:105280006BF002C773F003C774F084DA07010751AB
:10529000010A09E0010A01E01FD0060EE66E0DECDE
:1052A00004F0E55219D00001716B726B04C700F075
:1052B00000C001F0006A00017151005C7251015898
:1052C0000AE3060EE66E0DEC04F0E5520001712BC8
:1052D000000E7223EBD700D00001716B726B0001DE
:1052E00071510001735D000172510001745955E361
:1052F00000016E6B00016D6B7C0E00016D5D35E091
:10530000040EE66E0DEC04F0E552F9EC04F0000139
:105310006E51EA6A000FE96E060EEA2260C0EFFFE6
:1053200000016E2B00016E51EA6A000FE96E060E55
:10533000EA2261C0EFFF060EE66E0DEC04F0E552C6
:105340000001712B000E7223000171510001735D89
:10535000000172510001745903E200016D2B05D068
:1053600000016E2B00016D2BC7D705010051006EA7
:10537000016AFF0E001801E1015001E10ED06DC07D
:10538000FEF69CDA05010051006E016AFF0E00185E
:1053900001E1015001E101D0A2D715DA1200D9CF05
:1053A000E6FFE1CFD9FFE65202C773F003C774F0FE
:1053B00006C7D3F007C7D4F00001020E756F04C70B
:1053C000DFFF05C76BF0000176690F0E776FE2D93A
:1053D000DF50010A09E0010A01E01DD0060EE66E69
:1053E0000DEC04F0E55217D00001716B726B0001F7
:1053F00071510001D35D000172510001D4590AE3DB
:10540000060EE66E0DEC04F0E5520001712B000E65
:105410007223EDD700D00001716B726B63DA00016B
:10542000850501E1C9D071C000F072C001F0026AC7
:10543000036A00016651005C0001675101580001D8
:105440006851025800016951035819E200016D6B5F
:105450007C0E00016D5D08E2060EE66E0DEC04F0B8
:10546000E55200016D2BF4D77C0E0001712500017F
:10547000716F000E000172210001726FD4D700011C
:105480006E6B00016F6B0001645100016F5D01E301
:105490007ED000016E51EA6A000FE96E050EEA2225
:1054A000EFCF78F000016E2B00016E51EA6A000F19
:1054B000E96E050EEA22EFCF79F000016E2B0001B4
:1054C00076510001781904E1000177510001791942
:1054D00056E0020EE66E0DEC04F0E55278C0E6FFF1
:1054E00079C0E6FF5EEC04F0E552E552080EE66E88
:1054F0000DEC04F0E5520C0E00017503F350E66E5E
:10550000F0EC03F0E5520E0EE66E0DEC04F0E55201
:10551000040EE66E0DEC04F0E552F9EC04F0000127
:10552000785100017615006E00016051000176157A
:10553000005C0BE10001795100017715016E00015B
:10554000615100017715015C1AE00701010E106F2F
:1055500071C011F772C000F0016A00C012F76FC08D
:1055600013F778C014F779C015F760C016F761C05B
:1055700017F729D9100EE66E80D9E55224D0060E11
:10558000E66E0DEC04F0E55200016F2B7CD70401B0
:105590000969400E040108170401087D880E040102
:1055A00008137C0E000171250001716F000E0001CF
:1055B00072210001726F32D706D90701106B100EED
:1055C000E66E5BD9E552E552E552E7CFD9FF12000E
:1055D0000F0EC112F19EF19EF00E926E8068936ADA
:1055E000980E816E0001886B1200060E0001E75DC7
:1055F00003E36D50020B01E001D001D81200D9CFB6
:10560000E6FFE1CFD9FFE652818C84D8DCD80001D7
:10561000666B676B686B696B13D93E0E0701005DA3
:1056200073E101515A0A6EE0030A6AE0140A66E067
:10563000010A62E0070A5DE0010A58E0030A53E04C
:10564000010A4EE00F0A49E0010A44E0030A3FE084
:10565000010A3AE0070A35E0010A31E0030A2CE0CA
:10566000760A27E0050A22E0010A1DE0050A18E093
:10567000070A13E0090A0FE00D0A0AE0010A05E033
:10568000040A01E041D0A9D83FD05CEC05F03CD041
:1056900049EC0EF039D04AD937D0C8EC09F034D0F3
:1056A00052EC0AF031D06DEC0FF02ED0DAEC0FF0A6
:1056B0002BD0CAEC10F028D0D1EC24F025D000DD9E
:1056C00023D043EC1AF020D07DEC1AF01DD0B7ECBB
:1056D0001AF01AD05CEC1CF017D0C3EC1DF014D0FB
:1056E0003AEC1EF011D09EEC1FF00ED0B6EC21F07B
:1056F0000BD04BEC23F008D0C2DD06D050DE04D036
:1057000092D802D060D800D087D7E552E552E7CFD3
:10571000D9FF1200200EF26E840EF16ED08ED76A81
:10572000D66AC00ED56EF28E1200D9CFE6FFE1CF59
:10573000D9FFFE0EDB50010BF36EFE0E8114F31049
:10574000816E8182FE0EDB50010BF36EFE0E811422
:10575000F310816E00000000000000008192E5520D
:10576000E7CFD9FF1200D9CFE6FFE1CFD9FFE6524C
:1057700081828180000000008192010E936E815031
:10578000010BDF6E936ADF5000D0E552E552E7CFA0
:10579000D9FF1200936A819481868188818A780E6C
:1057A000E66EF0EC03F0E552819A0001885105E1C4
:1057B0006B0502E1819801D08196780EE66EF0ECDF
:1057C00003F0E55212005C0E816E030E936E0C0E18
:1057D000E66EF0EC03F0E552120007014F0E106F79
:1057E0006B0E116F000EF66E080EF76E0800F5CF07
:1057F00012F7010EF66E080EF76E0800F5CF13F7DC
:10580000020EF66E080EF76E0800F5CF14F7030EC1
:10581000F66E080EF76E0800F5CF15F7060EE66E69
:105820002CD8E5521200936A02C781FF818C81CF88
:1058300010F702C711F7020EE66E1FD8E5521200EC
:10584000DDEC02F06FBE02D0F9EC02F0060E0001B2
:10585000E75D03E26D50020B0EE0080EE66E000EEF
:10586000E66E070EE66E36EC2EF0E552E552E55296
:10587000080801E101D0E4D71200D9CFE6FFE1CF5B
:10588000D9FF04010CBFFDD76850080B04E0695034
:10589000080B01E06896FE0EDBCFE6FF100EE66E09
:1058A000070EE66EF8EC2DF0E552E552E55268A6DB
:1058B000FED76896E552E7CFD9FF120004010CBF6E
:1058C000FDD76850080B04E06950080B01E06896AA
:1058D0000D69400E0C170C7D880E0C1368A6FED7C0
:1058E00068961200DDEC02F06FBE02D0F9EC02F017
:1058F000060E0001E75D03E26D50020B03E00401B8
:1059000008AF01D0EFD7FAC564F0FBC566F0FCC55F
:1059100067F0FDC568F0FEC585F012000401096955
:10592000400E0817087D880E0813120002C76CF09D
:1059300007C76BF02FDF7E0E00016C5D03E28BEC7E
:1059400005F002D066EC0EF03EDF07014F0E106F3F
:105950006B0E116F6CC012F7030EE66E8EDFE55210
:02596000120033
:0E596200C5EF2EF01200DACFE4FFE2CFDAFF3D
:10597000E652F2948028806EE552E5CFDAFF1100FE
:10598000D40EF66E070EF76E0800F5CF1FF0D20E9C
:10599000F66E070EF76E0800F5CF1EF0D00EF66E0D
:1059A000070EF76E0800F5CF1DF0CE0EF66E070E4F
:1059B000F76E0800F5CF1CF0CC0EF66E070EF76EF2
:1059C0000800F5CF1BF0CA0EF66E070EF76E080042
:1059D000F5CF1AF0C80EF66E070EF76E0800F5CF79
:1059E00019F0C60EF66E070EF76E0800F5CF18F028
:1059F000C40EF66E070EF76E0800F5CF17F0C20E54
:105A0000F66E070EF76E0800F5CF16F0C00EF66EB4
:105A1000070EF76E0800F5CF15F0BE0EF66E070EF6
:105A2000F76E0800F5CF14F0BC0EF66E070EF76E99
:105A30000800F5CF13F0BA0EF66E070EF76E0800E9
:105A4000F5CF12F0B80EF66E070EF76E0800F5CF20
:105A500011F0B60EF66E070EF76E0800F5CF10F0D7
:105A6000B40EF66E070EF76E0800F5CF0FF0B20E0B
:105A7000F66E070EF76E0800F5CF0EF0B00EF66E5C
:105A8000070EF76E0800F5CF0DF0AE0EF66E070E9E
:105A9000F76E0800F5CF0CF0AC0EF66E070EF76E41
:105AA0000800F5CF0BF0AA0EF66E070EF76E080091
:105AB000F5CF0AF0A80EF66E070EF76E0800F5CFC8
