:1000000088EF07F06896000C046ED8CF05F0E0CFBB
:1000100006F00001E9CF0CF0EACF07F0E1CF08F0DD
:10002000E2CF09F0D9CF0AF0DACF0BF0F3CF12F01C
:10003000F4CF13F0FACF14F0F5CF15F0F6CF16F099
:10004000F7CF17F000C00EF001C00FF002C010F0A3
:1000500003C011F0A0AA30EF00F0A1BAA2EF05F0A2
:100060000EC000F00FC001F010C002F011C003F08C
:100070000CC0E9FF07C0EAFF078E08C0E1FF09C016
:10008000E2FF0AC0D9FF0BC0DAFF12C0F3FF13C0B2
:10009000F4FF14C0FAFF15C0F5FF16C0F6FF17C035
:1000A000F7FF045006C0E0FF05C0D8FF1000F76A54
:1000B000BE0FF66E000EF7220900F550120000FF89
:1000C000FFFFFFFFFFFFFFFFFFFFFFFFFFFFF76ADD
:1000D000DE0FF66E000EF7220900F5501200400008
:1000E0000000000000000000000000000000000010
:1000F0000000000000000000000000000000F76A9F
:100100000E0FF66E010EF7220900F55012000902DB
:10011000200001010080FA0904000002FFFFFF0037
:100120000705810300000107050103000001F76ACC
:100130003E0FF66E010EF7220900F5501200010085
:10014000F76A500FF66E010EF7220900F550120003
:100150001201100100000040D80401D0000101028A
:100160000001F76A720FF66E010EF7220900F550D2
:100170001200040309040803530048004D001C0347
:10018000530068006D0075006D00610020004C0098
:10019000430044002D0055005300F76AAA0FF66E85
:1001A000010EF7220900F5501200280C01066D928D
:1001B000699468A402D06894FCD7AEEF05F0400EB5
:1001C0000401016F040E036F080E026F880E006FAA
:1001D000046B040E076F480E066F0001000C70A040
:1001E00002D0EDDF7090689AB7EF05F06A6A689206
:1001F000BDEF05F0469045BE4680459E455010082F
:1002000003E2000E016E17D046A00BD0036A4550E2
:100210004EDFFF0802E1000E01D0010E016E0BD08F
:100220000AD0036A455043DFFF0802E1000E01D007
:10023000010E016E00D0000C036A4450700FE96E8D
:100240000F0E0320EA6EEF6A44C045F0D3DF01527F
:1002500018E04450080DF350466AE96E040E462437
:10026000EA6EEF6A4450080DF350466A456E040E7C
:100270004526000E462245C0E9FF040E4624EA6EDC
:10028000EF6A000C010E436E43500F0805E343C0B4
:1002900044F0D2DF432AF8D7000C396A39520AE118
:1002A000036A3950270FE96E000E0320EA6EEF6AE9
:1002B000392AF4D71B6A010E1C6E1A6A000C6A6A8E
:1002C000686A9F0E6B6E3D0E696E6E6ADBDFE5DF5E
:1002D000160E706E68A602D095DEFCD76D986FDFA3
:1002E000030E226EC3EF05F0698468986D82C9EF32
:1002F00005F0689CCFEF05F03EC023F0000CFF0E28
:10030000236E000C3C6A265226E03C503F0823E353
:100310001D5005E0020A08E0010A0BE00FD0036A55
:100320002550EDDE3D6E0AD0036A25501ADF3D6E82
:1003300005D0036A255004DF3D6E00D0252A26062D
:100340003C503C2A036A480FE96E040E0320EA6E13
:100350003DC0EFFFD8D7265204E13C50400801E0F1
:100360001A6A3CC03EF0C8DF000C256A1D6A040111
:100370000B51010A000105E0030A08E0010A09E047
:100380001AD0120E266E030E1D6E17D0200E266E8A
:1003900014D0020E1D6E036A04010A511E0FE96E8D
:1003A000000E0320EA6EEFCF25F0036A255000010E
:1003B000D8DE266E02D0A3DF0CD004010F5305E176
:1003C00026500E5D02E20EC426F0010E1A6E0001E8
:1003D00099DFF5EF02F03B5204E1040E226E52DF8A
:1003E000B1D0050E226E040E3E6E880E3D6E010EDB
:1003F0003C6E3C500F08D8A0A5D03CC044F01CDF98
:100400003F6A036A3C5053DEFF084DE0040E3F6E26
:10041000D8903C34036A5BDE0900F5CF03F0406EF0
:1004200003C041F03C50080DF350446A436E010E86
:100430004324016E000E4420036E01C0E9FF040E48
:100440000324EA6E40C0EFFF3C50080DF350446AAD
:10045000436E020E4324016E000E4420036E01C061
:10046000E9FF040E0324EA6E3EC0ECFFED523DC0EE
:10047000EFFFD8903C34036A2ADE0900F5CF03F081
:100480003D2603503E22880E426E41B0428041B26A
:1004900042823C50080DF350446AE96E040E442435
:1004A000EA6E42C0EFFF036A3C5001DEFF0834E011
:1004B0003F823C50080DF350446A436E040E4326BD
:1004C000000E4422020E4324016E000E4420036EEF
:1004D00001C0E9FF040E0324EA6E3EC0ECFFED52BA
:1004E0003DC0EFFFD8903C34036AF1DD0900F5CF41
:1004F00003F03D2603503E223C50080DF350446A61
:10050000436E040E4326000E442243C0E9FF040E4E
:100510004424EA6E400EEF6E3F50060802E10E0ED4
:100520003F6E036A3C50C3DD0108D8A43F88036ACC
:100530003C50700FE96E0F0E0320EA6E3FC0EFFFD4
:100540003C2A57D7EFEF02F004010951000A0001DD
:100550000DE0010A14E0020A1EE0060A27E0030A81
:100560002CE00E0A2CE0010A30E03DD01CC048F41B
:100570000401496B020E3E6E0001BEDE36D004015E
:100580000A2D06D0010E1C163E6A0001B5DE02D00F
:100590000001B5DE2AD004010A2D05D01C823E6A76
:1005A0000001AADE02D00001AADE1FD0020E1A6EE0
:1005B0000AC424F03E6AA0DE18D0D7D616D01BC0DD
:1005C00048F4010E3E6E98DE10D004010A51010875
:1005D00008E30AC41BF00AC43BF00001FCD63E6AE3
:1005E0008BDE000102D08BDE00D0F2EF03F01BC0E7
:1005F0003BF004010951000A000105E00A0A0BE082
:10060000010A26E037D00401486B496B020E3E6EAA
:10061000000172DE31D03B5219E0010E3B5C036AEF
:1006200086DD016E04010C5DD8A002D000010ED061
:10063000036A0C51270FE96E000E0320EA6EEFCF1C
:1006400048F4010E3E6E000157DE01D058DE14D092
:100650003B520EE0036A04010C51270FE96E000EB5
:100660000320EA6E0AC4EFFF3E6A000145DE01D0B6
:1006700046DE02D044DE00D0F2EF03F03C903BBEF9
:100680003C803B9E3CA011D03B50080DF3503E6A8D
:100690003D6E040E3D26000E3E223DC0E9FF040ED5
:1006A0003E24EA6E880EEF6E09D03B50080DF350E1
:1006B0003E6AE96E040E3E24EA6EEF6AC0EF03F074
:1006C0003C903BBE3C803B9E3CA011D03B50080D73
:1006D000F3503E6A3D6E040E3D26000E3E223DC0A4
:1006E000E9FF040E3E24EA6E840EEF6E0AD03B5002
:1006F000080DF3503E6AE96E040E3E24EA6E840E45
:10070000EF6EC6EF03F03C903BBE3C803B9E3CA0AE
:1007100011D03B50080DF3503F6A3E6E040E3E264A
:10072000000E3F223EC0E9FF040E3F24EA6EEFCFE9
:100730003DF00AD03B50080DF3503F6AE96E040EBD
:100740003F24EA6EEFCF3DF03DAE02D03DB402D083
:10075000000E01D0010E016ED0EF03F00CC445F085
:1007600049DD015229E004010951010A000105E0B7
:10077000020A09E0030A0DE01DD00CC43BF07ED74D
:100780003E6ABADD19D00CC43BF09AD73E6AB4DD9C
:1007900013D00401486B496B0CC43BF00001B3D784
:1007A000015204E0010E0401486F0001020E3E6E8A
:1007B000A3DD02D0A4DD00D0F2EF03F01A6A040139
:1007C00008517F0B000A000105E0010A05E0030A59
:1007D00005E006D0B9D606D00AD704D0BFD702D0DC
:1007E0008EDD00D011EF05F03B50080DF350416A4B
:1007F000E96E040E4124EA6EEFCF3DF03C50020852
:1008000006E13DAC02D03C6A02D0010E3C6E3C5089
:10081000030813E1840E3D6E3B50080DF350416A0E
:10082000406E040E4026000E412240C0E9FF040E37
:100830004124EA6E840EEF6E07D03C2C03D0C80E24
:100840003D6E02D0880E3D6ED8903B34036A3FDC8B
:100850000900F5CF03F03E6E03C03FF03B50080D9A
:10086000F350416A406E010E4024016E000E41209B
:10087000036E01C0E9FF040E0324EA6E3EC0EFFFE1
:100880003FB03D803FB23D823B50080DF350416A7E
:10089000E96E040E4124EA6E3DC0EFFF000C036ACE
:1008A0004050700FE96E0F0E0320EA6EEF5212E017
:1008B0004050080DF350426A416E040E4126000E6E
:1008C000422241C0E9FF040E4224EA6EEFCF41F01C
:1008D00041AE02D0000E01D0010E016E73EF04F0A4
:1008E0003BC040F0DCD7015262E03B50080DF350B2
:1008F000416A406E040E4026000E4122010E402443
:10090000016E000E4120036E01C0E9FF040E0324B6
:10091000EA6E3CC0EFFF3E50020817E13B50080D65
:10092000F350416A406E040E4026000E412240C042
:10093000E9FF040E4124EA6EEFCF3FF03FAC02D056
:100940003E6A02D0010E3E6E13D03E50040810E104
:100950003B50080DF350416AE96E040E4124EA6EE3
:10096000EFCF3FF03FAC03D0010E3E6E01D03E6AA8
:100970003E2C03D0C80E3F6E02D0880E3F6E3DB0B5
:100980003F803DB23F823B50080DF350416A406EBC
:10099000040E4026000E412240C0E9FF040E41240F
:1009A000EA6E3FC0EFFF010E016E03D000D0000ED3
:1009B000016E000C3B5200E1000C3CC06EFF3C524B
:1009C00003E0040E226E02D0020E226EEDEF04F060
:1009D0001B6A1A6A24C03CF0F0D7F9EF04F03B52CE
:1009E00008E11A2C02D08EDC04D01A50020801E172
:1009F000EFD7000C2130396E393239321F0E3916DB
:100A0000215242E1040100513C0B3A6E430E0017A3
:100A10003A5034081EE10451800B01E0046B0001E0
:100A2000CDD66D98233C05D03B6A030E3C6EDCDED0
:100A30000ED03B6A020E3C6ED7DE2350FE0807E064
:100A40003B6A3D6A23C03CF0040E3E6E49DF19D07C
:100A500004013A50040816E13B6A0001ABDF3B6A2F
:100A6000020E3C6EC1DE2350FE080AE0233C01D09A
:100A700007D03B6A3D6A23C03CF0010E3E6E30DF7A
:100A800000D004015CD000012150040814E1430EA1
:100A900004010417FF0E236E3B6A0001A0DF233C14
:100AA00001D008D03B6A3D6A23C03CF0020E3E6E86
:100AB00017DF00D043D021B41BD03950080DF350BC
:100AC0003C6A016E040E3C24036E3950080DF3504D
:100AD0003E6AE96E040E3E24EA6EEF50430B03C0FB
:100AE000EAFF01C0E9FFEF6E39C03BF063DF26D0BB
:100AF0003950080DF3503C6A3B6E040E3B26000E45
:100B00003C223BC001F0040E3C24036E3950080D1A
:100B1000F3503E6A3D6E040E3D26000E3E223DC05F
:100B2000E9FF040E3E24EA6EEF50430B03C0EAFFD8
:100B30003BC0E9FFEF6E39C03BF051DF040100011B
:100B4000D9EF05F0A19A225201E139D0685237E07D
:100B500068A404D069A402D0D7EF00F06DA201D040
:100B60002ED068AA04D069AA02D0EFEF00F068A2E4
:100B700004D069A202D0F6EF00F068A004D069A00A
:100B800002D05FEF01F068A804D069A802D074EF2A
:100B900001F068AC04D069AC02D079EF01F0386A9A
:100BA00068A608D069A606D06CCF21F002EC00F050
:100BB00021D701D004D03850382A0308F1E230EFB1
:100BC00000F0456E756D3A20312C2000456E756D34
:100BD0003A20302C20004174743A203100004174D6
:100BE000743A203000006D6A696A080E6F6E945086
:100BF0003009946E226A196AF2BE198EF29E4DEC8B
:100C000001F019BEF28E06EF06F0EDD72BEF06F0DD
:100C1000196AF2BE198EF29E4DEC01F019BEF28EE9
:100C20006D6A140E6F6E696A6D86010E226E1CEF7E
:100C300006F06DB601D0ECD7222C0BD06DBA09D0DE
:100C4000686A696AA08AC00EF212110E696E020EFD
:100C5000226E000CDAD7EDDF22500208FCE19EEF95
:100C600007F0EA6A2D0EE96EEF500EE00F0E016EEE
:100C7000006A002EFED7012EFBD78F0E006E002ECD
:100C8000FED70000EF2EF2D7000C35B002D08998C5
:100C900001D08988929835B202D0899A01D0898A88
:100CA000929A35B402D08A9601D08A86939635B648
:100CB00002D08A9801D08A88939800008A849394FD
:100CC000070E006E002EFED700D08A949394000C7D
:100CD000366A9288000E80B8010E3612928A000E93
:100CE00080BA010E006ED8900036005036129386FE
:100CF000000E81B6010E006E00360036FC0E0016A6
:100D0000005036129388000E81B8010E006E003636
:100D100000360036F80E00160050361236C001F0CC
:100D2000000C9288928A938693888A82939200001C
:100D30008A8493940000CCDF01C035F08A949394A8
:100D400000008A849394030E006E002EFED700D01C
:100D5000BFDF01C034F08A9493949298929A93964C
:100D600093983538006EF00E001600503410016E66
:100D7000C0EF06F09394939093928A909390D1D77A
:100D800001C034F001BEFBD7325202E18A9001D09B
:100D90008A80939000008A92939200008A949394A0
:100DA0003338346E0F0E341634C035F06EDF3350E6
:100DB0000F0B346E356E69DF000C9298929A939601
:100DC00093989394939093928A9093908A9293920B
:100DD0008A9493940F0E2D6E44DF010E2A6E2A50D2
:100DE00003080AE3030E356E50DF356A4EDF050E49
:100DF0002D6E37DF2A2AF3D7020E356E46DF356AAD
:100E000044DF050E2D6E2DDF2A6A2A5003080AE3FF
:100E1000036A2A50CDEC00F02B6E326A336EAADFE3
:100E20002A2AF3D7286A296A9FEF07F02F2C01D0CE
:100E300003D0400E306E01D0306A010E2E5C302699
:100E400030508009316E326A336E94DF010E2E5CB1
:100E5000286E010E2F5C296E000C2C50070A09E049
:100E60000B0A0CE0010A14E0070A1BE0020A2CE05E
:100E700030D0010E2E6E2F6ED9DF35D0326A010EC2
:100E8000336E78DF020E2D6EECDE286A296A2BD0D5
:100E9000010E29242D6E010E2E6E2DC02FF0C6DFFF
:100EA00022D02850282A130806E3010E326E200EA5
:100EB000336E60DFF6D7020E29242D6E010E2E6EE2
:100EC0002DC02FF0B3DF0FD0326A100E336E52DF19
:100ED0000AD02850130806E3010E326E2CC033F0FE
:100EE00049DF282A00D0000C1B50016EA7EF07F045
:100EF0000900F5520CE0F6CF2AF0F7CF2BF0F5CF32
:100F00002CF0ABDF2AC0F6FF2BC0F7FFF1D7000CA7
:100F1000F86AD09E078EEA6AE96A226A266AC15098
:100F2000C00B0F09C16E070EB46E1E6A040E1F6E51
:100F30000C0E206EB16AC00EF2128CD63ED7010E96
:100F40002D6E8FDE76DE0C0E2C6E87DFCDD7015234
:100F500006E0C20EF66E0B0EF76ECADF05D0CC0EA1
:100F6000F66E0B0EF76EC4DFD60EF66E0B0EF76E36
:0C0F7000BFDF640E2D6E75DEE5D70300B8
:020000040030CA
:0E0000003ACE390E000581000FC00FE00F4010
:00000001FF
;PIC18F2550
;CRC=3650  CREATED="05-фев-11 22:55"
