:10000000F9EF09F06896000C046ED8CF05F0E0CF48
:1000100006F00001E9CF0CF0EACF07F0E1CF08F0DD
:10002000E2CF09F0D9CF0AF0DACF0BF0F3CF12F01C
:10003000F4CF13F0FACF14F0F5CF15F0F6CF16F099
:10004000F7CF17F000C00EF001C00FF002C010F0A3
:1000500003C011F0A0AA30EF00F0A1BA42EF06F001
:100060000EC000F00FC001F010C002F011C003F08C
:100070000CC0E9FF07C0EAFF078E08C0E1FF09C016
:10008000E2FF0AC0D9FF0BC0DAFF12C0F3FF13C0B2
:10009000F4FF14C0FAFF15C0F5FF16C0F6FF17C035
:1000A000F7FF045006C0E0FF05C0D8FF1000F76A54
:1000B000BE0FF66E000EF7220900F5501200000286
:1000C000FFFFFFFFFFFFFFFFFFFFFFFFFFFFF76ADD
:1000D000DE0FF66E000EF7220900F5501200400008
:1000E00040000000000000000000000000000000D0
:1000F0000000000000000000000000000000F76A9F
:100100000E0FF66E010EF7220900F55012000902DB
:10011000200001010080320904000002FFFFFF00FF
:100120000705810340000107050103400001F76A4C
:100130003E0FF66E010EF7220900F5501200010085
:10014000F76A500FF66E010EF7220900F550120003
:100150001201000200000040D80401D00001010299
:100160000001F76A720FF66E010EF7220900F550D2
:100170001200040309040803530048004D001E0345
:10018000530068006D0075006D00610020004C0098
:10019000430044002D00550053004200F76AAC0FA5
:1001A000F66E010EF7220900F5501200280C010628
:1001B0006D92699468A402D06894FCD74EEF06F063
:1001C000400E0401016F040E036F100E026F880EC3
:1001D000006F046B040E076F500E066F0001000CD9
:1001E00070A002D0EDDF7090689A57EF06F06A6A4F
:1001F00068925DEF06F0A991A8BFA981A89FA851B8
:10020000100803E2000E016E17D0A9A10BD0036AFB
:10021000A8514DDFFF0802E1000E01D0010E016E72
:100220000BD00AD0036AA85142DFFF0802E1000E9A
:1002300001D0010E016E00D0000CA851AA03F3CF2B
:1002400001F0F4CF00F0AB03F3500026A951AA034C
:10025000F3500020026E000C036AA751700FE96E84
:100260000F0E0320EA6EEF6AA7C0A8F0C4DF0152A8
:1002700022E0A96BA7C0A8F0AB6B080EAA6FDDDF68
:1002800001C0E9FF040E0224EA6EEF6AA96BA7C061
:10029000A8F0AB6B080EAA6FD0DF02C0A9F001C0B6
:1002A000A8F0040EA827000EA923A8C0E9FF040E99
:1002B000A925EA6EEF6A000C010EA66FA6510F0881
:1002C00005E3A6C0A7F0C8DFA62BF8D7000C9C6BEF
:1002D0009C530AE1036A9C51270FE96E000E03202C
:1002E000EA6EEF6A9C2BF4D71B6A010E1C6E1A6A29
:1002F000000C6A6A686A9F0E6B6E3D0E696E6E6ACC
:10030000DBDFE5DF160E706E68A602D07BDEFCD761
:100310006D9856DF030E226E63EF06F069846898CD
:100320006D8269EF06F0689C6FEF06F0A1C023F0C4
:10033000000CFF0E236E000C9F6B265226E09F518F
:100340003F0823E31D5005E0020A08E0010A0BE024
:100350000FD0036A2550D3DEA06F0AD0036A255060
:1003600000DFA06F05D0036A2550EADEA06F00D041
:10037000252A26069F519F2B500FE96E040EEA6E28
:10038000D8B0EA2AA0C0EFFFD8D7265204E19F5187
:10039000400801E01A6A9FC0A1F0C8DF000C256A7E
:1003A0001D6A04011351010A000105E0030A08E077
:1003B000010A09E01AD0120E266E030E1D6E17D028
:1003C000200E266E14D0020E1D6E036A0401125117
:1003D0001E0FE96E000E0320EA6EEFCF25F0036AD0
:1003E00025500001BEDE266E02D0A3DF0CD0040132
:1003F000175305E12650165D02E216C426F0010EE1
:100400001A6E000199DF27EF03F09E5304E1040EFA
:10041000226E52DFC9D0050E226E040EA16F900E1F
:10042000A06F010E9F6F9F510F08D8A0BDD09FC035
:10043000A7F012DFA26B036A9F5139DEFF0859E073
:10044000040EA26FD8909F35036A41DE0900F5CFF4
:1004500003F0A36F03C0A4F0A96B9FC0A8F0AB6B1F
:10046000080EAA6FEADE01C0A6F0010E0124016E9B
:10047000000E0220036E01C0E9FF040E0324EA6EA1
:10048000A3C0EFFFA96B9FC0A8F0AB6B080EAA6FCB
:10049000D4DE01C0A6F0020E0124016E000E02207F
:1004A000036E01C0E9FF040E0324EA6EA1C0ECFF55
:1004B000ED52A0C0EFFFD8909F35036A08DE090017
:1004C000F5CF03F0A0270350A123880EA56FA4B198
:1004D000A581A4B3A583A96B9FC0A8F0AB6B080E40
:1004E000AA6FABDE01C0E9FF040E0224EA6EA5C0CC
:1004F000EFFF036A9F51DBDDFF0840E0A283A96B99
:100500009FC0A8F0AB6B080EAA6F97DE02C0A7F0E1
:1005100001C0A6F0040EA627000EA723020EA625F2
:10052000016E000EA721036E01C0E9FF040E032433
:10053000EA6EA1C0ECFFED52A0C0EFFFD8909F354E
:10054000036AC5DD0900F5CF03F0A0270350A123FE
:10055000A96B9FC0A8F0AB6B080EAA6F6EDE02C03D
:10056000A7F001C0A6F0040EA627000EA723A6C080
:10057000E9FF040EA725EA6E400EEF6EA2510608B1
:1005800002E10E0EA26F036A9F5191DD0108D8A40B
:10059000A289036A9F51700FE96E0F0E0320EA6E65
:1005A000A2C0EFFF9F2B3FD721EF03F004011151B1
:1005B000000A00010DE0010A14E0020A1EE0060A2A
:1005C00027E0030A2CE00E0A2CE0010A30E03DD0BF
:1005D0001CC050F40401516B020E0001A16FA6DE95
:1005E00036D00401122D06D0010E1C160001A16B9D
:1005F0009DDE02D000019DDE2AD00401122D05D01F
:100600001C820001A16B92DE02D0000192DE1FD09D
:10061000020E1A6E12C424F0A16B88DE18D0BFD669
:1006200016D01BC050F4010EA16F80DE10D0040163
:100630001251010808E312C41BF012C49EF000011D
:10064000E4D6A16B73DE000102D073DE00D042EF6E
:1006500004F01BC09EF004011151000A000105E0E6
:100660000A0A0BE0010A26E037D00401506B516BF7
:10067000020E0001A16F5ADE31D09E5319E0010E27
:100680009E5D036A54DD016E0401145DD8A002D0A2
:1006900000010ED0036A1451270FE96E000E0320EB
:1006A000EA6EEFCF50F4010E0001A16F3FDE01D0E2
:1006B00040DE14D09E530EE0036A04011451270F4C
:1006C000E96E000E0320EA6E12C4EFFF0001A16B79
:1006D0002DDE01D02EDE02D02CDE00D042EF04F061
:1006E0009F919EBF9F819E9F9FA117D0A96B9EC087
:1006F000A8F0AB6B080EAA6FA0DD02C0A1F001C08C
:10070000A0F0040EA027000EA123A0C0E9FF040E54
:10071000A125EA6E880EEF6E0DD0A96B9EC0A8F0E1
:10072000AB6B080EAA6F89DD01C0E9FF040E02243D
:10073000EA6EEF6A10EF04F09F919EBF9F819E9F2B
:100740009FA117D0A96B9EC0A8F0AB6B080EAA6F33
:1007500074DD02C0A1F001C0A0F0040EA027000EBD
:10076000A123A0C0E9FF040EA125EA6E840EEF6E5E
:100770000ED0A96B9EC0A8F0AB6B080EAA6F5DDD12
:1007800001C0E9FF040E0224EA6E840EEF6E16EF3C
:1007900004F09F919EBF9F819E9F9FA117D0A96B40
:1007A0009EC0A8F0AB6B080EAA6F47DD02C0A2F096
:1007B00001C0A1F0040EA127000EA223A1C0E9FFF1
:1007C000040EA225EA6EEFCFA0F00ED0A96B9EC05A
:1007D000A8F0AB6B080EAA6F30DD01C0E9FF040E74
:1007E0000224EA6EEFCFA0F0A0AF02D0A0B502D0F5
:1007F000000E01D0010E016E20EF04F014C4A8F029
:10080000FADC015229E004011151010A000105E05E
:10081000020A09E0030A0DE01DD014C49EF060D75F
:10082000A16B84DD19D014C49EF086D7A16B7EDD48
:1008300013D00401506B516B14C49EF00001A9D772
:10084000015204E0010E0401506F0001020EA16F7D
:100850006DDD02D06EDD00D042EF04F01A6A0401B3
:1008600010517F0B000A000105E0010A05E0030AB0
:1008700005E006D09BD606D0ECD604D0BFD702D078
:1008800058DD00D097EF05F0A96B9EC0A8F0AB6BC8
:10089000080EAA6FD2DC01C0E9FF040E0224EA6E42
:1008A000EFCFA0F09F51020806E1A0AD02D09F6BF0
:1008B00002D0010E9F6F9F51030819E1840EA06FB3
:1008C000A96B9EC0A8F0AB6B080EAA6FB6DC02C085
:1008D000A4F001C0A3F0040EA327000EA423A3C01C
:1008E000E9FF040EA425EA6E840EEF6E07D09F2D5B
:1008F00003D0C80EA06F02D0880EA06FD8909E358E
:10090000036A67EC00F00900F5CF03F0A16F03C0A4
:10091000A2F0A96B9EC0A8F0AB6B080EAA6F8DDC8D
:1009200001C0A3F0010E0124016E000E0220036E2F
:1009300001C0E9FF040E0324EA6EA1C0EFFFA2B1DB
:10094000A081A2B3A083A96B9EC0A8F0AB6B080ED8
:10095000AA6F73DC01C0E9FF040E0224EA6EA0C096
:10096000EFFF000C036AA351700FE96E0F0E032016
:10097000EA6EEF5218E0A96BA3C0A8F0AB6B080EAB
:10098000AA6F5BDC02C0A5F001C0A4F0040EA4278E
:10099000000EA523A4C0E9FF040EA525EA6EEFCF43
:1009A000A4F0A4AF02D0000E01D0010E016EDCEF66
:1009B00004F09EC0A3F0D6D70152D8B47AD0A96B68
:1009C0009EC0A8F0AB6B080EAA6F37DC02C0A4F083
:1009D00001C0A3F0040EA327000EA423010EA3253B
:1009E000016E000EA421036E01C0E9FF040E032472
:1009F000EA6E9FC0EFFFA15102081DE1A96B9EC0E6
:100A0000A8F0AB6B080EAA6F18DC02C0A4F001C0FE
:100A1000A3F0040EA327000EA423A3C0E9FF040E35
:100A2000A425EA6EEFCFA2F0A2AD02D0A16B02D056
:100A3000010EA16F18D0A151040815E1A96B9EC049
:100A4000A8F0AB6B080EAA6F1DEC01F001C0E9FF26
:100A5000040E0224EA6EEFCFA2F0A2AD03D0010E85
:100A6000A16F01D0A16BA12D03D0C80EA26F02D03F
:100A7000880EA26FA0B1A281A0B3A283A96B9EC071
:100A8000A8F0AB6B080EAA6F1DEC01F002C0A4F039
:100A900001C0A3F0040EA327000EA423A3C0E9FF06
:100AA000040EA425EA6EA2C0EFFF010E016E03D072
:100AB00000D0000E016E000C9E5300E1000C9FC0A0
:100AC0006EFF9F5303E0040E226E02D0020E226ED0
:100AD0006FEF05F01B6A1A6A24C09FF0F0D77BEF16
:100AE00005F09E5308E11A2C02D026DC04D01A50DF
:100AF000020801E1EFD7000C21309C6F9C339C333E
:100B00001F0E9C17215242E1040100513C0B0001D1
:100B10009D6F430E0401001700019D5134081EE132
:100B200004010451800B01E0046B000197D66D981D
:100B3000233C05D09E6B030E9F6FA6DE0ED09E6BEE
:100B4000020E9F6FA1DE2350FE0807E09E6BA06B94
:100B500023C09FF0040EA16F2CDF17D09D51040815
:100B600014E19E6BA9DF9E6B020E9F6F8DDE2350FA
:100B7000FE080AE0233C01D007D09E6BA06B23C087
:100B80009FF0010EA16F15DF00D07AD0215004082C
:100B900014E1430E04010417FF0E236E00019E6B47
:100BA000A0DF233C01D008D09E6BA06B23C09FF038
:100BB000020EA16FFEDE00D063D021B42AD0A96B53
:100BC0009CC0A8F0AB6B080EAA6F1DEC01F001C031
:100BD0009EF001C001F0040E0224036E01C09EF0DD
:100BE0009F6FA96B9CC0A8F0AB6B080EAA6F1DECA1
:100BF00001F001C0E9FF040E0224EA6EEF50430B3E
:100C00009FC0EAFF9EC0E9FFEF6E9CC09EF054DFDC
:100C100037D0A96B9CC0A8F0AB6B080EAA6F1DEC77
:100C200001F002C09FF001C09EF0040E9E27000E4E
:100C30009F239EC001F0040E9F25036E9EC09EF070
:100C40009F6FA96B9CC0A8F0AB6B080EAA6F1DEC40
:100C500001F002C0A1F001C0A0F0040EA027000E18
:100C6000A123A0C0E9FF040EA125EA6EEF50430BBB
:100C70009FC0EAFF9EC0E9FFEF6E9CC09EF031DF8F
:100C800079EF06F0A19A225201E139D0685237E09B
:100C900068A404D069A402D0D8EF00F06DA201D0FE
:100CA0002ED068AA04D069AA02D0F0EF00F068A2A2
:100CB00004D069A202D0F7EF00F068A004D069A0C8
:100CC00002D079EF01F068A804D069A802D08EEFB5
:100CD00001F068AC04D069AC02D093EF01F09B6BDB
:100CE00068A608D069A606D06CCF21F002EC00F00F
:100CF00003D701D004D09B519B2B0308F1E230EFC6
:100D000000F0454E3A2031002C204461743A2025F1
:100D10006400454E3A2030006D6A696A080E6F6EB5
:100D200094503009946E226A196AF2BE198EF29EAE
:100D300067EC01F019BEF28E9FEF06F0EDD7C4EF1D
:100D400006F0196AF2BE198EF29E67EC01F019BE28
:100D5000F28E6D6A140E6F6E696A6D86010E226ED8
:100D6000B5EF06F06DB601D0ECD7222C0BD06DBAE2
:100D700009D0686A696AA08AC00EF212110E696E03
:100D8000020E226E000CDAD7EDDF22500208FCE1E1
:100D90002CEF0AF0EA6A8D0EE96EEF500EE00F0EAE
:100DA000016E006A002EFED7012EFBD78F0E006E5B
:100DB000002EFED70000EF2EF2D7000C95B102D026
:100DC000899801D08988929895B302D0899A01D0E8
:100DD000898A929A95B502D08A9601D08A8693968E
:100DE00095B702D08A9801D08A88939800008A84A7
:100DF0009394070E006E002EFED700D08A94939431
:100E0000000C966B9288000E80B8010E9613928AA1
:100E1000000E80BA010E006ED89000360050961376
:100E20009386000E81B6010E006E00360036FC0E71
:100E30000016005096139388000E81B8010E006EC4
:100E4000003600360036F80E00160050961396C095
:100E500001F0000C9288928A938693888A829392FA
:100E600000008A8493940000CCDF01C095F08A943E
:100E7000939400008A849394030E006E002EFED794
:100E800000D0BFDF01C094F08A9493949298929A14
:100E9000939693989539006EF00E001600509411B9
:100EA000016E59EF07F09394939093928A909390E8
:100EB000D1D701C094F001BEFBD7925302E18A90D2
:100EC00001D08A80939000008A92939200008A94C5
:100ED00093949339946F0F0E941794C095F06EDF2E
:100EE00093510F0B946F956F69DF000C9298929A53
:100EF000939693989394939093928A9093908A92D6
:100F000093928A9493940F0E8D6F44DF010E876F36
:100F1000875103080AE3030E956F50DF956B4EDF90
:100F2000050E8D6F37DF872BF3D7020E956F46DFE7
:100F3000956B44DF050E8D6F2DDF876B875103089E
:100F40000AE3036A8751CEEC00F0886F926B936FCF
:100F5000AADF872BF3D7286A296A2DEF0AF08F2D95
:100F600001D003D0400E906F01D0906B010E8E5DCA
:100F7000902790518009916F926B936F94DF010ECF
:100F80008E5D286E010E8F5D296E000C8C51070A54
:100F900009E00B0A0CE0010A14E0070A1BE0020A50
:100FA0002CE030D0010E8E6F8F6FD9DF35D0926B71
:100FB000010E936F78DF020E8D6FECDE286A296ACE
:100FC0002BD0010E29248D6F010E8E6F8DC08FF0F6
:100FD000C6DF22D02850282A130806E3010E926F9C
:100FE000200E936F60DFF6D7020E29248D6F010E5D
:100FF0008E6F8DC08FF0B3DF0FD0926B100E936F9A
:1010000052DF0AD02850130806E3010E926F8CC0FD
:1010100093F049DF282A00D0000C1B50016E000C11
:101020000900F5520CE0F6CF8AF0F7CF8BF0F5CF40
:101030008CF0ACDF8AC0F6FF8BC0F7FFF1D7000C55
:1010400086C0EAFF85C0E9FF90C0EFFFE92AD8B467
:10105000EA2AEF6A852BD8B4862B000C0900F6CF5C
:101060008BF0F7CF8CF0F5CF90F0EADF8BC0F6FF76
:101070008CC0F7FF8A2FF2D7D0EF08F09151016AA8
:10108000905D03E290C000F00CD0006A080E926FF1
:10109000903700369151005CD8B0006E0136922F27
:1010A000F7D7000C200E8BA9300E8C6F8AC000F091
:1010B0008AAF07D0001E002A00C08AF02D0E8C6F68
:1010C0008B8F01508AC090F0640E916FD7DF00C003
:1010D0008AF0300E01248D6F8AC090F00A0E916F55
:1010E000CDDF300E00248F6F300E01248E6F8CC048
:1010F00000F08BA702D08BAF8B958BB90BD08BAF49
:1011000022D08BB520D000C08DF08BB31CD000C096
:101110008EF019D0300E8D5D16E100C08DF0200EDE
:101120008C6F8BA704D08B958B838BAF8B93300EFA
:101130008E5D09E100C08EF0200E8D6F8BA7F7D772
:101140008B938BAF8B918BA503D08CC090F078DF05
:101150008BA303D08DC090F073DF8BA103D08EC022
:1011600090F06EDF8FC090F06BDFD5EF08F0886BEA
:101170006B0E876F010E8E6F8F6FF1DE4EDF0152A7
:101180002CE0020EF66E0D0EF76E4ADF866B6B0ECC
:10119000856F080EF66E0D0EF76E070E8A6F5ED71E
:1011A0006AC08AF01F0E8B6F7DD788C003F087C09E
:1011B000E9FF88C0EAFFEF520FE088C003F08751D3
:1011C000872BD8B4882BE96E03C0EAFFEFCF8AF0F3
:1011D0008AC08CF0DBDEE9D705D0120EF66E0D0E5C
:1011E000F76E1EDF010E8E6F020E8F6FB8DE896BF9
:1011F0006A51895D17E2036A89512A0FE96E000E70
:101200000320EA6EEF520CE0036A89512A0FE96E5F
:10121000000E0320EA6EEFCF8AF08AC08CF0B6DEB3
:10122000892BE6D70A0E8C6FB1DE140E8E6F010E7D
:101230008F6F95DE036A8051810FE96E000E0320E7
:10124000EA6EEFCF8AF08AC08CF0A0DE010E802516
:10125000030B806F34EF0AF0036A8751700FE96E59
:101260000F0E0320EA6EEF5219E0196AF2BE198ED2
:10127000F29EA96B87C0A8F0AB6B080EAA6F1DEC9D
:1012800001F019BEF28E02C089F001C0E9FF040E20
:101290000224EA6EEFCF88F088AF02D0000E01D0B2
:1012A000010E016E3BEF0AF0196AF2BE198EF29E32
:1012B000A96B8CC0A8F0AB6B080EAA6F1DEC01F0F7
:1012C00019BEF28E01C096F0020E0124016E000ECE
:1012D0000220036E01C0E9FF040E0324EA6EECCF86
:1012E00003F0ED52EFCF91F003C092F0196AF2BE15
:1012F000198EF29EA96B8CC0A8F0AB6B080EAA6F7A
:101300001DEC01F019BEF28E01C096F0010E012411
:10131000016E000E0220036E01C0E9FF040E0324DB
:10132000EA6EEF50036A946F03C095F0196AF2BE3B
:10133000198EF29EA96B8CC0A8F0AB6B080EAA6F39
:101340001DEC01F019BEF28E01C0E9FF040E02246B
:10135000EA6EEFCF93F093B1958193B39583955156
:10136000905D08E303E18F51945D04E295C090F035
:1013700094C08FF08EC0EAFF8DC0E9FF92C0E2FFFB
:1013800091C0E1FF90C002F08FC001F0015202E075
:10139000022A02D0025206E0E6CFEEFF012EFCD771
:1013A000022EFAD78FC001F090C002F0E3EF09F0EF
:1013B00087C08CF089C08EF088C08DF08BC090F013
:1013C0008AC08FF071D702C08BF001C08AF0196A11
:1013D000F2BE198EF29E87C09EF0020E9F6F44EC03
:1013E00004F019BEF28E8AC001F08BC002F046EF05
:1013F0000AF0F86AD09E078EEA6AE96A226A266ACB
:10140000866B856BC150C00B0F09C16E070EB46EA1
:101410001E6A040E1F6E0C0E206E6B6B6C6B6D6B78
:101420006E6B6F6B706B716B726B736B746B756BD8
:10143000766B776B786B796B7A6B7B6B7C6B7D6B88
:101440007E6B7F6BEF0E816FEE0E826F200E836FCF
:10145000EE0E846FB16A97D449D50C0E8C6F96DD71
:10146000010E8D6F97DC83D67DDCD7DD015210E055
:10147000010E876FF1D601520BE0010E876F896B69
:101480002A0E886F8B6B400E8A6F92D701C06AF06C
:0A149000640E8D6F7FDCE7D70300C8
:020000040030CA
:0E0000003ACE390E000581000FC00FE00F4010
:00000001FF
;PIC18F2550
;CRC=7E57  CREATED="06-фев-11 15:29"
