:020000040000FA
:020000000228D4
:0C0004008316183085000030860083123F
:100010000430850000308600051E0828851D08284C
:10002000051E1528061E1528102800308500803072
:1000300092002030930012088600921F2228851D0E
:1000400035282D28121C2928851D3728051E3628FD
:100050002D28051E5928851D35286520930B1D2840
:100060000310920C0318352819285F2859280030EE
:100070008500013092002030930012088600121C87
:100080004428051E57284F28921F4B28051E152867
:10009000851D58284F28051E5728851D582865207E
:1000A000930B3D280310920D031857283B2859281D
:1000B0005F280030860085146C20851008280030E9
:1000C000860005146C2005100828C8309000000038
:1000D0000000900B67280800643091006520910BA8
:0400E0006E2808007E
:00000001FF
