:100000003EEF01F0F76A140FF66E000EF7220900BA
:10001000F5501200280C01060C4C4344204F4B00B5
:10002000EA6A080EE96EEF500EE00F0E016E006AEC
:10003000002EFED7012EFBD78F0E006E002EFED7AE
:100040000000EF2EF2D7000C0FB002D0899801D03B
:10005000898892980FB202D0899A01D0898A929A9F
:100060000FB402D08A9601D08A8693960FB602D03A
:100070008A9801D08A88939800008A849394070E06
:10008000006E002EFED700D08A949394000C106A64
:100090009288000E80B8010E1012928A000E80BA6B
:1000A000010E006ED8900036005010129386000E9C
:1000B00081B6010E006E00360036FC0E00160050B0
:1000C00010129388000E81B8010E006E00360036C3
:1000D0000036F80E00160050101210C001F0000C8F
:1000E0009288928A938693888A82939200008A8467
:1000F00093940000CCDF01C00FF08A949394000029
:100100008A849394030E006E002EFED700D0BFDFCA
:1001100001C00EF08A9493949298929A9396939831
:100120000F38006EF00E001600500E10016E9FEF9B
:1001300000F09394939093928A909390D1D701C0BA
:100140000EF001BEFBD70C5202E18A9001D08A80EA
:10015000939000008A92939200008A9493940D38B1
:100160000E6E0F0E0E160EC00FF06EDF0D500F0B41
:100170000E6E0F6E69DF000C9298929A9396939888
:100180009394939093928A9093908A9293928A9464
:1001900093940F0E086E44DF010E056E05500308A0
:1001A0000AE3030E0F6E50DF0F6A4EDF050E086E76
:1001B00037DF052AF3D7020E0F6E46DF0F6A44DFE2
:1001C000050E086E2DDF056A0550030809E3036A72
:1001D000055018DF066E0C6A0D6EABDF052AF4D7EA
:1001E00049EF01F0092C01D003D0400E0A6E01D076
:1001F0000A6A010E085C0A260A5080090B6E0C6A16
:100200000D6E97DF000C0750070A07E00B0A0AE0A3
:10021000060A10E0020A14E018D0010E086E096EFA
:10022000E1DF19D00C6A010E0D6E83DF020E086E3D
:10023000F7DE11D0010E086E020E096ED3DF0BD06F
:100240000C6A100E0D6E75DF06D0010E0C6E07C025
:100250000DF06FDF00D037EF01F00900F5520CE030
:10026000F6CF05F0F7CF06F0F5CF07F0CCD705C0F5
:10027000F6FF06C0F7FFF1D751EF01F0F86AD09E04
:10028000EA6AE96AC150C00B0F09C16E070EB46E6D
:1002900073D7140E086EC4DE180EF66E000EF76EDD
:0C02A000DCD7640E086EBCDEFCD7030047
:020000040030CA
:0E00000022CE390E000581000FC00FE00F4028
:00000001FF
;PIC18F2550
;CRC=98F0  CREATED="05-фев-11 17:53"
