:040000001FEF0BF0F3
:08000800046ED8CF05F0E0CF33
:1000100006F00001E9CF0CF0EACF07F0E1CF08F0DD
:10002000E2CF09F0D9CF0AF0DACF0BF0F3CF12F01C
:10003000F4CF13F0FACF14F0F5CF15F0F6CF16F099
:10004000F7CF17F000C00EF001C00FF002C010F0A3
:1000500003C011F09DAA30EF00F09EBAE3EF08F064
:10006000A0AA36EF00F0A1BAA2EF06F00EC000F091
:100070000FC001F010C002F011C003F00CC0E9FF86
:1000800007C0EAFF078E08C0E1FF09C0E2FF0AC00F
:10009000D9FF0BC0DAFF12C0F3FF13C0F4FF14C086
:1000A000FAFF15C0F5FF16C0F6FF17C0F7FF0450A2
:1000B00006C0E0FF05C0D8FF1000F76ACA0FF66E51
:1000C000000EF7220900F55012000003FFFFFFFFAA
:1000D000FFFFFFFFFFFFFFFFFFFFF76AEA0FF66E6C
:1000E000000EF7220900F550120040004000000009
:1000F0000000000000000000000000000000000000
:1001000000000000000000000000F76A1A0FF66E01
:10011000010EF7220900F55012000600FF0901A1A7
:1001200001190129081580257F7508950881021994
:10013000012908750895089102C0F76A4A0FF66E02
:10014000010EF7220900F55012000000F76A5C0F5B
:10015000F66E010EF7220900F55012002000F76A32
:100160006E0FF66E010EF7220900F550120009021B
:100170002900010100C03209040000020300000050
:100180000921000100012220000705810340000130
:100190000705010340000100F76AA80FF66E010E83
:1001A000F7220900F55012000100F76ABA0FF66E47
:1001B000010EF7220900F55012001200F76ACC0F69
:1001C000F66E010EF7220900F5501200120110011F
:1001D0000000004061042000000101020001F76AF4
:1001E000EE0FF66E010EF7220900F550120004031F
:1001F000090408035300410043001C035300650039
:100200006D00690066006C007500690064002E00D6
:1002100063006F006D006D92699468A402D06894C9
:10022000FCD7AEEF06F0400E0401016F040E036F21
:10023000100E026F880E006F046B040E076F500ED5
:10024000066F0001000C70A002D0EDDF7090689A7C
:10025000B7EF06F06A6A6892BDEF06F00201689196
:1002600067BF6881679F6751100803E2000E016E47
:100270001BD068A10DD0036A675100011EDFFF0883
:1002800002E1000E01D0010E016E02010DD00CD072
:10029000036A6751000111DFFF0802E1000E01D07F
:1002A000010E016E020100D00001000C0201675135
:1002B0006903F3CF01F0F4CF00F06A03F350002696
:1002C00068516903F3500020026E0001000C036ABC
:1002D00002016651700FE96E0F0E0320EA6EEF6A9D
:1002E00066C267F20001BADF015227E00201686BC3
:1002F00066C267F26A6B080E696F0001D7DF020100
:1003000001C0E9FF040E0224EA6EEF6A686B66C260
:1003100067F26A6B080E696F0001C8DF02C068F2FD
:1003200001C067F2040E02016727000E682367C24E
:10033000E9FF040E6825EA6EEF6A0001000C010E69
:100340000201656F65510F0807E365C266F200019F
:10035000BEDF0201652BF6D70001000C02015B6BCA
:100360005B530AE1036A5B51280FE96E000E03201C
:10037000EA6EEF6A5B2BF4D71C6A010E1D6E1B6AD6
:100380000001000C6896000C6A6A686A9F0E6B6E2A
:100390003D0E696E6E6AD3DFE1DF160E706E68A6E1
:1003A00002D0F0DFFCD76D983EDF030E236EC3EF63
:1003B00006F0698468986D82C9EF06F0689CCFEFFB
:1003C00006F060C224F0000CFF0E246E000C020147
:1003D0005E6B275234E05E513F0831E31E50FC0F44
:1003E00021E2040F00012AEF02F0036A2650B7DE73
:1003F000E8CF5FF2020116D0036A265086DEE8CF0E
:100400005FF202010FD0036A2650E9DEE8CF5FF207
:10041000020108D0036A2650D1DEE8CF5FF2020164
:1004200001D00201262A27065E515E2B500FE96E8D
:10043000040EEA6ED8B0EA2A5FC2EFFFCAD727528D
:1004400004E15E51400801E01B6A5EC260F20001F7
:10045000B8DF000CE824F76AF7366F0FF66E040E6B
:10046000F7220A00F550FA6E0800F550F96EEA031B
:10047000F80306041404266A1E6A04011351010AD3
:10048000000109E0030A0CE0010A0DE0220A1DE068
:10049000030A30E04CD0120E276E030E1E6E49D0B8
:1004A000290E276E46D0020E1E6E036A04011251F9
:1004B0001F0FE96E000E0320EA6EEFCF26F0036AED
:1004C000265000018CDE276E34D0D89004011235FE
:1004D000036A00016ADE0900F5CF03F0266E263CB0
:1004E00001D006D0036A26503ADE276E22D002D011
:1004F0006BDF2BD0D89004011435036A00011DDE98
:100500000900F5CF03F0266E263C01D00ED0010E77
:100510001E6ED89004011435036A000117DE09002D
:10052000F5CF03F0276E05D002D04EDF0ED04CDFA2
:100530000CD00401175305E12750165D02E216C4E2
:1005400027F0010E1B6E000142DF000C02015D531B
:1005500006E1040E236E0001F2DEE7D00201050E73
:10056000236E040E606F900E5F6F010E5E6F5E5122
:100570000F08D8A0DAD05EC266F20001A8DE020140
:10058000616B036A5E51000198DDFF0865E0040EAF
:100590000201616FD8905E35036A00019EDD09009B
:1005A000F5CF03F00201626F03C063F2686B5EC2B5
:1005B00067F26A6B080E696F000178DE01C065F2B0
:1005C000010E02010124016E000E0220036E01C023
:1005D000E9FF040E0324EA6E62C2EFFF686B5EC29D
:1005E00067F26A6B080E696F000160DE01C065F298
:1005F000020E02010124016E000E0220036E01C0F2
:10060000E9FF040E0324EA6E60C2ECFFED525FC204
:10061000EFFFD8905E35036A00015FDD0900F5CF7A
:1006200003F002015F2703506023880E646F63B1FB
:10063000648163B36483686B5EC267F26A6B080EA1
:10064000696F000133DE020101C0E9FF040E0224DC
:10065000EA6E64C2EFFF0001036A02015E5100010D
:100660002CDDFF0847E002016183686B5EC267F220
:100670006A6B080E696F000119DE02C066F201C0E4
:1006800065F2040E02016527000E6623020E652541
:10069000016E000E6621036E01C0E9FF040E032403
:1006A000EA6E60C2ECFFED525FC2EFFFD8905E359C
:1006B000036A000112DD0900F5CF03F002015F2794
:1006C00003506023686B5EC267F26A6B080E696F45
:1006D0000001ECDD02C066F201C065F2040E020109
:1006E0006527000E662365C2E9FF040E6625EA6EE3
:1006F000400EEF6E02016151060802E10E0E616FBD
:10070000036A5E510001D9DC010803E0020161893E
:100710000001036A02015E51700FE96E0F0E0320A3
:10072000EA6E61C2EFFF5E2B22D70001EAEF03F011
:1007300004011151000A00010DE0010A15E0020A4E
:1007400020E0060A2AE0030A31E00E0A31E0010A3D
:1007500037E046D01DC050F40401516B020E020177
:10076000606F00012EDE3ED00401122D07D0010E75
:100770001D160201606B000124DE02D0000124DEA0
:1007800031D00401122D06D01D820201606B0001E0
:1007900018DE02D0000118DE25D0020E1B6E12C436
:1007A00025F00201606B00010CDE1CD064DE1AD063
:1007B0001CC050F4010E0201606F000102DE12D075
:1007C0000401125101080AE312C41CF012C45DF2C4
:1007D0000001BCD60201606B0001F3DD000102D014
:1007E000F3DD00D03CEF05F01CC05DF204011151B7
:1007F000000A000107E00A0A0EE0010A2DE00D0AD6
:1008000040E041D00401506B516B020E0201606F59
:100810000001D7DD3AD002015D531BE0010E5D5DA2
:10082000036A0001B9DC016E0401145DD8A002D096
:1008300002010FD0036A1451280FE96E000E032045
:10084000EA6EEFCF50F4010E0201606F0001B9DDD6
:1008500002D00001B9DD19D002015D530FE0036A37
:1008600004011451280FE96E000E0320EA6E12C431
:10087000EFFF0201606B0001A4DD02D00001A4DDE6
:1008800004D0F9DD02D0A0DD00D03CEF05F002017C
:100890005E915DBF5E815D9F5EA119D0686B5DC298
:1008A00067F26A6B080E696F000100DD02C060F23A
:1008B00001C05FF2040E02015F27000E60235FC2D9
:1008C000E9FF040E6025EA6E880EEF6E0FD0686BAC
:1008D0005DC267F26A6B080E696F0001E7DC020116
:1008E00001C0E9FF040E0224EA6EEF6A0001F9EF8D
:1008F00004F002015E915DBF5E815D9F5EA119D033
:10090000686B5DC267F26A6B080E696F0001CEDC2E
:1009100002C060F201C05FF2040E02015F27000E08
:1009200060235FC2E9FF040E6025EA6E840EEF6E5D
:1009300010D0686B5DC267F26A6B080E696F0001C8
:10094000B5DC020101C0E9FF040E0224EA6E840E48
:10095000EF6E000101EF05F002015E915DBF5E8167
:100960005D9F5EA119D0686B5DC267F26A6B080E6D
:10097000696F00019BDC02C061F201C060F2040EED
:1009800002016027000E612360C2E9FF040E6125A9
:10099000EA6EEFCF5FF210D0686B5DC267F26A6BF0
:1009A000080E696F000182DC020101C0E9FF040E3C
:1009B0000224EA6EEFCF5FF25FAF02D05FB502D0E4
:1009C000000E01D0010E016E00010DEF05F014C400
:1009D00067F244DC01522EE004011151010A0001CA
:1009E00005E0020A0BE0030A11E022D014C45DF214
:1009F0004ED70201606B0001E4DC1CD014C45DF230
:100A000078D70201606B0001DCDC14D00401506B6C
:100A1000516B14C45DF200019FD7015203E0010E37
:100A20000401506F020E0201606F0001CADC02D0A7
:100A3000CBDC00D03CEF05F00401115100D00001E7
:100A4000C3DC00D03CEF05F01B6A040110517F0BA2
:100A5000000A000107E0010A07E0030A07E0230A91
:100A600007E008D065D608D0BFD606D0B0D704D0EE
:100A7000E3D702D0A9DC00D01CEF08F00201686BBC
:100A80005DC267F26A6B080E696F00010FDC02013C
:100A900001C0E9FF040E0224EA6EEFCF5FF25E515F
:100AA000020806E15FAD02D05E6B02D0010E5E6F00
:100AB0005E5103081CE1840E5F6F686B5DC267F2D4
:100AC0006A6B080E696F000156EC01F002C063F218
:100AD00001C062F2040E02016227000E632362C2AB
:100AE000E9FF040E6325EA6E840EEF6E07D05E2DDB
:100AF00003D0C80E5F6F02D0880E5F6FD8905D354F
:100B0000036A00016DEC00F00900F5CF03F002016B
:100B1000606F03C061F2686B5DC267F26A6B080EBA
:100B2000696F000156EC01F001C062F2010E020192
:100B30000124016E000E0220036E01C0E9FF040EC5
:100B40000324EA6E60C2EFFF61B15F8161B35F832E
:100B5000686B5DC267F26A6B080E696F000156EC44
:100B600001F0020101C0E9FF040E0224EA6E5FC237
:100B7000EFFF0001000C036A02016251700FE96E81
:100B80000F0E0320EA6EEF521BE0686B62C267F241
:100B90006A6B080E696F000156EC01F002C064F246
:100BA00001C063F2040E02016327000E642363C2D6
:100BB000E9FF040E6425EA6EEFCF63F263AF02D063
:100BC000000E01D0010E016E0001000C5DC262F248
:100BD000D2DF0152D8B486D00201686B5DC267F2E1
:100BE0006A6B080E696F000156EC01F002C063F2F7
:100BF00001C062F2040E02016227000E6323010E9F
:100C00006225016E000E6321036E01C0E9FF040E30
:100C10000324EA6E5EC2EFFF6051020820E1686BB8
:100C20005DC267F26A6B080E696F000156EC01F055
:100C300002C063F201C062F2040E02016227000EDC
:100C4000632362C2E9FF040E6325EA6EEFCF61F20F
:100C500061AD02D0606B02D0010E606F1AD060519E
:100C6000040817E1686B5DC267F26A6B080E696F72
:100C7000000156EC01F0020101C0E9FF040E02245C
:100C8000EA6EEFCF61F261AD03D0010E606F01D06B
:100C9000606B602D03D0C80E616F02D0880E616F4B
:100CA0005FB161815FB36183686B5DC267F26A6B3C
:100CB000080E696F000156EC01F002C063F201C03A
:100CC00062F2040E02016227000E632362C2E9FF92
:100CD000040E6325EA6E61C2EFFF010E016E05D0BE
:100CE00000D00001000E016E02010001000C0201A3
:100CF0005D5300E10001000C5EC26EFF02015E5315
:100D000003E0040E236E02D0020E236E00018EEF6C
:100D100006F01C6A1B6A25C05EF2EED79FEF06F054
:100D200002015D530DE11B2C05D00001E7EC01F041
:100D300006D002011B50020803E10001EAD70201BC
:100D40000001000CA19A235201E13ED068523CE020
:100D500068A404D069A402D00BEF01F06DA201D009
:100D600033D068AA04D069AA02D023EF01F068A2A8
:100D700004D069A202D02AEF01F068A004D069A0D3
:100D800002D0C4EF01F068A804D069A802D0D9EF5E
:100D900001F068AC04D069AC02D0DEEF01F00201D2
:100DA0005A6B68A60AD069A608D06CCF22F0000161
:100DB000C2EC01F025D102D0020105D002015A5146
:100DC0005A2B0308EEE2000136EF00F00D0A0A5537
:100DD000534220636F6E6E65637465642C20776187
:100DE0006974696E6720666F7220656E756D6172D9
:100DF0006174696F6E2E2E2E00000D0A0A55534243
:100E000020646973636F6E6E65637465642C20770C
:100E1000616974696E6720666F7220636F6E6E65BC
:100E20006374696F6E2E2E2E00000D0A0A55534210
:100E300020656E756D6572617465642062792050FD
:100E4000432F484F535400000D0A0A555342207552
:100E50006E656E756D65726174656420627920508F
:100E6000432F484F53542C2077616974696E672073
:100E7000666F7220656E756D65726174696F6E2E36
:100E80002E2E00009EAAFED7ABCF1AF0AECF01F0F7
:100E90001AA202D0AB98AB88000C6D6A696A080E82
:100EA0006F6E945030090201466F946E236A196A7E
:100EB000F2BE198EF29E0001AEEC01F019BEF28E68
:100EC00063EF07F0EAD777EF07F0196AF2BE198EE1
:100ED000F29EAEEC01F019BEF28E6D6A140E6F6ECA
:100EE000696A6D86010E236E23EF09F0EBD7A8D94E
:100EF00023500208FCE155EF0BF01C50016E000C72
:10100000223002015B6F5B335B331F0E5B17225292
:101010004FE1040100513C0B02015C6F430E0401DF
:10102000001702015C51340825E104010451800BD2
:1010300001E0046B000108D56D98243C07D0020143
:101040005D6B030E5E6F000119DD12D002015D6B56
:10105000020E5E6F000112DD2450FE0809E002015D
:101060005D6B5F6B24C05EF2040E606F0001AEDD4D
:101070001DD002015C5104081AE15D6B000137DEEE
:1010800002015D6B020E5E6F0001F8DC2450FE0869
:101090000CE0243C01D009D002015D6B5F6B24C0E1
:1010A0005EF2010E606F000191DD00D0020188D078
:1010B0002250040818E1430E04010417FF0E246EA9
:1010C00002015D6B00012CDE243C01D00AD002013C
:1010D0005D6B5F6B24C05EF2020E606F000176DD17
:1010E00000D06DD0020122B432D0686B5BC267F2CF
:1010F0006A6B080E696F000156EC01F002C05EF2E7
:1011000001C05DF2040E02015E27686B5BC267F2EC
:101110006A6B080E696F000156EC01F002C060F2C4
:1011200001C05FF202015FC2E9FF040E6025EA6EB2
:10113000EF50430B5F6F5EC2EAFF5DC2E9FF5FC223
:10114000EFFF5BC25DF20001D2DD39D00201686BB6
:101150005BC267F26A6B080E696F000156EC01F022
:1011600002C05EF201C05DF2040E02015D27000EB6
:101170005E23040E5E27686B5BC267F26A6B080E23
:10118000696F000156EC01F002C060F201C05FF22D
:10119000040E02015F27000E60235FC2E9FF040E08
:1011A0006025EA6EEF50430B5F6F5EC2EAFF5DC2DF
:1011B000E9FF5FC2EFFF5BC25DF20001B1DD02013A
:1011C0000001DBEF06F0F29CF29EF2BEFDD75ADE84
:1011D00001C05AF202015A51120A000101E02BD05B
:1011E00051DE0150340802E0000E01D0010E020170
:1011F0005B6F000147DE0150560802E0000E01D08F
:10120000010E02015B1700013DDE0150780802E08B
:10121000000E01D0010E02015B17000133DE015008
:10122000900802E0000E01D0010E02015B15D8A467
:10123000FF00000100D0C00EF2129E9A36EF00F0BF
:101240006DB601D042D6232C0BD06DBA09D0686A96
:10125000696AA08AC00EF212110E696E020E236E28
:10126000000C020EEA6E460EE96EEF500EE00F0E15
:10127000016E006A002EFED7012EFBD78F0E006E86
:10128000002EFED70000EF2EF2D7000C0900F55219
:101290000DE0F6CF48F2F7CF49F2F5509EA8FED701
:1012A000AD6E48C2F6FF49C2F7FFF0D7000C010E41
:1012B0000201466F000121DE01C047F202014653E0
:1012C00009E0295207E1CC0EF66E0D0EF76E000113
:1012D000DDDF0201465309E1295207E0FA0EF66EFE
:1012E0000D0EF76E0001D2DF0201475309E02A52CA
:1012F00007E12A0EF66E0E0EF76E0001C7DF02013F
:10130000475309E12A5207E0480EF66E0E0EF76EBB
:101310000001BCDF020146C229F047C22AF00001E9
:1013200063EF0BF0036A02014651700FE96E0F0E76
:101330000320EA6EEF521BE0196AF2BE198EF29E8C
:10134000686B46C267F26A6B080E696F000156EC63
:1013500001F019BEF28E02C048F2020101C0E9FF9D
:10136000040E0224EA6EEFCF47F247AF02D0000E20
:1013700001D0010E016E00016CEF0BF0196AF2BE94
:10138000198EF29E0201686B4BC267F26A6B080EFF
:10139000696F000156EC01F019BEF28E01C055F2E2
:1013A000020E02010124016E000E0220036E01C034
:1013B000E9FF040E0324EA6EECCF03F0ED52EFCF09
:1013C00050F203C051F2196AF2BE198EF29E686B98
:1013D0004BC267F26A6B080E696F000156EC01F0B0
:1013E00019BEF28E01C055F2010E02010124016EF8
:1013F000000E0220036E01C0E9FF040E0324EA6E12
:10140000EF50036A536F03C054F2196AF2BE198E8B
:10141000F29E686B4BC267F26A6B080E696F00013F
:1014200056EC01F019BEF28E020101C0E9FF040E74
:101430000224EA6EEFCF52F252B1548152B3548378
:1014400054514F5D08E303E14E51535D04E254C231
:101450004FF253C24EF24DC2EAFF4CC2E9FF51C2F5
:10146000E2FF50C2E1FF4FC202F04EC201F0015252
:1014700002E0022A02D0025206E0E6CFEEFF012E81
:10148000FCD7022EFAD74EC201F04FC202F0000183
:1014900055EF0AF046C24BF248C24DF247C24CF239
:1014A0004AC24FF249C24EF269D702C04AF201C0A5
:1014B00049F2196AF2BE198EF29E46C25DF2020E20
:1014C00002015E6F00013EEC05F019BEF28E0201D2
:1014D00049C201F04AC202F000017AEF0BF046C2A5
:1014E00048F202014C6B4C5107081BE347C200F065
:1014F0004C51016E04E0D8900032012EFCD7005010
:10150000010B496F4851010B4A6F49514A19010BB0
:101510004B6FD89048334B5302E08C0E481B4C2B3A
:10152000E2D748C201F00001000C016A026A006AB9
:10153000036A02014B5102E14A5118E0100E4C6F50
:10154000D89048374937003603364B51035C02E1E7
:101550004A51005C07E34A51005ED8A003064B5194
:10156000035ED880013602364C2FEAD70001000C0A
:10157000196AF2BE198EF29E46C262F2BBEC05F009
:1015800019BEF28E015257E0196AF2BE198EF29E10
:101590000201686B46C267F26A6B080E696F000150
:1015A00056EC01F019BEF28E02C04FF201C04EF2AD
:1015B000040E02014E27000E4F23020E4E25016E2F
:1015C000000E4F21036E01C0E9FF040E0324EA6EF2
:1015D000ECCF03F0ED52EFCF4CF203C04DF24DC211
:1015E000EAFF4CC2E9FF48C2E2FF47C2E1FF4AC23C
:1015F00002F049C201F0015202E0022A02D0025276
:1016000006E0E6CFEEFF012EFCD7022EFAD7196ACC
:10161000F2BE198EF29E46C25DF24AC25FF249C224
:101620005EF24BC260F20001E6EC05F019BEF28EEC
:10163000015003D000D0000E016EB1EF0DF0F86A3A
:10164000D09E078EEA6AE96A1A6AB896190EAF6EDA
:10165000A60EAC6E900EAB6E236A276AC150C00B0B
:101660000F09C16E070EB46E1F6A040E206E0C0EB9
:10167000216E296A2A6AC150C00B0E09C16EC09042
:10168000C082C084C09EC280880ED56ECD6A000E16
:10169000CA6E7F0ECB6EB50EB16E9484BD6A948215
:1016A000BA6A9D8AC00EF21221D42B80000E016E00
:1016B000C250C30B0110C26E010E0201466F000141
:1016C000D0DDBEDDF4D519DC0152D8B450D2010E04
:1016D0000201466F000126D60152D8B448D2010E4D
:1016E0000201466F486B2C0E476F4A6B080E496F1C
:1016F0000001D0D62BA035D002013C6B3CC246F293
:101700002CC047F20001EBDE01C03CF23CC246F2C5
:101710002DC047F2E4DE01C03CF23CC246F22EC0CE
:1017200047F2DDDE01C03CF23CC246F22FC047F278
:10173000D6DE01C03CF23CC246F230C047F2CFDEFA
:1017400001C03CF23CC246F231C047F2C8DE01C0E3
:101750003CF23CC246F232C047F2C1DE01C03CF26C
:1017600002D033C03CF233C03CF202013C53D8B447
:10177000F9D1FF0E346E356E366E376E386E396EB7
:101780003A6E020E2C5CF50FD8B0A7D10B0F0001FA
:10179000B9EF0DF02DC047F22EC046F202012D50D8
:1017A000020814E303E14651000810E3346A020E14
:1017B000356E2DC036F02EC037F03C0E2E24E96E6B
:1017C000000E2D20EA6EEFCF38F008D0420E346EB6
:1017D000020E356E2DC036F02EC037F07ED12DC0F2
:1017E00047F22EC046F202012D50020816E303E133
:1017F0004651000812E33C0E2E24E96E000E2D2007
:10180000EA6E2FC0EFFF346A030E356E2DC036F03E
:101810002EC037F02FC038F00AD0420E346E030EBF
:10182000356E2DC036F02EC037F02FC038F055D1B0
:10183000C282C2B2FED7C4CF3DF20201346A040EA6
:10184000356E3DC236F049D12DC047F22EC046F26A
:1018500002012D5002082EE303E1465100082AE35D
:10186000B36AB26A3F6B3E6B2DC003F02EC001F02D
:101870003F512D5C13E303E101503E5D0FE23C0E4E
:101880003E25E96E000E3F21EA6EC282C2B2FED74B
:10189000C4CFEFFF3E2BD8B43F2BE6D7B250446FF6
:1018A000B3CF45F2346A050E356E2DC036F02EC02A
:1018B00037F008D0420E346E050E356E2DC036F06E
:1018C0002EC037F00AD1346A060E356E020145C2C9
:1018D00036F044C237F001D12DC047F22EC046F297
:1018E00002012D50020850E303E1465100084CE389
:1018F0002FC041F230C040F23F6B3E6B2DC003F071
:101900002EC001F03F512D5C33E303E101503E5DF9
:101910002FE2B36AB26A3C0E3E25E96E000E3F210B
:10192000EA6EC282C2B2FED7C4CFEFFFB250B3CFCD
:1019300003F0466FB3CF47F2D8904637473747C2D8
:1019400049F246C248F24B6B030E4A6F0001EDDDCF
:1019500002C047F201C046F202010250415D04E3B9
:10196000E5E14051465DE2E33E2BD8B43F2BC6D7BC
:10197000346A0C0E356E2DC036F02EC037F02FC0F5
:1019800038F030C039F00CD0420E346E0C0E356E8B
:101990002DC036F02EC037F02FC038F030C039F0EF
:1019A0009CD02DC047F22EC046F202012D500208F5
:1019B0004DE303E14651000849E32FC043F230C034
:1019C00042F23F6B3E6B2DC003F02EC001F03F5141
:1019D0002D5C30E303E101503E5D2CE2B36AB26A54
:1019E0003C0E3E25E96E000E3F21EA6EC282C2B275
:1019F000FED7C4CFEFFFB250B3CF03F0466FB3CFE3
:101A000047F2B3CF49F2486F050E4B6FDC0E4A6FB9
:101A100000018BDD02C047F201C046F20201025014
:101A2000435D04E3E8E14251465DE5E33E2BD8B473
:101A30003F2BC9D7346A070E356E2DC036F02EC045
:101A400037F02FC038F030C039F00CD0420E346E71
:101A5000070E356E2DC036F02EC037F02FC038F08F
:101A600030C039F03AD002013F6B3E6B3F51010864
:101A70000BE33C0E3E25E96E000E3F21EA6EEF6A55
:101A80003E2BD8B43F2BF2D7346A080E356E25D0E2
:101A900002013F6B3E6B3F5101080CE33C0E3E25BB
:101AA000E96E000E3F21EA6E2DC0EFFF3E2BD8B449
:101AB0003F2BF1D7346A090E356E2DC036F00DD0AC
:101AC0002B80346A0A0E356E020107D02B90346ADF
:101AD0000B0E356E020101D002012BA036D03C6BFB
:101AE0003CC246F234C047F20001F9DC01C03CF2CE
:101AF0003CC246F235C047F2F2DC01C03CF23CC2C7
:101B000046F236C047F2EBDC01C03CF23CC246F282
:101B100037C047F2E4DC01C03CF23CC246F238C0B8
:101B200047F2DDDC01C03CF23CC246F239C047F26C
:101B3000D6DC01C03CF23CC246F23AC047F2CFDCF0
:101B400001C03CF23CC23BF00201010E466F486B03
:101B5000340E476F4A6B080E496F020E4B6F00013F
:101B600007D50201010E466F000131EC09F0A9D53D
:101B70000300E824F76AF7368D0FF66E1B0EF72286
:101B80000A00F550FA6E0800F550F96E9417DE174A
:101B900030184818C618A219661A901AC01ACC1A1A
:021BA000D81853
:020000040030CA
:0E00000022CE3E1E008781000FC00FE00F4091
:00000001FF
;PIC18F2550
;CRC=9107  CREATED="05-фев-11 12:57"
