:020000040000FA
:100000007E28850183161330850083120508033985
:100010000800012082070F282A29052927298D0A8F
:100020008D1D942800308D000120820714280000C7
:10003000000000001A089D001B089E001C089F007D
:10004000312039290120820728285C295C295C2974
:100050008D0A8D1F3929012082072B285F295F29EE
:100060005F29031018308E009301920191019001D5
:100070009A0D9B0D9C0D900D910D920D930D8E0B75
:100080005A28130E0F39970013080F399600120ED5
:100090000F39950012080F399400110E0F39930093
:1000A00011080F399200100E0F39910010080F3906
:1000B0009000080010308400672011308400672011
:1000C0001230840067201330840067203828033002
:1000D00000078F008F198000303000078F008F1BC2
:1000E0008000003482073F3406345B344F3466347A
:1000F0006D347D3407347F346F347134831610309F
:1001000085000030860064002730810083128E0154
:100110009901900191019201930194019501960139
:1001200097019A019B019C010811003089008316F8
:100130000814831208089F000130890083160814F0
:10014000831208089E000230890083160814831267
:1001500008089D0031208B019C01810199013C30F0
:100160008E00003085008316183085008312003021
:1001700086001030190784000008722098000530AE
:1001800003151902031DC5289817180886001908B9
:1001900085000B1DCE289C0A0B11D1280000000001
:1001A000000043309800980BD328990A07300311B8
:1001B0001902031DB728000099018E0BB728000013
:1001C000DD309800980BE2280000030186008500CE
:1001D0008316103085008312000000000B1DF228EA
:1001E0000B119C0A000001089B009A019A0A8515D0
:1001F000000085110000010803111B020319F628F5
:100200009A0A9A099A0A9A0A09289D099D0A0319C5
:100210009E039E0903199F039F091D089A07031C4B
:1002200015299B0A031D15299C0A1E089B07031804
:100230009C0A1F089C0703182729031827299A09D5
:100240009A0A03199B039B0903199C039C0900301C
:100250008D0094281D089A07031C32299B0A031D50
:1002600032299C0A1E089B0703189C0A1F089C073A
:1002700027298B010A309700003085008316103043
:10028000850083129901103019078400000872203C
:100290009800053003151902031D4F2998171808F7
:1002A000860019088500FF309800980B5529990A97
:1002B000991D43299901222800308D0039290030E9
:1002C0008B0089001F0888008316081555308900A7
:1002D000AA3089008814081E6B2908128312013085
:1002E00089001E0888008316081555308900AA3039
:1002F00089008814081E7A290812831202308900A6
:100300001D0888008316081555308900AA30890019
:0C0310008814081E89290812831227296E
:02400E00F13F80
:1042000008006400700000000000000043006F0020
:104210007000790072006900670068007400200077
:1042200028004300290020003100390039003900FE
:10423000200041006C006500780061006E006400A1
:1042400065007200200059002000440065006E00E7
:08425000690073006F007600A5
:00000001FF
