:020000040000FA
:10000000926A936AC180C182C184C186806A816A12
:10001000010E11EC00F032EC00F01EEC00F00DEFE0
:1000200000F0216E202E12EF00F0212E12EF00F0D2
:100030001200206E202E1AEF00F01200010E11ECBB
:1000400000F08184010E11EC00F08080010E11ECB3
:1000500000F08194010E11EC00F0806A010E11ECA9
:1000600000F012008150E884816E010E11EC00F066
:10007000808A808880868094010E11EC00F0819443
:10008000010E11EC00F0806A816A010E11EC00F0A3
:0200900012005C
:020000040030CA
:04000000020C1F1FB0
:020005008185F3
:060008000FC00FE00F40E5
:00000001FF
