:020000040000FA
:10000000926A936AC180C182C184C186806A816A12
:1000100035EC00F0010E5AEC00F04DEC00F0240E2F
:100020006EEC00F00DEF00F0216E202E15EF00F0C9
:10003000212E15EF00F01200206E202E1DEF00F093
:100040001200010E14EC00F08184010E14EC00F09B
:100050008080010E14EC00F08194010E14EC00F08D
:10006000806A010E14EC00F01200100E1CEC00F07F
:10007000300E5AEC00F0100E1CEC00F0300E5AEC72
:1000800000F0100E1CEC00F0300E5AEC00F04DECBD
:1000900000F0380E5AEC00F01200928881908182B4
:1000A000000081840000819481B850EF00F09298A4
:1000B00081921200819081920000000000000000F7
:1000C0008184806E81968198E8BC8186E8BE8188B3
:1000D00000000000000000008194120081808192E5
:1000E00000000000000000008184806E81968198ED
:1000F000E8BC8186E8BE81880000000000000000A6
:06010000819481901200C1
:020000040030CA
:04000000020C1F1FB0
:020005008385F1
:060008000FC00FE00F40E5
:00000001FF
