:020000040000FA
:10000000926A936AC180C182C184C186806A816A12
:1000100053EC00F078EC00F0060E85EC00F0100ECA
:1000200032EC00F0C80E89EC00F0A00E89EC00F074
:10003000B80E89EC00F0BE0E89EC00F02D0E89ECB4
:1000400000F0B20E89EC00F0B80E89EC00F0BE0EA4
:1000500089EC00F0210E89EC00F0C90E89EC00F06B
:1000600030EF00F0216E202E33EF00F0212E33EF21
:1000700000F01200206E202E3BEF00F01200010E67
:1000800032EC00F08184010E32EC00F08080010E31
:1000900032EC00F08194010E32EC00F0806A010E27
:1000A00032EC00F01200000E32EC00F0300E85EC65
:1000B00000F0000E32EC00F0300E85EC00F0000E87
:1000C00032EC00F0380E85EC00F0000E32EC00F05F
:1000D000380E85EC00F0000E32EC00F00E0E85ECD0
:1000E00000F0000E32EC00F0010E85EC00F0120082
:1000F000928881908182000081840000819481B87F
:100100007BEF00F092988192120081908DEC00F0CC
:10011000120081808DEC00F012008192806E819639
:100120008198E8BC8186E8BE8188100E3AEC00F028
:100130008184100E3AEC00F08194100E3AEC00F03D
:020140001200AB
:020000040030CA
:04000000020C1F1FB0
:020005008385F1
:060008000FC00FE00F40E5
:00000001FF
