:020000040000FA
:10000000926A936AC180C182C184C186806A816A12
:100010002FEC00F01BEC00F00AEF00F0216E202E18
:100020000FEF00F0212E0FEF00F01200206E202EB7
:1000300017EF00F01200010E0EEC00F08184010EAB
:100040000EEC00F08080010E0EEC00F08194010EA9
:100050000EEC00F0806A010E0EEC00F012008184BC
:10006000010E0EEC00F0808A808880868094010E5C
:100070000EEC00F08194010E0EEC00F0806A816AB3
:10008000010E0EEC00F01200928881908182250E04
:1000900016EC00F08184010E0EEC00F0819481A832
:1000A00057EF00F0010E0EEC00F04AEF00F0010EE9
:1000B0000EEC00F0929881921200226E8190819253
:1000C000000081842250806E8196819822BC8186B6
:0600D00022BE818812002F
:020000040030CA
:04000000020C1F1FB0
:020005008385F1
:060008000FC00FE00F40E5
:00000001FF
