:10000000E4EF09F06896000C046ED8CF05F0E0CF5D
:1000100006F00001E9CF0CF0EACF07F0E1CF08F0DD
:10002000E2CF09F0D9CF0AF0DACF0BF0F3CF12F01C
:10003000F4CF13F0FACF14F0F5CF15F0F6CF16F099
:10004000F7CF17F000C00EF001C00FF002C010F0A3
:1000500003C011F0A0AA30EF00F0A1BA42EF06F001
:100060000EC000F00FC001F010C002F011C003F08C
:100070000CC0E9FF07C0EAFF078E08C0E1FF09C016
:10008000E2FF0AC0D9FF0BC0DAFF12C0F3FF13C0B2
:10009000F4FF14C0FAFF15C0F5FF16C0F6FF17C035
:1000A000F7FF045006C0E0FF05C0D8FF1000F76A54
:1000B000BE0FF66E000EF7220900F5501200000286
:1000C000FFFFFFFFFFFFFFFFFFFFFFFFFFFFF76ADD
:1000D000DE0FF66E000EF7220900F5501200400008
:1000E00040000000000000000000000000000000D0
:1000F0000000000000000000000000000000F76A9F
:100100000E0FF66E010EF7220900F55012000902DB
:10011000200001010080320904000002FFFFFF00FF
:100120000705810340000107050103400001F76A4C
:100130003E0FF66E010EF7220900F5501200010085
:10014000F76A500FF66E010EF7220900F550120003
:100150001201000200000040D80401D00001010299
:100160000001F76A720FF66E010EF7220900F550D2
:100170001200040309040803530048004D001E0345
:10018000530068006D0075006D00610020004C0098
:10019000430044002D00550053004200F76AAC0FA5
:1001A000F66E010EF7220900F5501200280C010628
:1001B0006D92699468A402D06894FCD74EEF06F063
:1001C000400E0401016F040E036F100E026F880EC3
:1001D000006F046B040E076F500E066F0001000CD9
:1001E00070A002D0EDDF7090689A57EF06F06A6A4F
:1001F00068925DEF06F0A491A3BFA481A39FA351D1
:10020000100803E2000E016E17D0A4A10BD0036A00
:10021000A3514DDFFF0802E1000E01D0010E016E77
:100220000BD00AD0036AA35142DFFF0802E1000E9F
:1002300001D0010E016E00D0000CA351A503F3CF35
:1002400001F0F4CF00F0A603F3500026A451A5035B
:10025000F3500020026E000C036AA251700FE96E89
:100260000F0E0320EA6EEF6AA2C0A3F0C4DF0152B2
:1002700022E0A46BA2C0A3F0A66B080EA56FDDDF81
:1002800001C0E9FF040E0224EA6EEF6AA46BA2C06B
:10029000A3F0A66B080EA56FD0DF02C0A4F001C0CA
:1002A000A3F0040EA327000EA423A3C0E9FF040EAD
:1002B000A425EA6EEF6A000C010EA16FA1510F0890
:1002C00005E3A1C0A2F0C8DFA12BF8D7000C976B03
:1002D00097530AE1036A9751270FE96E000E032036
:1002E000EA6EEF6A972BF4D71B6A010E1C6E1A6A2E
:1002F000000C6A6A686A9F0E6B6E3D0E696E6E6ACC
:10030000DBDFE5DF160E706E68A602D07BDEFCD761
:100310006D9856DF030E226E63EF06F069846898CD
:100320006D8269EF06F0689C6FEF06F09CC023F0C9
:10033000000CFF0E236E000C9A6B265226E09A5199
:100340003F0823E31D5005E0020A08E0010A0BE024
:100350000FD0036A2550D3DE9B6F0AD0036A255065
:1003600000DF9B6F05D0036A2550EADE9B6F00D04B
:10037000252A26069A519A2B500FE96E040EEA6E32
:10038000D8B0EA2A9BC0EFFFD8D7265204E19A5191
:10039000400801E01A6A9AC09CF0C8DF000C256A88
:1003A0001D6A04011351010A000105E0030A08E077
:1003B000010A09E01AD0120E266E030E1D6E17D028
:1003C000200E266E14D0020E1D6E036A0401125117
:1003D0001E0FE96E000E0320EA6EEFCF25F0036AD0
:1003E00025500001BEDE266E02D0A3DF0CD0040132
:1003F000175305E12650165D02E216C426F0010EE1
:100400001A6E000199DF27EF03F0995304E1040EFF
:10041000226E52DFC9D0050E226E040E9C6F900E24
:100420009B6F010E9A6F9A510F08D8A0BDD09AC049
:10043000A2F012DF9D6B036A9A5139DEFF0859E082
:10044000040E9D6FD8909A35036A41DE0900F5CFFE
:1004500003F09E6F03C09FF0A46B9AC0A3F0A66B3D
:10046000080EA56FEADE01C0A1F0010E0124016EA5
:10047000000E0220036E01C0E9FF040E0324EA6EA1
:100480009EC0EFFFA46B9AC0A3F0A66B080EA56FE9
:10049000D4DE01C0A1F0020E0124016E000E022084
:1004A000036E01C0E9FF040E0324EA6E9CC0ECFF5A
:1004B000ED529BC0EFFFD8909A35036A08DE090021
:1004C000F5CF03F09B2703509C23880EA06F9FB1AC
:1004D000A0819FB3A083A46B9AC0A3F0A66B080E63
:1004E000A56FABDE01C0E9FF040E0224EA6EA0C0D6
:1004F000EFFF036A9A51DBDDFF0840E09D83A46BA8
:100500009AC0A3F0A66B080EA56F97DE02C0A2F0FA
:1005100001C0A1F0040EA127000EA223020EA12506
:10052000016E000EA221036E01C0E9FF040E032438
:10053000EA6E9CC0ECFFED529BC0EFFFD8909A355D
:10054000036AC5DD0900F5CF03F09B2703509C2308
:10055000A46B9AC0A3F0A66B080EA56F6EDE02C056
:10056000A2F001C0A1F0040EA127000EA223A1C099
:10057000E9FF040EA225EA6E400EEF6E9D510608BB
:1005800002E10E0E9D6F036A9A5191DD0108D8A415
:100590009D89036A9A51700FE96E0F0E0320EA6E6F
:1005A0009DC0EFFF9A2B3FD721EF03F004011151BB
:1005B000000A00010DE0010A14E0020A1EE0060A2A
:1005C00027E0030A2CE00E0A2CE0010A30E03DD0BF
:1005D0001CC050F40401516B020E00019C6FA6DE9A
:1005E00036D00401122D06D0010E1C1600019C6BA2
:1005F0009DDE02D000019DDE2AD00401122D05D01F
:100600001C8200019C6B92DE02D0000192DE1FD0A2
:10061000020E1A6E12C424F09C6B88DE18D0BFD66E
:1006200016D01BC050F4010E9C6F80DE10D0040168
:100630001251010808E312C41BF012C499F0000122
:10064000E4D69C6B73DE000102D073DE00D042EF73
:1006500004F01BC099F004011151000A000105E0EB
:100660000A0A0BE0010A26E037D00401506B516BF7
:10067000020E00019C6F5ADE31D0995319E0010E31
:10068000995D036A54DD016E0401145DD8A002D0A7
:1006900000010ED0036A1451270FE96E000E0320EB
:1006A000EA6EEFCF50F4010E00019C6F3FDE01D0E7
:1006B00040DE14D099530EE0036A04011451270F51
:1006C000E96E000E0320EA6E12C4EFFF00019C6B7E
:1006D0002DDE01D02EDE02D02CDE00D042EF04F061
:1006E0009A9199BF9A81999F9AA117D0A46B99C0AA
:1006F000A3F0A66B080EA56FA0DD02C09CF001C0A0
:100700009BF0040E9B27000E9C239BC0E9FF040E68
:100710009C25EA6E880EEF6E0DD0A46B99C0A3F0F5
:10072000A66B080EA56F89DD01C0E9FF040E022447
:10073000EA6EEF6A10EF04F09A9199BF9A81999F3F
:100740009AA117D0A46B99C0A3F0A66B080EA56F51
:1007500074DD02C09CF001C09BF0040E9B27000ECC
:100760009C239BC0E9FF040E9C25EA6E840EEF6E6D
:100770000ED0A46B99C0A3F0A66B080EA56F5DDD2B
:1007800001C0E9FF040E0224EA6E840EEF6E16EF3C
:1007900004F09A9199BF9A81999F9AA117D0A46B5E
:1007A00099C0A3F0A66B080EA56F47DD02C09DF0AF
:1007B00001C09CF0040E9C27000E9D239CC0E9FF05
:1007C000040E9D25EA6EEFCF9BF00ED0A46B99C06E
:1007D000A3F0A66B080EA56F30DD01C0E9FF040E83
:1007E0000224EA6EEFCF9BF09BAF02D09BB502D004
:1007F000000E01D0010E016E20EF04F014C4A3F02E
:10080000FADC015229E004011151010A000105E05E
:10081000020A09E0030A0DE01DD014C499F060D764
:100820009C6B84DD19D014C499F086D79C6B7EDD57
:1008300013D00401506B516B14C499F00001A9D777
:10084000015204E0010E0401506F0001020E9C6F82
:100850006DDD02D06EDD00D042EF04F01A6A0401B3
:1008600010517F0B000A000105E0010A05E0030AB0
:1008700005E006D09BD606D0ECD604D0BFD702D078
:1008800058DD00D097EF05F0A46B99C0A3F0A66BDC
:10089000080EA56FD2DC01C0E9FF040E0224EA6E47
:1008A000EFCF9BF09A51020806E19BAD02D09A6B04
:1008B00002D0010E9A6F9A51030819E1840E9B6FC2
:1008C000A46B99C0A3F0A66B080EA56FB6DC02C09E
:1008D0009FF001C09EF0040E9E27000E9F239EC035
:1008E000E9FF040E9F25EA6E840EEF6E07D09A2D65
:1008F00003D0C80E9B6F02D0880E9B6FD89099359D
:10090000036A67EC00F00900F5CF03F09C6F03C0A9
:100910009DF0A46B99C0A3F0A66B080EA56F8DDCAB
:1009200001C09EF0010E0124016E000E0220036E34
:1009300001C0E9FF040E0324EA6E9CC0EFFF9DB1E5
:100940009B819DB39B83A46B99C0A3F0A66B080EFB
:10095000A56F73DC01C0E9FF040E0224EA6E9BC0A0
:10096000EFFF000C036A9E51700FE96E0F0E03201B
:10097000EA6EEF5218E0A46B9EC0A3F0A66B080EBF
:10098000A56F5BDC02C0A0F001C09FF0040E9F27A2
:10099000000EA0239FC0E9FF040EA025EA6EEFCF52
:1009A0009FF09FAF02D0000E01D0010E016EDCEF70
:1009B00004F099C09EF0D6D70152D8B47AD0A46B77
:1009C00099C0A3F0A66B080EA56F37DC02C09FF09C
:1009D00001C09EF0040E9E27000E9F23010E9E254F
:1009E000016E000E9F21036E01C0E9FF040E032477
:1009F000EA6E9AC0EFFF9C5102081DE1A46B99C0FA
:100A0000A3F0A66B080EA56F18DC02C09FF001C012
:100A10009EF0040E9E27000E9F239EC0E9FF040E49
:100A20009F25EA6EEFCF9DF09DAD02D09C6B02D06A
:100A3000010E9C6F18D09C51040815E1A46B99C05D
:100A4000A3F0A66B080EA56F1DEC01F001C0E9FF35
:100A5000040E0224EA6EEFCF9DF09DAD03D0010E8F
:100A60009C6F01D09C6B9C2D03D0C80E9D6F02D053
:100A7000880E9D6F9BB19D819BB39D83A46B99C094
:100A8000A3F0A66B080EA56F1DEC01F002C09FF04D
:100A900001C09EF0040E9E27000E9F239EC0E9FF1A
:100AA000040E9F25EA6E9DC0EFFF010E016E03D07C
:100AB00000D0000E016E000C995300E1000C9AC0AA
:100AC0006EFF9A5303E0040E226E02D0020E226ED5
:100AD0006FEF05F01B6A1A6A24C09AF0F0D77BEF1B
:100AE00005F0995308E11A2C02D026DC04D01A50E4
:100AF000020801E1EFD7000C2130976F973397334D
:100B00001F0E9717215242E1040100513C0B0001D6
:100B1000986F430E040100170001985134081EE13C
:100B200004010451800B01E0046B000197D66D981D
:100B3000233C05D0996B030E9A6FA6DE0ED0996BFD
:100B4000020E9A6FA1DE2350FE0807E0996B9B6BA3
:100B500023C09AF0040E9C6F2CDF17D09851040824
:100B600014E1996BA9DF996B020E9A6F8DDE235009
:100B7000FE080AE0233C01D007D0996B9B6B23C091
:100B80009AF0010E9C6F15DF00D07AD02150040836
:100B900014E1430E04010417FF0E236E0001996B4C
:100BA000A0DF233C01D008D0996B9B6B23C09AF047
:100BB000020E9C6FFEDE00D063D021B42AD0A46B5D
:100BC00097C0A3F0A66B080EA56F1DEC01F001C045
:100BD00099F001C001F0040E0224036E01C099F0E7
:100BE0009A6FA46B97C0A3F0A66B080EA56F1DECBF
:100BF00001F001C0E9FF040E0224EA6EEF50430B3E
:100C00009AC0EAFF99C0E9FFEF6E97C099F054DFF0
:100C100037D0A46B97C0A3F0A66B080EA56F1DEC90
:100C200001F002C09AF001C099F0040E9927000E5D
:100C30009A2399C001F0040E9A25036E99C099F089
:100C40009A6FA46B97C0A3F0A66B080EA56F1DEC5E
:100C500001F002C09CF001C09BF0040E9B27000E27
:100C60009C239BC0E9FF040E9C25EA6EEF50430BCA
:100C70009AC0EAFF99C0E9FFEF6E97C099F031DFA3
:100C800079EF06F0A19A225201E139D0685237E09B
:100C900068A404D069A402D0D8EF00F06DA201D0FE
:100CA0002ED068AA04D069AA02D0F0EF00F068A2A2
:100CB00004D069A202D0F7EF00F068A004D069A0C8
:100CC00002D079EF01F068A804D069A802D08EEFB5
:100CD00001F068AC04D069AC02D093EF01F0966BE0
:100CE00068A608D069A606D06CCF21F002EC00F00F
:100CF00003D701D004D09651962B0308F1E230EFD0
:100D000000F0454E3A2031002C204461743A2025F1
:100D1000640A0000454E3A20300A00006D6A696A94
:100D2000080E6F6E94503009946E226A196AF2BEF2
:100D3000198EF29E67EC01F019BEF28EA1EF06F05B
:100D4000EDD7C6EF06F0196AF2BE198EF29E67EC77
:100D500001F019BEF28E6D6A140E6F6E696A6D86AF
:100D6000010E226EB7EF06F06DB601D0ECD7222C43
:100D70000BD06DBA09D0686A696AA08AC00EF212F7
:100D8000110E696E020E226E000CDAD7EDDF2250D2
:100D90000208FCE10FEF0AF0EA6A880EE96EEF50F4
:100DA0000EE00F0E016E006A002EFED7012EFBD75B
:100DB0008F0E006E002EFED70000EF2EF2D7000C33
:100DC00090B102D0899801D08988929890B302D0CE
:100DD000899A01D0898A929A90B502D08A9601D0D8
:100DE0008A86939690B702D08A9801D08A88939881
:100DF00000008A849394070E006E002EFED700D068
:100E00008A949394000C916B9288000E80B8010E26
:100E10009113928A000E80BA010E006ED8900036AF
:100E2000005091139386000E81B6010E006E0036BD
:100E30000036FC0E0016005091139388000E81B806
:100E4000010E006E003600360036F80E0016005017
:100E5000911391C001F0000C9288928A9386938836
:100E60008A82939200008A8493940000CCDF01C0B0
:100E700090F08A94939400008A849394030E006EF9
:100E8000002EFED700D0BFDF01C08FF08A9493946C
:100E90009298929A939693989039006EF00E00165D
:100EA00000508F11016E5BEF07F093949390939233
:100EB0008A909390D1D701C08FF001BEFBD78D539C
:100EC00002E18A9001D08A80939000008A929392E6
:100ED00000008A9493948E398F6F0F0E8F178FC0F6
:100EE00090F06EDF8E510F0B8F6F906F69DF000CEB
:100EF0009298929A939693989394939093928A90BF
:100F000093908A9293928A9493940F0E886F44DF01
:100F1000010E826F825103080AE3030E906F50DFC7
:100F2000906B4EDF050E886F37DF822BF3D7020EF2
:100F3000906F46DF906B44DF050E886F2DDF826B6C
:100F4000825103080AE3036A8251CEEC00F0836FFA
:100F50008D6B8E6FAADF822BF3D7286A296A10EF78
:100F60000AF08A2D01D003D0400E8B6F01D08B6B1D
:100F7000010E895D8B278B5180098C6F8D6B8E6F75
:100F800094DF010E895D286E010E8A5D296E000CCA
:100F90008751070A09E00B0A0CE0010A14E0070A6E
:100FA0001BE0020A2CE030D0010E896F8A6FD9DF76
:100FB00035D08D6B010E8E6F78DF020E886FECDE00
:100FC000286A296A2BD0010E2924886F010E896FA7
:100FD00088C08AF0C6DF22D02850282A130806E3EA
:100FE000010E8D6F200E8E6F60DFF6D7020E292462
:100FF000886F010E896F88C08AF0B3DF0FD08D6BC8
:10100000100E8E6F52DF0AD02850130806E3010E2F
:101010008D6F87C08EF049DF282A00D0000C1B504E
:10102000016E000C0900F5520CE0F6CF85F0F7CF09
:1010300086F0F5CF87F0ACDF85C0F6FF86C0F7FFFE
:10104000F1D7000C81C0EAFF80C0E9FF8BC0EFFF41
:10105000E92AD8B4EA2AEF6A802BD8B4812B000C95
:101060000900F6CF86F0F7CF87F0F5CF8BF0EADFF7
:1010700086C0F6FF87C0F7FF852FF2D7D2EF08F0C2
:101080008C51016A8B5D03E28BC000F00CD0006ACA
:10109000080E8D6F8B3700368C51005CD8B0006E17
:1010A00001368D2FF7D7000C200E86A9300E876FE2
:1010B00085C000F085AF07D0001E002A00C085F073
:1010C0002D0E876F868F015085C08BF0640E8C6F5C
:1010D000D7DF00C085F0300E0124886F85C08BF00B
:1010E0000A0E8C6FCDDF300E00248A6F300E012483
:1010F000896F87C000F086A702D086AF869586B933
:101100000BD086AF22D086B520D000C088F086B341
:101110001CD000C089F019D0300E885D16E100C0E7
:1011200088F0200E876F86A704D08695868386AFC9
:101130008693300E895D09E100C089F0200E886F2A
:1011400086A7F7D7869386AF869186A503D087C0FA
:101150008BF078DF86A303D088C08BF073DF86A185
:1011600003D089C08BF06EDF8AC08BF06BDFD7EFC6
:1011700008F0836B6B0E826F010E896F8A6FF1DE50
:101180004EDF01522FE0020EF66E0D0EF76E4ADFB3
:10119000816B6B0E806F080EF66E0D0EF76E070EEC
:1011A000856F5ED76AC085F01F0E866F7DD70A0EE9
:1011B0008B6F48DF83C003F082C0E9FF83C0EAFF82
:1011C000EF520FE083C003F08251822BD8B4832BFF
:1011D000E96E03C0EAFFEFCF85F085C087F0D8DE67
:1011E000E9D705D0140EF66E0D0EF76E1BDF846B7B
:1011F0006A51845D17E2036A84512A0FE96E000E7A
:101200000320EA6EEF520CE0036A84512A0FE96E64
:10121000000E0320EA6EEFCF85F085C087F0B8DEC0
:10122000842BE6D70A0E876FB3DE17EF0AF0036A46
:101230008251700FE96E0F0E0320EA6EEF5219E033
:10124000196AF2BE198EF29EA46B82C0A3F0A66B3F
:10125000080EA56F1DEC01F019BEF28E02C084F0DD
:1012600001C0E9FF040E0224EA6EEFCF83F083AFE2
:1012700002D0000E01D0010E016E1EEF0AF0196AB5
:10128000F2BE198EF29EA46B87C0A3F0A66B080E67
:10129000A56F1DEC01F019BEF28E01C091F0020E97
:1012A0000124016E000E0220036E01C0E9FF040E4E
:1012B0000324EA6EECCF03F0ED52EFCF8CF003C0C5
:1012C0008DF0196AF2BE198EF29EA46B87C0A3F04E
:1012D000A66B080EA56F1DEC01F019BEF28E01C0C1
:1012E00091F0010E0124016E000E0220036E01C078
:1012F000E9FF040E0324EA6EEF50036A8F6F03C008
:1013000090F0196AF2BE198EF29EA46B87C0A3F00A
:10131000A66B080EA56F1DEC01F019BEF28E01C080
:10132000E9FF040E0224EA6EEFCF8EF08EB19081B9
:101330008EB3908390518B5D08E303E18A518F5DFA
:1013400004E290C08BF08FC08AF089C0EAFF88C0A9
:10135000E9FF8DC0E2FF8CC0E1FF8BC002F08AC0C4
:1013600001F0015202E0022A02D0025206E0E6CF6A
:10137000EEFF012EFCD7022EFAD78AC001F08BC0F7
:1013800002F0CEEF09F082C087F084C089F083C0FC
:1013900088F086C08BF085C08AF071D702C086F0D5
:1013A00001C085F0196AF2BE198EF29E82C099F0D2
:1013B000020E9A6F44EC04F019BEF28E85C001F063
:1013C00086C002F029EF0AF0F86AD09E078EEA6A1A
:1013D000E96A226A266A816B806BC150C00B0F09D3
:1013E000C16E070EB46E1E6A040E1F6E0C0E206EC8
:1013F0006B6B6C6B6D6B6E6B6F6B706B716B726B21
:10140000736B746B756B766B776B786B796B7A6BD0
:101410007B6B7C6B7D6B7E6B7F6BB16AB6D468D562
:101420000C0E876FB5DD010E886FB6DCA2D69CDC92
:10143000F6DD015210E0010E826FF9D601520BE089
:10144000010E826F846B2A0E836F866B400E856F50
:101450009AD701C06AF0640E886F9EDCE7D703005C
:020000040030CA
:0E0000003ACE390E000581000FC00FE00F4010
:00000001FF
;PIC18F2550
;CRC=A571  CREATED="06-фев-11 16:47"
